:100000000C9468050C94E7190C94AF050C94AF059B
:100010000C94AF050C94AF050C94AF050C94AF0590
:100020000C94AF050C94AF050C94DD310C94AF32F9
:100030000C942D290C94AF050C94AF050C94AF05CE
:100040000C94AF050C94AF050C94AF050C94AF0560
:100050000C94AF050C9495290C94AF050C94AF0546
:100060000C94AF050C94AF050C94AF050C94AF0540
:100070000C94AF050C94AF050C94AF050C94AF0530
:100080000C94AF050C94AF050C94AF050C94AF0520
:100090000C94AF050C94AF050C94AF050C94AF0510
:1000A0000C94AF050C94AF050C94AF05C215C515A3
:1000B000CA15D115D615DB15E015E515EA15EF15AE
:1000C000F415F915FB15FE150116041607160A1688
:1000D0000C1611167D1E7D1EAF1EAF1EFC1E1A1FB4
:1000E000722072205C1FF11F022002206220722009
:1000F00072206B2006210621182118210F211821BA
:100100001821182106210621142118211821142153
:100110001C3343333B3443333B348F33B2333B34B0
:100120000934183435431E001F002000210022002E
:100130002B0014001A000800150017002900040005
:100140001600070009000A002F621D001B000600B0
:1001500019000500000000002D61E3002E74AE00C0
:100160002A00270026002500240023003100130068
:1001700012000C0018001C00340033000F000E00A9
:100180000D000B003042380037003600100011001F
:10019000000000004C7228002C410000010001000A
:1001A000010001000100260201003D043D010100A3
:1001B00001002F000100500901004F09010001005A
:1001C000010001004C01490149022F02000000001A
:1001D000010001000100010049002E002D00010076
:1001E000010027024C002E022D0201000100300008
:1001F0004B004A004F005200510050004E004D008D
:100200000100010001003002000000006500010053
:100210000100010045003A003B003C003D003E006B
:10022000C25C01000100010001000100C35C01008B
:100230000100010001000100C45CAC00AB00B20091
:1002400001000100000000000100010001000100A8
:10025000440043004200410040003F0001004600CE
:1002600001000100010001000100C95CC75CC55C20
:10027000010001000100CA5CC85CC65C010001000D
:100280000000000001000100010001000100010068
:100290000100010001000100010001000100010056
:1002A0000100010001000100010001000100010046
:1002B0000100010001000100010001000000000038
:1002C0000100010001000100010001000100010026
:1002D0000100010001000100010001000100010016
:1002E0000100010001000100010001000100010006
:1002F00001000100010001000000000001000100F8
:100300000100010044454255473A20646973616227
:100310006C65642E0A0044454255473A20656E617B
:10032000626C65642E0A000A0025303862003A20AB
:100330000025303258000A722F63203031323334B6
:100340003536370A007267626C6967687420616EBF
:10035000696D6174696F6E207469636B207265707A
:100360006F727420746F20736C6176650A00726717
:10037000626C696768742074696D65722064697362
:1003800061626C652E0A007267626C69676874202E
:1003900074696D657220656E61626C65642E0A0019
:1003A0007267626C6967687420736574206873761D
:1003B000205B4E4F454550524F4D5D3A2025752CE0
:1003C00025752C25750A007267626C696768742050
:1003D00073657420687376205B454550524F4D5DC0
:1003E0003A2025752C25752C25750A007267626CDC
:1003F00069676874207261696E626F7720736574D3
:10040000206873763A2025642C25642C25642C25DD
:10041000750A007267626C69676874206469736149
:10042000626C65205B4E4F454550524F4D5D3A2002
:100430007267626C696768745F636F6E6669672E66
:10044000656E61626C65203D2025750A00726762E9
:100450006C696768742064697361626C65205B45D0
:100460004550524F4D5D3A207267626C69676874FF
:100470005F636F6E6669672E656E61626C65203DB5
:100480002025750A007267626C6967687420656E62
:1004900061626C65205B454550524F4D5D3A20725C
:1004A00067626C696768745F636F6E6669672E6503
:1004B0006E61626C65203D2025750A007267626C72
:1004C0006967687420746F67676C65205B45455089
:1004D000524F4D5D3A207267626C696768745F6362
:1004E0006F6E6669672E656E61626C65203D2025C2
:1004F000750A007267626C69676874206D6F646565
:10050000205B4E4F454550524F4D5D3A2025750AB0
:10051000007267626C69676874206D6F6465205B48
:10052000454550524F4D5D3A2025750A007267626D
:100530006C696768745F696E6974207267626C6960
:100540006768745F636F6E6669672E6D6F646520A0
:100550003D20302E20577269746520646566617590
:100560006C742076616C75657320746F20454550FE
:10057000524F4D2E0A007267626C696768745F693A
:100580006E6974206565636F6E66696720697320A4
:100590006E6F7420656E61626C65642E0A0072670E
:1005A000626C696768745F696E69742073746172E4
:1005B00074210A007267626C696768745F696E69AA
:1005C000742063616C6C65642E0A007267626C69EA
:1005D0006768745F636F6E6669672E7370656564C4
:1005E000203D2025640A007267626C696768745F49
:1005F000636F6E6669672E76616C203D2025640A04
:10060000007267626C696768745F636F6E666967C2
:100610002E736174203D2025640A007267626C6944
:100620006768745F636F6E6669672E687565203DE5
:100630002025640A007267686C696768745F636F7D
:100640006E6669672E6D6F6465203D2025640A0023
:100650007267626C696768745F636F6E6669672E44
:10066000656E61626C65203D2025640A00726762D8
:100670006C696768745F636F6E6669672045455093
:10068000524F4D3A0A0000047F3F1F643214643217
:1006900014783C1E1E140A052223252628292A2CFC
:1006A0002D2F3032333536383A3B3D3E40424345BC
:1006B00047494A4C4E5051535557595A5C5E6062F7
:1006C000646668696B6D6F71737577797B7D7F8107
:1006D000838587898A8C8E90929496989A9C9E9F07
:1006E000A1A3A5A7A8AAACAEAFB1B3B4B6B8B9BB25
:1006F000BCBEBFC1C2C3C5C6C7C9CACBCCCDCED094
:10070000D1D2D2D3D4D5D6D7D7D8D9D9DADADBDB80
:10071000DBDCDCDCDCDCDDDDDDDDDCDCDCDCDCDB17
:10072000DBDBDADAD9D9D8D7D7D6D5D4D3D2D2D160
:10073000D0CECDCCCBCAC9C7C6C5C3C2C1BFBEBC53
:10074000BBB9B8B6B4B3B1AFAEACAAA8A7A5A3A1C4
:100750009F9E9C9A98969492908E8C8A8987858386
:10076000817F7D7B79777573716F6D6B6968666466
:1007700062605E5C5A5957555351504E4C4A494736
:10078000454342403E3D3B3A3836353332302F2DDB
:100790002C2A292826252322FFAA7F554000010163
:1007A0000101010101010102020202020202020230
:1007B0000303030303030303040404040404040500
:1007C00005050505060606060607070707070808C4
:1007D0000808090909090A0A0A0B0B0B0C0C0C0D75
:1007E0000D0D0E0E0E0F0F0F10101111111212130E
:1007F000131414151516161717181819191A1A1B89
:100800001B1C1D1D1E1E1F202021222223242425E7
:100810002626272829292A2B2C2D2D2E2F30313220
:1008200032333435363738393A3B3C3D3E3F404130
:1008300042434445464748494A4C4D4E4F50515318
:1008400054555658595A5B5D5E5F616264656668CF
:10085000696B6C6D6F7072737577787A7B7D7E8053
:1008600082838587888A8C8E8F91939596989A9C9F
:100870009EA0A2A3A5A7A9ABADAFB1B3B5B7BABCB3
:10088000BEC0C2C4C6C9CBCDCFD1D4D6D8DBDDDF84
:10089000E2E4E7E9EBEEF0F3F5F8FAFDFF0A0025F4
:1008A00030325820006B6579626F6172645F7265E7
:1008B000706F72743A20000A0025303258006B6560
:1008C00079626F6172645F7365745F6C65643A200E
:1008D00000290A002575002F002575005D280025D8
:1008E00064002000256400200025640020002564A9
:1008F000007C0025303258006D6F7573656B65792B
:10090000205B62746E7C782079207620685D287286
:1009100065702F61636C293A205B005B735D004B4F
:100920006579626F6172642073746172742E0A005B
:100930005B575D005B535D005B525D005B445D0097
:100940005B435D000403300000001C03490072009B
:100950006900730020004B006500790062006F00A1
:1009600061007200640000000E034B00650065002A
:10097000620069006F0000000403090409025B00C3
:10098000030100A0FA09040000010301010009218C
:10099000110100012240000705810308000A090433
:1009A000010001030000000921110100012285005E
:1009B0000705820320000A09040200020300000068
:1009C00009211101000122220007058303200001F3
:1009D00007050303200001120110010000000810A8
:1009E000CB56120004010203010631FF0974A10174
:1009F0000975150026FF00952075088102097615F6
:100A00000026FF00952075089102C005010902A18A
:100A10000185020901A10005091901290515002513
:100A20000195057501810295017503810105010993
:100A30003009311581257F95027508810609381521
:100A400081257F950175088106050C0A38021581FC
:100A5000257F950175088106C0C005010980A101A7
:100A600085031A81002A83001601002603009501E0
:100A700075108100C0050C0901A10185041A01004F
:100A80002A9C02160100269C02950175108100C067
:100A900005010906A101050719E029E7150025014F
:100AA00095087501810295017508810105071900F6
:100AB00029FF150026FF0095067508810005081915
:100AC000012905950575019102950175039101C0F4
:100AD00011241FBECFEFDAE0DEBFCDBF04B603FEA8
:100AE00027C08091BB029091BC02A091BD02B09141
:100AF000BE028730904BA740B04BD1F41092BB029E
:100B00001092BC021092BD021092BE0214BE84B7B5
:100B1000877F84BF0FB6F894A895809160008861A4
:100B200080936000109260000FBEE0E0F8E309954A
:100B300011E0A0E0B1E0EAE1FAE602C005900D9212
:100B4000A039B107D9F722E0A0E9B1E001C01D92B8
:100B5000AB3BB207E1F70E94032F0C940B350C94CA
:100B60000000FF93EF93E0919001F0919101309795
:100B700009F00995EF91FF910895FC01859180306E
:100B800011F0EFDFFBCF0895FF27E0E230E247FFEF
:100B90000CC0419597FF09C0EDE260957095809576
:100BA0009095611D711D811D911D27FF02C021952A
:100BB00030E350E2AA27660F771F881F991FAA1FEC
:100BC000A41710F0A41B63955A95A9F7AA3008F052
:100BD000A95FA05DAF93F39561157105810591053E
:100BE00041F7ED3211F4EF93F395F21718F43F93B8
:100BF000F395FBCF8F91B5DFFA95E1F70895E99171
:100C0000F9918591803021F0853219F0AADFF9CF72
:100C1000089520E0E89455915532C1F3503311F412
:100C2000689455915A3348F4505390F3220F022E92
:100C3000220F220F200D250FF4CF0EF4219589915C
:100C40009991533619F3533729F1533559F1BC01B2
:100C500088279927E8945C3621F4899199916894C2
:100C60005591543639F446EF7EF077FF0DC08FEF83
:100C70009FEF0AC055374AE039F0583540E121F07E
:100C8000523642E009F00895FF93EF937DDFEF9134
:100C9000FF91B7CFFF93EF93FC0181918030B9F3BF
:100CA00060DFFBCFFF93EF9368DFF1CFDF93CF934C
:100CB000CDB7DEB72596A3DFCF91DF9108952091C0
:100CC000380223FF14C0FB012281222381F08533E7
:100CD000934469F08CE291E00E94FD062FEF80E7DB
:100CE00092E0215080409040E1F700C0000081E098
:100CF0000895CF93811126C0C62F6091380270915C
:100D0000390280913A0290913B020E948F278130F4
:100D100019F0823039F00EC0CC2311F089EA0FC0EF
:100D20008AEA0DC0CC2319F0CF910C949210CF9188
:100D30000C949F10CC2311F08AEF01C089EFCF9162
:100D40000C942A1ECF9108959C013A9521153F419C
:100D500038F5DC01AA27B270AC01442754709C011D
:100D60002227387094FF0FC090FF02C080E101C0BD
:100D700080E0AB2B09F08062452B09F08064232BC7
:100D800069F080680BC0892F8170AB2B09F08260FD
:100D9000452B09F08460232B09F08860FB0109943E
:100DA0000895CF93DF93EC01805E9109089710F0CE
:100DB000209719F46DE37EE102C06CEC70E2CE0185
:100DC0000E94A4068C2FDF91CF910C94A41CCF938A
:100DD000DF93EC010E94C21DCE01805E910908974D
:100DE00010F0209719F464E47EE102C063ED70E234
:100DF000CE01DF91CF910C94A406CF93DF93EC0149
:100E00000E94D106CE01DF91CF910C94E70681E0DC
:100E100008950C945F061F93CF93DF9300D000D00A
:100E20001F92CDB7DEB749835A836B832091D701D8
:100E300089819A81211112C0662349F00E945826A7
:100E4000182F682F89819A810E94FF2503C00E9474
:100E50002B26182F69817A81812F04C00E94582681
:100E600069817A810F900F900F900F900F90DF9112
:100E7000CF911F910C94FC07FC014081518162814C
:100E8000738184810C940B070E94F127811102C0A9
:100E90000E9491280E9452160C94FB0A0E94B316DD
:100EA0000C94F70A08950C94520781E008950C946D
:100EB0005507CF93C82F0E9453078C2F0E945707C6
:100EC000CF91089508950E94F4200E9462072FEFA9
:100ED00084E39CE0215080409040E1F700C0000096
:100EE0000C94BB290F931F93CF93DF938C010E9427
:100EF0003C07EC01B8010E940907882309F471C07E
:100F0000B801CE010E94CB17882309F46AC0B8014A
:100F1000CE010E940C18882309F463C0B801CE01E9
:100F20000E94AC15882309F45CC0F80182818823F3
:100F300039F1C1308CE5D80759F0CE3DECE5DE073C
:100F4000E1F0C115FCE5DF07D9F40E94630749C051
:100F500080914D02C82FC095C170C0FB80F980936D
:100F60004D02CC2329F086E193E00E94BD0539C0F3
:100F700084E093E00E94BD0535C00E94912831C0F5
:100F8000C631DC4539F50E94D926982FF8018281B7
:100F90002091330130913401882379F09A7A81E0ED
:100FA00009F480E080939201911102C069E201C0CE
:100FB00065E3C9010E94CB280AC08091920181118A
:100FC00002C069E201C065E3C9010E94CD280E9408
:100FD000272707C0C801DF91CF911F910F910C9473
:100FE0000707C0E08C2FDF91CF911F910F910895DB
:100FF00080E090E0089508952CE3829FC0011124C1
:10100000FC0126E0729FE00DF11D1124E60FF11D99
:10101000EE0FFF1FEC5DFE4F859194910895880FB0
:10102000991FFC01E95DFC4F859194910895CF9340
:10103000DF930E94FC070E94D109EC0181159045C5
:1010400008F041C0C11580E4D80708F028C1C83EA7
:10105000D10510F5C03ED10508F09FC1C83AD105B1
:1010600078F4C53AD10508F0A2C0C130D10509F421
:1010700094C108F445C1C430D10508F08EC140C107
:10108000CF3BD10508F49EC0C03CD10508F438C15F
:10109000CE01805C9109F5C0C11590E2D90758F4E2
:1010A000C11521E0D20708F078C1C03FD10508F48E
:1010B00027C1D06572C1C11580E3D80708F0E5C02B
:1010C000CE019F70DEC0C11595E5D90708F043C079
:1010D000C11524E5D20708F0F9C0C11582E5D8078B
:1010E00008F5C11591E5D90708F0DCC0CE0174E020
:1010F000969587957A95E1F783709C2F937021E000
:1011000030E002C0220F331F9A95E2F73C68382B7B
:10111000CF70C695C69580E2C89FE0011124C22B0E
:10112000D32B3BC19E01237033278C2F8695869548
:10113000C115D34508F0BBC0C1E0D0E002C0CC0F60
:10114000DD1F2A95E2F720E2829FC0011124C82BFF
:10115000D92BDC6822C1C11529E5D207A0F4C1153D
:1011600088E5D80708F0B7C0C11596E5D90708F09B
:10117000C7C08C2F0E94650A8F71C82FD0E0DC2F6A
:10118000CC27D0620AC1C1152AE5D20708F4A8C04D
:10119000CE0190568115904208F0B2C08D2F8F710C
:1011A0000E94650ADD27D0628F71D82BF6C0C53A40
:1011B000D10509F4A8C0C63AD10509F0A7C0C2E814
:1011C000D0E4EBC0C83AD10509F4A3C0C93AD105AF
:1011D00009F4A2C0CA3AD10509F4A1C0CB3AD1059D
:1011E00009F4A0C0CC3AD10509F49FC0CB3BD1058E
:1011F00009F49EC0CC3BD10509F49DC0CD3AD10580
:1012000009F49CC0C03BD10509F49BC0CE3AD1057E
:1012100009F49AC0CF3AD10509F499C0C13BD10570
:1012200009F498C0C23BD10509F497C0C33BD1056E
:1012300009F496C0C43BD10509F495C0C53BD1055E
:1012400009F494C0C63BD10509F493C0C73BD1054E
:1012500009F492C0C83BD10509F491C0C93BD1053E
:1012600009F490C0CD3BD10509F48FC0CE3BD10528
:1012700009F48EC0CA3BD10509F48DC0C0E0D4E4A6
:101280008CC00E940F08EC0188C0CE019927D3FFC3
:1012900003C0EC01D86C81C0EC01D06C7EC0DF7063
:1012A000D06A7BC0DC2FCC27C16FD06A76C0C1E08A
:1012B000D0E002C0CC0FDD1F2A95E2F720E2829F2A
:1012C000C0011124C82BD92BDA6867C0DC2FCC27CA
:1012D000C46FD06A62C0DC2FCC27C06FD06A5DC0FB
:1012E0008C2F8F700E94650A94E0D695C7959A95C9
:1012F000E1F7CF70D0E0DC2FCC27D069C82B4DC0F0
:10130000C0E0D0E04AC0C1E8D0E447C0C3E8D0E4C0
:1013100044C0C2EED4E441C0C9EED4E43EC0CAEE3B
:10132000D4E43BC0C5EBD4E438C0C6EBD4E435C04C
:10133000C3EBD4E432C0C4EBD4E42FC0C7EBD4E495
:101340002CC0CCECD4E429C0CDECD4E426C0C3E856
:10135000D5E423C0CAE8D5E420C0C2E9D5E41DC065
:10136000C4E9D5E41AC0C1E2D6E417C0C3E2D6E4AA
:1013700014C0C4E2D6E411C0C5E2D6E40EC0C6E291
:10138000D6E40BC0C7E2D6E408C0CFE6D4E405C07B
:10139000C0E7D4E402C0CAE2D6E4CE01DF91CF9127
:1013A00008958238910569F1B0F48133910509F40B
:1013B0006DC048F48932910509F463C08A32910501
:1013C00009F469C008958533910509F455C089333E
:1013D0009105B9F00895833E910569F138F4803E96
:1013E0009105B1F0823E910509F10895863E91057F
:1013F000A9F1873E9105B9F1843E910509F064C0D9
:1014000023C02091AC0220FD4FC021FD4DC00895A6
:101410008091AC0280FD44C08091AD0280FF44C049
:101420008091AC0284FD42C083EE4DC08091AC023D
:1014300082FF38C0F5CF8091AC0282FD33C080912D
:10144000AD0280FD31C0ECCF8091AD0281FF32C092
:101450008091AC0284FD2AC087EE35C08091AC0239
:1014600083FF26C0F5CF8091AC0283FD21C080911F
:10147000AD0281FD1FC0ECCF8091AC0285FD1CC088
:101480001DC08091AC0285FD19C016C08091AC02D0
:1014900086FD16C017C08091AC0286FD13C010C037
:1014A00089E311C082EE0FC080EE0DC080E00BC05A
:1014B00086EE09C084EE07C089E205C085E303C05B
:1014C0008AE201C081E390E008959091AC0292FF1E
:1014D0000DC0282F2871283019F4877F846006C03A
:1014E000282F2471243011F48B7F886093FF0DC066
:1014F000282F2871283119F4877E846106C0282F8F
:101500002471243111F48B7E88612091AD0220FF7B
:101510000DC0382F3871383019F4877F816006C0CC
:10152000382F3171313011F48E7F886021FF0DC06A
:10153000282F2871283119F4877E816106C0282F51
:101540002171213111F48E7E886194FD877E08958A
:10155000E82FF0E0EF58FD4F80810895CF92DF92A1
:10156000EF92FF920F931F93CF93DF9386E393E065
:101570000E94BD0581E7E82E82E0F82EC0E0D0E0B1
:1015800091E3C92E93E0D92E09E213E0DF93CF93C4
:10159000DF92CF920E9456068EE293E00E94BD0534
:1015A000F70181917F010E94DF271F928F931F9384
:1015B0000F930E94560687E293E00E94BD05219694
:1015C0008DB79EB708960FB6F8949EBF0FBE8DBF1D
:1015D000CA30D105D9F6DF91CF911F910F91FF90BD
:1015E000EF90DF90CF90089508950C94F40A0C9436
:1015F000F50A0C94F40A0C94F90A08950F931F93BA
:10160000CF93DF93CDB7DEB760970FB6F894DEBF08
:101610000FBECDBF0E94D70C8091100181112DC04B
:10162000FE0131968AE0DF011D928A95E9F781E398
:10163000898382E38A8382E98B8381EF8C8384EFC1
:101640008D83A6E0B1E0CE010B9621912D938E17EC
:101650009F07D9F726E0E6E4F1E0DE011B96019052
:101660000D922A95E1F7FC01A0E0B1E0CE01419690
:1016700021912D938E179F07D9F780911001811129
:1016800002C095E001C090E090937C0285E0891B48
:1016900080937B02A6E0B1E04BE051E061E070E0B6
:1016A0008D91E82FE295EF70F0E021A18F708B0112
:1016B00002C0000F111F8A95E2F7C801902F909584
:1016C000922391A392A1892B82A34A175B0741F72A
:1016D000A0E0B1E046E051E061E070E08D91E82FDC
:1016E000E295EF70F0E021A18F708B0102C0000F36
:1016F000111F8A95E2F7C801902F9095922391A32C
:1017000092A1892B82A34A175B0741F7E7E6F2E033
:10171000A1E7B2E081E792E011921D928E179F0738
:10172000D9F785E00E947C0C60960FB6F894DEBF76
:101730000FBECDBFDF91CF911F910F910C94440745
:101740000E94BA0C882309F180917B0290E08F58A7
:101750009D4F0E94150D811114C0809193018F5FE0
:1017600080939301863078F0E0917B02F0E0EF58AF
:10177000FD4F80E090E01192019685309105D9F7F8
:1017800002C0109293010C944E0780917C0290E06D
:101790008F589D4F0E94380D0E94B3160C94FD0A7D
:1017A000BF92CF92DF92EF92FF920F931F93CF934E
:1017B000DF93A6E0B1E0E7E6F2E06CE672E0C12C70
:1017C00081E090E08F01D08010824C91242F2295EF
:1017D0002F7030E0E901F9A04F70EC0102C0CC0F8E
:1017E000DD1F4A95E2F7AE014F29E90149A34C916B
:1017F000242F22952F7030E0E9015AA14F707C010F
:1018000001C0EE0C4A95EAF74E2D409545234AA3B8
:10181000D0EADA95F1F720E0E22E21E0F22E40E066
:1018200050E0E701B9907E012B2D22952F7030E01A
:10183000E90128A130E0DB2DDF7002C03595279546
:10184000DA95E2F720FD07C09C01042E01C0220FAB
:101850000A94EAF702C020E030E03081232B208395
:101860004F5F5F4F46305105E1F64C91242F229592
:101870002F7030E0E90159A14F707C0101C0EE0CDE
:101880004A95EAF74E2D4095452349A34D91242FC3
:1018900022952F7030E0E901FAA04F70EC0102C0F0
:1018A000CC0FDD1F4A95E2F7AE014F29E9014AA3AB
:1018B000319621E0E80138813D1101C020E0C22AC3
:1018C0006E177F0709F07ECF60917C0270E06F5841
:1018D0007D4F2C2D45E087E692E00E947D0C0E9412
:1018E000A00B8C2DDF91CF911F910F91FF90EF9066
:1018F000DF90CF90BF9008950895FF920F931F93AC
:10190000CF93DF938C01F62ED72FC42F222349F0DB
:1019100081E0809396010E945F29909395018093C6
:101920009401809196018823C1F080919401909157
:1019300095010E946B29069780F0EF2DFD2FD801AD
:101940004C2F50E0CD01801B910B841795071CF4A0
:101950008D918193F7CF10929601DF91CF911F91D6
:101960000F91FF90089555985D9889B185FB882760
:1019700080F9089580919701811112C08091D8005B
:1019800080618093D8008AE18A95F1F700C0809148
:10199000D90080FD02C082E001C081E08093970100
:1019A00081E090919701913009F080E008950E94C4
:1019B000B30C809310018091100166E0882311F030
:1019C00080E001C086E00E94DD0D0E94BA0C81110A
:1019D0000C94EC0C0C94F20C62E070E081E191E06C
:1019E0000C94951962E070E081E191E00C949E19ED
:1019F0000E94B712882361F080EA91E00E94BD1234
:101A000081E090E00E94771A892B11F40C94BA12AD
:101A1000089580919F01883039F460E080EA91E078
:101A20000E948C1410929F010895CF93DF93D82FBA
:101A3000C92F0E94F80C80E090E00E94771A892B51
:101A400099F4ED2FFC2F80E090E0DC01A756BE4F0B
:101A50002C912193019685309105B9F78EE991E09B
:101A60000E94241781E001C080E0DF91CF910895AA
:101A7000CF93DF93D82FC92F0E94090DED2FFC2F94
:101A800080E090E02191DC01A756BE4F2C93019697
:101A900085309105B9F78EE991E0DF91CF910C94F3
:101AA0001B17EF92FF920F931F93CF93DF93F62EA6
:101AB000472FE82FF0E0711106C0E356F84F64910C
:101AC000762F862F72C0272F30E0E356F84FE4912F
:101AD0000E2F10E056E0659FC0011124CFEFD0E03B
:101AE000BE010E9488345BEA5603C001579F900DE7
:101AF00011248F0D911D8F0D911D982F990F890F16
:101B00007E01E21AF30AE09ED001E19EB00DF09E44
:101B1000B00D1124489FA0011124452F55277E01A7
:101B2000E41AF50AE09EA001E19E500DF09E500DD2
:101B300011247E01E81AF108E29EC001E39E900D97
:101B4000F29E900D1124892F9927C81BD90BC09F95
:101B5000C001C19F900DD09F900D1124623071057E
:101B600091F048F461157105E1F061307105A9F457
:101B70008B2F752F19C06430710561F038F0663015
:101B8000710579F00AC0892F7B2F0EC08E2F7B2F15
:101B9000E52F0AC08E2F792F02C0852F7E2FEB2FC5
:101BA00003C08B2F7E2FE92F6E2FDF91CF911F91D6
:101BB0000F91FF90EF90089508958093AF01609387
:101BC00025010895CF93DF93762FE901682F842FA5
:101BD0000E94510D798368838A83DF91CF910895A4
:101BE00080917D02282F269530E02115310519F4CA
:101BF0008170826005C02532310524F081708864CF
:101C000080937D02089588E090E00C94CB34CF92CD
:101C1000DF92EF92FF926B017C010E94F00DB70101
:101C2000A60188E090E0FF90EF90DF90CF900C94B9
:101C3000E934EDE7F2E083E0808311828FEF828365
:101C400083831482A7EBB1E012968C911297836084
:101C500012968C9360817181828193810C94070E1E
:101C600080914D0280FF08C08DE696E09F938F9390
:101C70000E9456060F900F9080914D0280FF0FC07A
:101C800080917D0281701F928F9380E596E09F93F3
:101C90008F930E9456060F900F900F900F90809197
:101CA0004D0280FF0FC080917D0286951F928F9319
:101CB00085E396E09F938F930E9456060F900F90B6
:101CC0000F900F9080914D0280FF0EC080917E0298
:101CD0001F928F938BE196E09F938F930E945606FD
:101CE0000F900F900F900F9080914D0280FF0EC0CB
:101CF00080917F021F928F9381E096E09F938F9354
:101D00000E9456060F900F900F900F9080914D02F9
:101D100080FF0EC0809180021F928F9387EE95E026
:101D20009F938F930E9456060F900F900F900F90E5
:101D300080914D0280FF0EC0809181021F928F938F
:101D40008BEC95E09F938F930E9456060F900F9017
:101D50000F900F90089580917D0280FF02C08695BC
:101D6000089580E0089580918102833018F48F5F98
:101D70008093810260917D0270917E0280917F024A
:101D8000909180020C94070E80918102882319F0B3
:101D900081508093810260917D0270917E028091DA
:101DA0007F02909180020C94070E6091250170E0F3
:101DB00080917D0280FF0AC08091AF0123E0829F65
:101DC000C00111248E579D4F0C944D168091AE0189
:101DD00090912401891780F7E82FF0E09F01220FEE
:101DE000331FE20FF31FEE57FD4F11821082128254
:101DF0008F5FF0CF90917D0290FF16C09091AE0161
:101E000020912401921770F4E92FF0E0DF01AA0F6E
:101E1000BB1FEA0FFB1FEE57FD4F81836083428398
:101E20009F5FF0CF0C94D50E0895CF93DF9300D031
:101E30001F92CDB7DEB790917D0290FF0AC09E0140
:101E40002F5F3F4F0E94E20D4B8169818A810E9482
:101E5000FA0E0F900F900F90DF91CF910895CF93CE
:101E6000DF93EC01EC81F0E0E856F94F4491EDE7A7
:101E7000F2E0628181810E94150F8C818F5F8C83DB
:101E8000DF91CF910895CF93DF93EC01EDE7F2E07E
:101E9000438162818C810E94150F8C818F5F8C83BE
:101EA000DF91CF9108950F931F93CF93DF9300D0CD
:101EB0001F92CDB7DEB78C018091A80181110AC0B5
:101EC0009E012F5F3F4F4FEF6FEF0E94E20D8A811F
:101ED0008093A801F8018481813051F028F082308C
:101EE00061F44091A8010AC08091A80140E007C0B8
:101EF0006091A80140E080E003C040E080E060E045
:101F00000E94FA0EF801848190E0019663E070E08F
:101F10000E949C3484830F900F900F90DF91CF919B
:101F20001F910F9108954F925F926F927F928F92BF
:101F30009F92AF92BF92CF92DF92EF92FF920F9358
:101F40001F93CF93DF9300D01F92CDB7DEB7F82E4B
:101F5000D62EE42E622E90917D0290FFC5C0E92F0F
:101F6000E695AE2FB0E0A45BBE4F8C918093B70195
:101F70009E7F923061F49E012F5F3F4F8F2D0E9414
:101F8000E20D4B8169818A810E94FA0E62C0823023
:101F900019F4E09080025DC0863019F4F0907E0262
:101FA00058C08930D9F3893109F053C0E9518E2FD7
:101FB0008170782E81E0C72CC826E695F0E0E856BF
:101FC000F84FA590B490412CBB249CEE892E93E051
:101FD000992E609123014616D0F5042D10E00A9D3C
:101FE000C0010B9D900D1A9D900D112470E00E9470
:101FF00088345F2C711002C0560E01C0561A8091B1
:102000004D0280FF11C0BF92AF921F92CF921F92DC
:102010005F921F924F929F928F920E9456060FB628
:10202000F894DEBF0FBECDBF8091AE01080F111D29
:102030009801220F331F020F131F98012E573D4F97
:102040004E2D6D2D852D0E94E20D4394C2CF0E942E
:10205000D50E80917E02F81208C080917F02D812BE
:1020600004C080918002E81629F08091B901826055
:102070008093B901F0927E02D0927F02E0928002BA
:102080006620E9F060917D0270917E0280917F026E
:10209000909180020E94070E80914D0280FF24C023
:1020A000809180021F928F9380917F021F928F9365
:1020B00080917E021F928F9387EC93E00CC08091F9
:1020C0004D0280FF11C01F92EF921F92DF921F926C
:1020D000FF9280EA93E09F938F930E9456060FB67B
:1020E000F894DEBF0FBECDBF0F900F900F90DF9121
:1020F000CF911F910F91FF90EF90DF90CF90BF9005
:10210000AF909F908F907F906F905F904F900895C9
:10211000EDE7F2E09181282F4381628188E0890F09
:102120000C94930F81E00C948810EDE7F2E091811C
:10213000282F4381628188EF890F0C94930F81E0EF
:102140000C949510EDE7F2E0628128E0620F08F44C
:102150006FEF282F438181810C94930F81E00C94C1
:10216000A210EDE7F2E0628128E0621B08F460E073
:10217000282F438181810C94930F81E00C94B1103E
:10218000EDE7F2E0438128E0420F08F44FEF282FFB
:10219000628181810C94930F81E00C94C010EDE773
:1021A000F2E0438128E0421B08F440E0282F6281DE
:1021B00081810C94930F81E00C94CF1020E00C945B
:1021C000930FFF920F931F93CF93DF93EC01F12CAA
:1021D0000FEF10E060912301F616F0F48091AE014C
:1021E0002F2D30E0280F311DC901880F991F280FAE
:1021F000391F2E573D4F70E0C8010E949C34962F26
:102200008C814091800260917F02F99E800D1124A3
:102210000E94E20DF394DECF0E94D50E9A818C814C
:1022200090FF02C08F5F01C081508C83DF91CF91FE
:102230001F910F91FF9008958F929F92AF92BF923E
:10224000CF92DF92EF92FF920F931F93CF93DF9382
:10225000EC018A8180FF03C0BB24BA9402C0BB2476
:10226000B3948C8181110DC081E0B81206C08091B9
:10227000230181508093AA0102C01092AA0181E03B
:102280008C83A12C4CE0942E80912301A81608F099
:1022900044C08091AE01CA2CD12C8601080F111DBB
:1022A000C801880F991F080F191F0E571D4FF801FD
:1022B00011821082128234E0E32EF12C812C809165
:1022C000AA01880D8D302CF0692D0E947A34892F57
:1022D00005C087FF03C090912301890F082E000CD1
:1022E000990BC816D90691F4809180028E9DA001A9
:1022F0008F9D500D112455954795559547959801FB
:1023000060917F0280917E020E94E20D8B0CF1E0D1
:10231000EF1AF108A1F6A394B7CF0E94D50E8091D1
:10232000AA0191E0B9120EC0811107C0809123016A
:1023300081508093AA011C820FC081508093AA0112
:10234000BC820AC090E001966091230170E00E9477
:102350009C348093AA018C83DF91CF911F910F91C0
:10236000FF90EF90DF90CF90BF90AF909F908F90B5
:1023700008951F93CF93DF93EC018C81811109C0E5
:1023800081E08C831092A90192E0909322018093C6
:1023900021018091AE0190912401891770F4E82FFA
:1023A000F0E09F01220F331FE20FF31FEE57FD4FA6
:1023B0001182108212828F5FF0CF10E060912301B2
:1023C0001617C0F5E12FF0E070E0CF010E949C34B9
:1023D0002091AE01820F2091A901022E000C330B37
:1023E00090E0E217F307CCF020912201022E000CBE
:1023F000330B2E173F078CF09C01220F331F820FE7
:10240000931F9C012E573D4F4091800260917F02A7
:1024100080917E020E94E20D0BC0FC01EE0FFF1FB7
:102420008E0F9F1FFC01EE57FD4F1182108212820A
:102430001F5FC4CF0E94D50E809121012091A90178
:10244000280F2093A90190912201980F90932201C7
:1024500019165CF4022E000C330B4091230150E05E
:10246000415051092417350734F08195809321019B
:10247000813009F41C82DF91CF911F9108950F9351
:102480001F93CF93DF938C01FC018481958101968A
:102490008170992795838483C0E0D5E580912301DD
:1024A000C81700F58091AE012C2F30E0280F311DA8
:1024B000C901880F991F280F391F2E573D4F4C2FE8
:1024C0004695F80184819581840F911D817040911A
:1024D000800260917F028D9F802D11240E94E20D69
:1024E000CF5FDCCFDF91CF911F910F910C94D50E70
:1024F0000F931F93CF93DF93EC0100E010E08091E6
:102500002301282F30E00217130724F59091AE0124
:102510009801290F311DA901440F551F240F351FA4
:102520002E573D4F869590E04C81081719071CF4F3
:10253000442331F002C0411103C04091800201C028
:1025400040E060917F0280917E020E94E20D0F5F69
:102550001F4FD5CF0E94D50E8C8190E001968170DF
:1025600099278C83DF91CF911F910F9108958091CE
:10257000B90108951092B901089525E0EDE7F2E060
:10258000DC0101900D922A95E1F72091B70130917D
:10259000B8014091B901FC01258336834783089532
:1025A000E7EBF1E01182828184608283089560917B
:1025B0007D02669570E04BE050E086E291E00E947B
:1025C000B634892B19F481E08093B8010E945F2909
:1025D0009093B1018093B0018091B90184608093A0
:1025E000B90180914D0280FF08C087E893E09F9376
:1025F0008F930E9456060F900F9008951092B80185
:102600008091B90184608093B90180914D0280FF6F
:1026100008C08EE693E09F938F930E9456060F901A
:102620000F90089590917D0290FF59C09170811193
:1026300002C0926006C0853210F0986402C0880F14
:10264000982B90937D028091B90181608093B901AC
:102650006623B1F060917D0270917E0280917F02CD
:10266000909180020E94070E80914D0280FF1BC056
:1026700080917D0286951F928F9381E195E00BC03A
:1026800080914D0280FF0FC080917D0286951F9240
:102690008F9383EF94E09F938F930E9456060F9041
:1026A0000F900F900F9060917D02669570E04BE067
:1026B00050E086E291E00E94B634892B19F00E9426
:1026C000FE1202C00E94D71281E08093B3014091B4
:1026D000800260917F0280917E020C94DE1008954A
:1026E000682F90917D02969581E0890F853208F0E0
:1026F00081E00C94121381E00C947013682F909178
:102700007D0296958FEF890F09F484E20C941213E1
:1027100081E00C947E1361E00C94121380917D0291
:10272000816080937D0280914D0280FF0DC01F92D9
:1027300081E08F9385E894E09F938F930E945606E3
:102740000F900F900F900F9080917D0286950C94C2
:102750008B1360E00C9412138091B601811165C057
:1027600080914D0280FF08C084EB95E09F938F938A
:102770000E9456060F900F9080914D0280FF08C076
:102780008EE995E09F938F930E9456060F900F90CD
:102790000E94F127811110C080914D0280FF08C076
:1027A00086E795E09F938F930E9456060F900F90B7
:1027B0000E9491280E94190E0E94030E60937D02D0
:1027C00070937E0280937F02909380028091B90182
:1027D00083608093B9016E7FC1F480914D0280FFC8
:1027E00008C08DE295E09F938F930E9456060F904C
:1027F0000F900E94190E0E94030E60937D02709349
:102800007E0280937F02909380020E94F00D0E94CE
:10281000300E0E94D01280917D0280FF03C0869509
:102820000E94A91381E08093B601089580917D02F2
:102830008E7F80937D0260917D0270917E028091F7
:102840007F02909180020E94070E80914D0280FFCE
:102850000FC080917D0281701F928F938DE494E070
:102860009F938F930E9456060F900F900F900F909A
:102870000E94FE128091B90181608093B9012FEF0F
:1028800080E792E0215080409040E1F700C00000D6
:102890000C94D50E80914D0280FF10C080917D0276
:1028A000809581701F928F938CEB94E09F938F9310
:1028B0000E9456060F900F900F900F9080917D020E
:1028C00080FD0C9416140C948E1380917D028E7FE3
:1028D00080937D0280914D0280FF0CC01F921F9259
:1028E00083E194E09F938F930E9456060F900F9080
:1028F0000F900F900E94FE128091B9018160809329
:10290000B9012FEF80E792E0215080409040E1F73D
:1029100000C000000C94D50E1F93CF93DF93EC0101
:10292000162F8F8180FF0FC0888180FF0AC08091A1
:102930007D02816080937D02888186950E941213BA
:1029400002C00E9465148F8181FF06C0212F4B8138
:102950006A8189810E94930F8F8182FF08C08E81D6
:10296000882319F00E94D71202C00E94FE128F81A4
:1029700083FF03C081E08093B301DF91CF911F916A
:102980000895EF92FF920F931F93CF93DF9380915F
:10299000B801882309F4BEC08091B701E0917D029F
:1029A000E695E81BE093B201823049F4F0E0EC5682
:1029B000F94FE491CE2FD0E00FE21FE049C08630FE
:1029C00049F4F0E0EF56F94FE491CE2FD0E003E464
:1029D0001FE03EC0893051F4E695F0E0E257F94F30
:1029E000E491CE2FD0E001EE10E132C08F3051F4EF
:1029F000E695F0E0E557F94FE491CE2FD0E00CE1F9
:102A000011E126C0853149F4F0E0E857F94FE4912F
:102A1000CE2FD0E009EB11E11BC0883181F0833269
:102A200039F4E6E8F6E0C591D49103E51FE010C063
:102A3000843251F4C4EFD1E008E712E109C0C8EED6
:102A4000D3E00FE312E104C0C0EDD7E00CED1DE0D0
:102A50008091B301882389F01092B3010E945F290D
:102A60009E0120953095820F931F9093B101809322
:102A7000B0011092B5011092B4018091B001909113
:102A8000B1010E946B298C179D0708F443C0809107
:102A9000AD01882311F11092AD018091AB019091AD
:102AA000AC010E946B2980339547B8F00E945F29E2
:102AB0009093AC018093AB0180914D0280FF08C0E0
:102AC00085E493E09F938F930E9456060F900F909A
:102AD0008091B90188608093B901E090B401F090D1
:102AE000B501E091B001F091B101CE0FDF1FD0939D
:102AF000B101C093B00180EB91E0F801099580919C
:102B0000B4019091B501892B29F4EF2819F081E0E7
:102B10008093AD01DF91CF911F910F91FF90EF90C6
:102B20000895882311F0FA0101C0FB010994CF93A5
:102B3000DF93C82FD62F0E94AB0E8C1740F00E9457
:102B4000AB0E8D1720F4DF91CF910C947B138C2F5B
:102B5000DF91CF910C948B131F93CF93DF93FB01E5
:102B60001281111163C0EC010E94D9268272FE010C
:102B7000E25CFC45E431F10508F057C0EA5AFF4F2A
:102B80000C94B0340E944A1451C048E853E16BE7FA
:102B900073E104C04BE753E168E873E10E949115CB
:102BA00045C04FE950E162E970E1F8CF42E950E1F8
:102BB0006FE970E1F3CF4DEB50E16EEA70E1EECFDB
:102BC0004EEA50E16DEB70E1E9CF4BED50E16CEC7A
:102BD00070E1E4CF4CEC50E16BED70E1DFCF44EC01
:102BE0005EE063EB7EE0DACF43EB5EE064EC7EE038
:102BF000D5CF81E017C065E082E010C068E086E0D4
:102C00000DC06EE089E00AC064E18FE007C067E1B3
:102C100085E104C088E106C062E289E10E9497155F
:102C200005C083E20E948B1301C011E0812FDF9168
:102C3000CF911F9108952BB1342F309523233BB1B1
:102C4000432B3FB7F894FC01680F791FE617F7078D
:102C500089F0819198E04BB9000000C087FF2BB943
:102C6000880F000000C000C000C02BB900C09A95BA
:102C700091F7ECCF3FBF08952AB1242B2AB99B01CD
:102C8000220F331F620F731F0E941B1687EC90E008
:102C90000197F1F700C00000089540E40C943C1641
:102CA0000C94790680911001882309F447C0209183
:102CB0003201A22FA295AF70B0E091963C9191970E
:102CC0002F7081E090E0AC01022E01C0440F0A9405
:102CD000EAF7542F5095352391963C93919792960D
:102CE0003C919297432B92964C939297409131014D
:102CF000E42FE295EF70F0E031A14F70042E01C097
:102D0000880F0A94EAF7982F9095932391A392A1A4
:102D1000892B82A390968C9190E002C0959587951F
:102D20002A95E2F7817020A130E002C03595279501
:102D30004A95E2F720FD09C090E008C087EF809334
:102D4000320186EF80933101B2CF92E0892B8093DC
:102D5000BF019091100181E098279093BB01891BDE
:102D60008093BA010895CF93E091BF015E2F550F74
:102D7000550F20913201E22FE295EF70F0E080A133
:102D800090E02F7002C0959587952A95E2F78170A3
:102D9000992740913101E42FE295EF70F0E020A1F6
:102DA00030E04F7002C0359527954A95E2F7F9015A
:102DB000E170FF2720FF02C0E2E0F0E0E82BF92BF2
:102DC000E52BE093BF01C091BB01EF70F0E0EF583D
:102DD000FE4F90818091BE01890F8093BE018430A7
:102DE0006CF0EC2F0C2E000CFF0BE454FE4F808196
:102DF0008F5F808360E08C2F0E9450168091BE010F
:102E00008D3F6CF4EC2F0C2E000CFF0BE454FE4FA6
:102E100080818150808361E08C2F0E9450168091C8
:102E2000BE01837887FF03C081508C6F8F5F8093D2
:102E3000BE01CF910895E091BB01F0E0E454FE4F54
:102E40002081FC0120830895FF920F931F93CF935D
:102E5000DF93D091BA010D2F10E004541E4FFC01F6
:102E6000C081F8018081C81BFC2E1F1454F4FA9411
:102E7000F80180818F5F808360E08D2F0E94501663
:102E8000F4CF8C2FC7FD80E0C81BCC2351F0CF5F5F
:102E9000F80180818150808361E08D2F0E9450165F
:102EA000F4CFDF91CF911F910F91FF9008950F9371
:102EB0001F93CF93DF93C62FD42F122FFC01828153
:102EC0008823C9F06093C2010E945F299093C101D9
:102ED0008093C00180E28C0F883008F057C0C77023
:102EE00081E001C0880FCA95EAF7DF91CF911F9169
:102EF0000F910C943D1E8091C201681330C08091E7
:102F0000C0019091C1010E946B29883C910538F560
:102F100000E20D0FCD17B9F080E28C0F883040F43D
:102F2000C77081E001C0880FCA95EAF70E94441E6D
:102F3000083028F581E09D2F977001C0880F9A9581
:102F4000EAF70E943D1E812F0E942A1E0830F0F4ED
:102F5000D77081E001C0880FDA95EAF70AC080E2F5
:102F60008C0F883098F4C77081E001C0880FCA9533
:102F7000EAF7DF91CF911F910F910C94441E812F9E
:102F8000DF91CF911F910F910C942A1EDF91CF9169
:102F90001F910F9108959C01CB01233F4CE534070D
:102FA000F9F078F4283DFCE53F07B9F0293D4CE500
:102FB000340711F1273D3C4531F526E241EE61EE43
:102FC0001EC0253FFCE53F0799F070F0263F3C45C9
:102FD000D1F427E245EE66EE12C027E245EE0EC0C0
:102FE00026E241EE60EE0BC027E245EE64EE07C03C
:102FF00026E241EE62EE03C028E241E065EE0E9467
:10300000571780E00895FC018281882319F01092FF
:10301000C201089581E00895CF93DF93EC01FB0195
:103020008281882309F41FC1C230FCE5DF0708F460
:103030001BC1C6319CE5D90738F09E012A5F3C458B
:103040002930310508F010C10E9404289093AD0288
:103050008093AC02C031ECE5DE0709F4C3C008F090
:1030600041C0C8308CE5D80709F49AC0F0F4C430E8
:10307000ECE5DE0709F487C068F4C2308CE5D807B8
:1030800009F477C0C330DC4509F0E3C08091AC029D
:10309000826076C0C630ECE5DE0709F46EC008F049
:1030A0007BC08091AC0288606BC0CC308CE5D807C7
:1030B00009F485C068F4CA30ECE5DE0709F474C091
:1030C00008F079C00E94F4208091AC02806858C05A
:1030D000CE308CE5D80709F476C008F07FC0809127
:1030E000AC028BC0CB3FECE5DE0709F44FC018F50E
:1030F000C3318CE5D80709F47DC078F4C131ECE523
:10310000DE0709F473C0C231DC4509F0A2C00E9499
:10311000F4208091AC028F7733C0C5318CE5D8079D
:1031200009F472C008F486C0CA3FDC4509F091C0BA
:103130008091AD023EC0CF3FFCE5DF0709F45FC0E0
:1031400058F4CD3F9CE5D90709F444C008F43FC0CA
:103150008091AD0282602DC0C130FDE5DF0709F42A
:1031600075C008F45DC0C230DD4509F072C080E072
:103170006EC08091AC02816003C08091AC0280611E
:103180008093AC0266C08091AC0211C08091AD0208
:1031900082608093AD025DC08091AC028062F0CF0E
:1031A0008091AC028064ECCF8091AC028860846036
:1031B000E7CF8160EECF8091AC028E7FE1CF80912E
:1031C000AC028D7FDDCF8091AC02877FD9CF80911B
:1031D000AD0218C08091AD028D7FDBCF8091AC0233
:1031E0008F7ECECF8091AC028F7DCACF8091AC0212
:1031F0008F7BC6CF8091AC02877F8B7FC1CF8091C0
:10320000AD028D7F8E7FC5CF8091AC0282FB2227DD
:1032100020F991E0922790FB82F990FB83F9B0CFDF
:103220008091AD02982F909591708E7F892B90FBA5
:1032300081F9AFCF0E94F4208091AC0287FB222756
:1032400020F991E0922790FB87F99ACF81E00E94C4
:1032500093288091AC029091AD020E9415280E94A3
:10326000F42080E001C081E0DF91CF9108958EE1EC
:10327000489B02C08150E1F7489BFECF08955898C3
:1032800080E28A95F1F7589A0895FC012AE02A9580
:10329000F1F790E020E080E031E0261779F040E19E
:1032A0004A95F1F7880F489B02C08160932700C0C0
:1032B000000040E14A95F1F72F5FEFCF20E12A951A
:1032C000F1F729B100C0000030E13A95F1F7217023
:1032D00092272081920F90830895EF92FF920F938F
:1032E0001F93CF93DF931F92CDB7DEB719828C0166
:1032F0007C01E60EF11C0E151F0559F00E943719CE
:1033000068E0CE0101960E944519F80181938F0172
:10331000F2CF81E09981911180E00F90DF91CF9100
:103320001F910F91FF90EF9008959093C5018093A6
:10333000C4016093C301509A589A08959093C501AF
:103340008093C4016093C3015098589AE89AE9E6C3
:10335000F0E080818C7F80830895615091E001C00E
:10336000990F6A95EAF720E031E0992361F0492F3F
:10337000482319F0589A232701C0589840E24A95EB
:10338000F1F79695F2CF222311F0589A01C0589880
:1033900080E28A95F1F758980895FF920F931F9352
:1033A000CF93DF93EC018C01060F111DC017D107DD
:1033B00041F0F9900E943F1968E08F2D0E94AD19ED
:1033C000F5CFDF91CF911F910F91FF9008951F923C
:1033D0000F920FB60F9211240F931F932F933F93C9
:1033E0004F935F936F937F938F939F93AF93BF930D
:1033F000EF93FF93CF93DF931F92CDB7DEB7198280
:103400000E94371967E0CE0101960E944519382FB6
:10341000369536953695932F96959570232F257072
:10342000920F292F2370969596958770920F891386
:1034300048C08981811145C08091C301831708F478
:1034400040C080E18A95F1F7589A509AA2E0AA9577
:10345000F1F700C00091C4011091C501B8E03B9F95
:10346000000D111D11245898F8016581662321F083
:10347000868197810E94CD190E943F19F0E1FA954B
:10348000F1F758985098589A80E18A95F1F7D80149
:1034900012966C911297662369F013968D919C9108
:1034A00014970E946D19D801ED91FC91811105C00E
:1034B00082E004C0D801ED91FC9188E080830E94F5
:1034C00037190F90DF91CF91FF91EF91BF91AF919D
:1034D0009F918F917F916F915F914F913F912F912C
:1034E0001F910F910F900FBE0F901F9018950F9383
:1034F0001F93CF93DF932091C30130E02817390742
:103500000CF471C09C0193E0220F331F9A95E1F7F0
:10351000C091C401D091C501C20FD31FF894509A35
:10352000589845E04A95F1F70000982F96959570C8
:103530008570890F982F937086958695890F8901DC
:10354000082B0E943F1984E08A95F1F700C067E0DC
:10355000802F0E94AD1940E14A95F1F75098589A92
:10356000489902C000C0FCCF87E090E0489B0EC0A5
:10357000019751F4509A589AE881F98181E080834B
:10358000789481E090E031C000C0F0CF6D81662377
:1035900081F08E819F810E946D1981110AC0509A1D
:1035A000589AE881F98182E08083789482E090E003
:1035B0001CC00E94371980E28A95F1F75898509AFA
:1035C00040E14A95F1F76A81662321F08B819C8165
:1035D0000E94CD190E943F19E881F98110827894E8
:1035E00080E090E002C084E090E0DF91CF911F91F5
:1035F0000F9108959093CB018093CA010895E091B3
:10360000CA01F091CB01309721F00190F081E02DBB
:10361000099480E00895EF92FF920F931F93CF9348
:10362000DF93E091CA01F091CB013097B1F18C01A9
:103630000280F381E02D099580914D0282FF2DC01B
:1036400080FF04C085EA98E00E94BD05E80118E00B
:103650008FE9E82E88E0F82E80914D0280FF0BC0A4
:1036600088811F928F93FF92EF920E9456060F90CF
:103670000F900F900F90115021961111EDCF809166
:103680004D0280FF0AC08DE998E0DF91CF911F9134
:103690000F91FF90EF900C94BD05DF91CF911F919A
:1036A0000F91FF90EF900895E091CA01F091CB0146
:1036B000309739F022E0DC012C930480F581E02D75
:1036C000099408952091C8013091C901281739073C
:1036D00071F09093C9018093C801E091CA01F09103
:1036E000CB01309721F00680F781E02D09940895F1
:1036F0002091C6013091C7012817390771F09093C6
:10370000C7018093C601E091CA01F091CB013097C7
:1037100021F00084F185E02D0994089585B7806833
:1037200085BF85B7806885BF089508950C94951B63
:103730000C94961B0C94951B0C94951B0E948E1B4D
:103740000E949A1B0C94981B0E9456290E94FE0A04
:103750000E94DF290E94AC130C949C1BCF93C82FAE
:1037600080914D0282FF1EC080FF04C08EEB98E066
:103770000E94BD0580914D0280FF0CC01F92CF9327
:1037800089EB98E09F938F930E9456060F900F90BD
:103790000F900F9080914D0280FF04C087EB98E05E
:1037A0000E94BD058C2FCF910C945907AF92BF9208
:1037B000CF92DF92EF92FF920F931F93CF93DF93FD
:1037C000CDB7DEB72A970FB6F894DEBF0FBECDBFD8
:1037D0000E94D00B0E94BA0C811111C08FEF898317
:1037E0008A831B820E945F298160782F9D838C834E
:1037F00049815A816B818D810E94701C40C08DEC83
:10380000A82E81E0B82E00E010E0C02E802F0E948C
:10381000A80AE82EF501D1905F01D82631F40F5F98
:103820001F4F0A30110589F7D9CF80914D0281FDD4
:103830000E94AE0A80E0FF24F3949D2D9F21D1F0D9
:103840008E83CF82EF2081E009F480E088870E9498
:103850005F298160782F9A8789874E815F8168858B
:103860008A850E94701CF801E353FE4F8081F82680
:10387000F08205C08F5FFF0C8630F9F6D0CF0E9432
:10388000C1140E94F32B0E94FF1A9091CC0189175A
:10389000B1F00E94FF1A8093CC012A960FB6F894DB
:1038A000DEBF0FBECDBFDF91CF911F910F91FF9073
:1038B000EF90DF90CF90BF90AF900C94AE1B2A9604
:1038C0000FB6F894DEBF0FBECDBFDF91CF911F9131
:1038D0000F91FF90EF90DF90CF90BF90AF90089541
:1038E000CF93DF93CDB7DEB72B970FB6F894DEBF3B
:1038F0000FBECDBF4F83588769877A878B87DE01DC
:10390000119686E0FD0111928A95E9F785E0FE01A6
:10391000379601900D928A95E1F749815A816B8122
:103920007C818D819E810E94C4232B960FB6F894D2
:10393000DEBF0FBECDBFDF91CF910895FC01808126
:1039400091810E949A260895882309F41AC1823829
:10395000C1F40E94FF1A81FD14C169E38091330113
:10396000909134010E94CB280E9427272FEF81EEEF
:1039700094E0215080409040E1F700C0000069E3EE
:1039800019C08338F9F40E94FF1A80FDFAC063E57C
:1039900080913301909134010E94CB280E94272707
:1039A0002FEF81EE94E0215080409040E1F700C07D
:1039B000000063E580913301909134010E94CD288D
:1039C0000C9427278438C1F40E94FF1A82FDD9C0C5
:1039D00067E480913301909134010E94CB280E94CA
:1039E00027272FEF81EE94E0215080409040E1F7AF
:1039F00000C0000067E4DECF9CEF980F913A40F4DE
:103A0000682F80913301909134010E94CB28D8CF48
:103A100090E2980F983050F4877091E001C0990FB0
:103A20008A95EAF7892F0E94DC26CACF9BE5980F7A
:103A3000933070F4853A29F0863A31F083E890E0CB
:103A400005C081E890E002C082E890E00C94621B1F
:103A500098E5980F973108F08EC0883A09F445C070
:103A6000893A09F445C08A3A09F445C08B3A09F409
:103A700045C08C3A09F445C08B3B09F445C08C3BEA
:103A800009F445C08D3A09F445C0803B09F445C0AE
:103A90008E3A09F445C08F3A09F445C0813B09F4D8
:103AA00045C0823B09F445C0833B09F445C0843BD3
:103AB00009F445C0853B09F445C0863B09F445C07F
:103AC000873B09F445C0883B09F445C0893B09F4AC
:103AD00045C08D3B09F445C08E3B09F445C08A3B87
:103AE00009F445C080E090E044C082EE90E041C01F
:103AF00089EE90E03EC08AEE90E03BC085EB90E01E
:103B000038C086EB90E035C083EB90E032C084EBA8
:103B100090E02FC087EB90E02CC08CEC90E029C0A7
:103B20008DEC90E026C083E891E023C08AE891E024
:103B300020C082E991E01DC084E991E01AC081E2D1
:103B400092E017C083E292E014C084E292E011C0D8
:103B500085E292E00EC086E292E00BC087E292E03E
:103B600008C08FE690E005C080E790E002C08AE2DE
:103B700092E00C94781B803F20F00E94792A0C94EC
:103B8000662B0895882309F464C0823879F40E9472
:103B9000FF1A81FF5EC069E3809133019091340187
:103BA0000E94CB280E94272769E310C08338B1F414
:103BB0000E94FF1A80FF4DC063E580913301909110
:103BC00034010E94CB280E94272763E580913301AE
:103BD000909134010E94CD280C942727843879F4E1
:103BE0000E94FF1A82FF35C067E4809133019091F3
:103BF00034010E94CB280E94272767E4E7CF9CEF7F
:103C0000980F913A10F4682FE1CF90E2980F983016
:103C100050F4877091E001C0990F8A95EAF7892FD7
:103C20000E94E226D9CF9BE5980F933020F480E0E4
:103C300090E00C94621B98E5980F973120F480E097
:103C400090E00C94781B803F20F00E94E12A0C94B5
:103C5000662B0895CF93C82F0E94A41CC93349F442
:103C60002FEF87EE93E0215080409040E1F700C0B5
:103C700000008C2FCF910C94C21D882321F00E944C
:103C8000DC260C9427270895882321F00E94E22641
:103C90000C9427270895CF92DF92EF92FF920F9313
:103CA0001F93CF93DF937C01062FC72FFC01158153
:103CB00012951F70D281D1110E94F9260E94D2263E
:103CC000882379F0DD2369F080E2800F883048F0A6
:103CD00082E00E9471270E94D22691E0D82ED92638
:103CE00001C0D12CCC2EC2948FE0C8228C2D90E044
:103CF000FC01E659FF4F0C94B0348C2F807FCF70BD
:103D0000882311F0C295C07FDD2399F0CC2309F4FC
:103D1000C4C180E2800F883010F0011104C08C2FE4
:103D20000E94DC2603C08C2F0E94EC260E942727CD
:103D3000B4C1802F0E94C21DCC2309F4D3C180E2FC
:103D4000800F883010F0011104C08C2F0E94E226F1
:103D500003C08C2F0E94F2260E942727C3C18C2FFC
:103D6000807FCF70803211F0C295C07F002319F0A0
:103D70000130C9F022C0DD2371F0112341F0113070
:103D800031F40E940C278C2B0E941427ABC10E9497
:103D90000C278C2B1DC0112319F0113009F4A2C17E
:103DA0000E941D2725C0DD2321F0163008F09AC19E
:103DB0000EC0153008F096C11BC0DD2361F0112341
:103DC00031F0F701858180FF68C18F7085838C2F6A
:103DD0000E943D1E87C1112359F0093309F06EC1BD
:103DE000FFEF27EE83E0F15020408040E1F764C10F
:103DF0008C2F0E94441E76C18C2F869586958370E9
:103E000019F0813061F06EC1DD2321F0802F9C2FED
:103E1000937002C080E090E00E94621B6BC1DD23C2
:103E200021F0802F9C2F937002C080E090E00E94D0
:103E3000781B60C1DD23F9F0053F51F0063F71F0BA
:103E4000043FA9F48091A6029091A70281600BC063
:103E50008091A6029091A702826005C08091A6027F
:103E60009091A70284609093A7028093A602802F6E
:103E70000E94792A1EC0053F51F0063F71F0043FB1
:103E8000A9F48091A6029091A7028E7F0BC0809129
:103E9000A6029091A7028D7F05C08091A602909105
:103EA000A7028B7F9093A7028093A602802F0E9487
:103EB000E12A0E94662B1EC18C2F837009F045C039
:103EC000D11114C1402F429546954770440F440FBD
:103ED000602F6F70862F90E0A0E0B0E0042E04C049
:103EE000880F991FAA1FBB1F0A94D2F704FF10C0A6
:103EF0000FE010E020E030E004C0000F111F221F8F
:103F0000331F4A95D2F7009510952095309503C040
:103F100000E010E09801C695C695C370BC01CD01C4
:103F2000602B712B822B932BC23049F058F4C13097
:103F300019F00E941525DAC00E940325D7C00E94FF
:103F40002725D4C00E940125D1C0DD2319F08C2F74
:103F5000817001C08695882309F4C8C0402F42951E
:103F600046954770440F440F602F6F70862F90E086
:103F7000A0E0B0E0042E04C0880F991FAA1FBB1F49
:103F80000A94D2F704FF10C00FE010E020E030E008
:103F900004C0000F111F221F331F4A95D2F700954E
:103FA00010952095309503C000E010E09801C6956B
:103FB000C695C370BC01CD01602B712B822B932B56
:103FC000C23049F058F4C13019F00E94DA258EC091
:103FD0000E94C8258BC00E94EC2588C00E943B250A
:103FE00085C0CF70DD2339F08C2F0E946125802F92
:103FF0000E943D1E7BC0802F0E94441E8C2F0E9479
:10400000822574C0023F01F128F4003F41F0013FD6
:10401000A1F03FC0033FF9F0043F39F13AC0DD237E
:1040200041F0153008F05EC08C2F8F710E94A725DB
:1040300059C0163008F056C0F7CFDD2339F08C2F69
:104040008F710E9461254EC0DD23C9F38C2F8F71C3
:104050000E94822547C0DD2329F08C2F8F710E949A
:104060004C2540C00E9447253DC0DD2349F0CF715B
:104070008C2F0E94612563E08C2F0E945C2732C048
:1040800081E00E947127123068F182E00E9471275E
:1040900029C0DD2331F0112391F2802F0E94A41C4E
:1040A00021C0112399F2093349F49FEFE7EEF3E0C1
:1040B0009150E040F040E1F700C00000802F0E94E6
:1040C000C21D10C04C2F4F70602FC7010E94F8070F
:1040D0000E9472240FC04C2F4F70602FC7010E94A6
:1040E000FB0708C088EF8C0D843020F40E94FF1A73
:1040F0000E945907DD20C9F00E94CE2680FD15C020
:10410000F70112820E94C8260E946125C7010E9401
:104110009E200E94C826DF91CF911F910F91FF90A2
:10412000EF90DF90CF900C948225DF91CF911F917B
:104130000F91FF90EF90DF90CF9008950F931F9312
:10414000CF93DF93EC01988189812B813C81232BD4
:1041500031F08F3F31F481E09F3F19F403C081E0DB
:1041600001C080E080FD13C0CE010E947207882349
:1041700071F0688179818A810E94A5268C010E9454
:10418000FE250E94EF24B801CE010E944B1EDF9154
:10419000CF911F910F910895882321F00E94EC2662
:1041A0000C9427270895882321F00E94F2260C946E
:1041B000272708950E94F9260E9409270E94272791
:1041C0000E948E2C0E94662B80E090E00E94621B71
:1041D00080E090E00C94781B809133019091340141
:1041E0000E94CF280C94DA200E94E9260C94EC203F
:1041F000E92FE295EF704E2F50E0FA013297EE3042
:10420000F105B0F4E658FF4F0C94B034803F91F0C4
:1042100018F4883E68F40EC0843F51F40BC0883E09
:1042200048F0813F29F406C093FB882780F9089560
:1042300080E0089581E008950E949A260E94F82067
:104240000895CF93DF9300D000D01F92CDB7DEB793
:104250000F900F900F900F900F90DF91CF910895D6
:10426000CF93DF9300D000D000D0CDB7DEB7269635
:104270000FB6F894DEBF0FBECDBFDF91CF9108958A
:104280001F93CF93DF93C091D80116E08091D9019D
:10429000C81799F0D0E01C9FF0011D9FF00D11246C
:1042A000E652FE4F40815181628173818481958104
:1042B0000E9430212196C770E9CFDF91CF911F91E5
:1042C000089540910A0250910B0260910C02709186
:1042D0000D0280910E0290910F020C943021CF9329
:1042E00080910F0282958F7009F05FC080910C025F
:1042F000882309F45AC08091D801B091D9017091F6
:104300000A02A0910B0240910D0250910E0291E021
:104310007F3F09F090E0692FC6E08B1709F445C094
:104320004115510521F0AF3F21F020E003C021E00D
:1043300001C0262F90E020FD35C0C89FF001C99F25
:10434000F00D1124E652FE4F21812A132BC020814B
:10435000271328C02281211125C0238134812417ED
:10436000350710F421503109241B350B283C310549
:10437000C8F420910F022F70206120930F0226E0D5
:10438000289FF001299FF00D1124E152FE4F8081FA
:104390008F70806180838AE092E00E949E20CF919E
:1043A0000C94402101968770B8CFCF910895AF92B9
:1043B000BF92CF92DF92EF92FF920F931F93CF9312
:1043C000DF93CDB7DEB761970FB6F894DEBF0FBEAF
:1043D000CDBF8C0185E0F801DE011D9601900D92A4
:1043E0008A95E1F7D8014C9111965C91119712963C
:1043F000EC9030910A0260910B0280910D02909135
:104400000E02009731F06F3F31F421E03F3F19F485
:1044100003C021E001C020E0B22FB170BB2E20FD0F
:1044200060C1F801C380D480A0900C02AA2009F4D6
:10443000EEC020910F02C816D90628F0D601A81B9D
:10444000B90BCD0104C0809590958C0D9D1DFF2466
:10445000F394883C910580F0F12C207F09F09CC0FA
:104460007C2DD98AC88A6E2D89890E9421218AE0F3
:1044700092E00E949E202DC1822F807F09F054C0BF
:10448000561314C0431312C0FE2CE1100FC02F703E
:10449000206120930F020E9461218AE092E00E9435
:1044A0009E2080910F02F80185835CC1CD2831F0F8
:1044B0005F3F31F481E04F3F19F403C081E001C058
:1044C00080E080FD03C081E08E2502C080E090E0A6
:1044D000F82FF170FF2E80FF1CC08091D801209131
:1044E000D90136E0821709F41AC190E0389FF00133
:1044F000399FF00D1124E652FE4F6181561306C01C
:104500006081461303C06281E61203C00196877082
:10451000E9CFFE2CEE2009F425C180910F028160C5
:1045200080930F02F12C1EC1561309C0431307C01C
:10453000E11005C080910F02F8018583A4C04D876A
:104540005E878D859E850E941C21882379F1EE204F
:1045500069F120910F02822F82958F7090E002976F
:1045600074F080910A0290910B0298878F831986CC
:10457000DB86CA862C87CE0107960E949E2086E0A5
:10458000F801AAE0B2E001900D928A95E1F70E944D
:104590006F210E9461210DC0561771F04D875E8713
:1045A0008D859E850E941C2181111AC0C8010E9420
:1045B0009E20FF24F394D6C04313F0CFE110EECF3A
:1045C00080910F02F8018583C8010E949E2086E039
:1045D000EAE0F2E0DF011D928A95E9F7FA2CC2C009
:1045E000EE2021F320910F02822F82958F7090E0B0
:1045F00002972CF280910A0290910B029A83898390
:104600001B82DD82CC822E83CE010196B6CFC816E6
:10461000D90628F0F601E81BF90BCF0104C08095FC
:1046200090958C0D9D1D883C910548F0F12C7C2DBA
:10463000D98AC88A6E2D89890E9421214AC0FE2C00
:10464000EE2009F4B3CF561333C0431331C0209189
:104650000F0220FD24C0822F82958F70482F50E0DA
:1046600041155105E1F0D80115962C9315974F305F
:10467000510549F08F5F982F9295907F822F8F7010
:10468000892B15968C93C8010E949E2086E0F80124
:10469000AAE0B2E001900D928A95E1F73DC086E074
:1046A000F801AAE0B2E001900D928A95E1F75AC0B4
:1046B0004D875E878D859E850E941C2181115FCF6D
:1046C00080910F02816080930F02C8010E949E209A
:1046D00049C0EAE0F2E086E0DF011D928A95E9F741
:1046E0001BC0EE2009F462CF4D875E878D859E85C5
:1046F0000E941C21F82E882309F458CF86E0F80187
:10470000AAE0B2E001900D928A95E1F78AE092E08A
:104710000E949E1C0E946F210E94612123C04D8730
:104720005E878D859E850E949A26292F22952F705F
:10473000223028F49F7039F0811105C00BC024305D
:1047400028F49F7049F4805E883020F0C8010E94F0
:104750009E20BF2CFB2C06C0D80115969C91907F03
:1047600091F7F8CF8F2D61960FB6F894DEBF0FBE8C
:10477000CDBFDF91CF911F910F91FF90EF90DF9010
:10478000CF90BF90AF9008951F93CF93DF93CDB795
:10479000DEB72C970FB6F894DEBF0FBECDBF4F83A8
:1047A000588769877A878B879C87CE0107960E94F6
:1047B000D7218823D1F09F8188852A853B85232BAB
:1047C00031F08F3F31F481E09F3F19F403C081E065
:1047D00001C080E080FD47C04F81588569857A859A
:1047E0008B859C850E9430213EC086E0FE01379675
:1047F000DE01119601900D928A95E1F7FF81E8851F
:104800006A857B856115710531F0EF3F31F481E0F8
:10481000FF3F19F403C081E001C080E080FD23C0A8
:104820002091D90130E0C901019687709927409104
:10483000D80150E084179507F1F1F983EA837D836D
:104840006C8396E0929FD001939FB00D1124A652E5
:10485000BE4FFE01319601900D929A95E1F780933B
:10486000D9010E94402116E08091D8019091D90190
:10487000891771F1189FC001112486529E4F0E9422
:10488000D721882329F1E091D8011E9FF00111243E
:10489000E652FE4F4081518162817381848195810E
:1048A0000E9430218091D80190E00196877099276D
:1048B0008093D801D9CF0E94F4201092D901109290
:1048C000D801EAE0F2E086E0DF011D928A95E9F77F
:1048D0002C960FB6F894DEBF0FBECDBFDF91CF91FF
:1048E0001F910895EF92FF920F931F93CF93DF9341
:1048F0008C01892B09F46CC0F12CEE24E394E801BF
:104900002196F8018491843740F4843008F051C036
:10491000813081F0823019F15BC0853709F444C0E1
:10492000A8F19CE7980F903708F052C08F770E944B
:10493000C21D41C00E5F1F4FFE01849190E2980F8F
:10494000983050F48770FE2D01C0FF0F8A95EAF76A
:104950008F2F0E94FC2614C00E94A41C2DC00E5F45
:104960001F4FFE01849190E2980F983060F4877099
:10497000FE2D01C0FF0F8A95EAF78F2F0E940227B4
:104980000E94272719C00E94C21D16C00E5F1F4F2C
:10499000FE01C491CC2381F08FE99FE00197F1F7EC
:1049A00000C00000C150F6CF0E5F1F4FFE01F49013
:1049B00003C00E94A41C8E018F2D882309F49FCF71
:1049C000EFE9FFE03197F1F700C000008150F5CF2B
:1049D000DF91CF911F910F91FF90EF90089508956F
:1049E00008950C94F0240C94F1240E94F324609315
:1049F0003C0270933D0280933E0290933F020C94E0
:104A0000DA200C94F5240F931F9300913C0210912F
:104A10003D0220913E0230913F02602B712B822B90
:104A2000932B1F910F910C94F5240F931F930091DA
:104A30003C0210913D0220913E0230913F026023E2
:104A40007123822393231F910F910C94F5240F93CC
:104A50001F9300913C0210913D0220913E02309143
:104A60003F0260277127822793271F910F910C9493
:104A7000F5240C94F0240E94392560933802709339
:104A8000390280933A0290933B020C94DA2060E062
:104A900070E0CB010C943B250F931F9341E050E055
:104AA00060E070E08A019B0104C0000F111F221F0B
:104AB000331F8A95D2F7C901B8011F910F910C9449
:104AC0003B250F931F9341E050E060E070E004C08D
:104AD000440F551F661F771F8A95D2F780913802C1
:104AE00090913902A0913A02B0913B028A019B0158
:104AF000082B192B2A2B3B2BC901B8011F910F91B1
:104B00000C943B250F931F9341E050E060E070E070
:104B100004C0440F551F661F771F8A95D2F7409532
:104B20005095609570958091380290913902A091CE
:104B30003A02B0913B028A019B01082319232A23E0
:104B40003B23C901B8011F910F910C943B250F9392
:104B50001F9341E050E060E070E004C0440F551F37
:104B6000661F771F8A95D2F780913802909139029B
:104B7000A0913A02B0913B028A019B0108271927B4
:104B80002A273B27C901B8011F910F910C943B259F
:104B90000F931F93009138021091390220913A022D
:104BA00030913B02602B712B822B932B1F910F9125
:104BB0000C943B250F931F930091380210913902FA
:104BC00020913A0230913B02602371238223932388
:104BD0001F910F910C943B250F931F930091380266
:104BE0001091390220913A0230913B0260277127DF
:104BF000822793271F910F910C943B250895292F0D
:104C0000220F920F990F890FE82FE695E695E6950A
:104C1000877051E001C0550F8A95EAF785E0E89F5B
:104C2000F0011124E05FFD4F20E030E070E04081B2
:104C3000CB01022E02C0969587950A94E2F7817007
:104C4000819584278523842781932F5F3F4F2530CB
:104C5000310569F70895292F220F920F990F890FB7
:104C6000682F669566956695982F977085E0689F82
:104C7000B001112440E050E080E0FB01E40FF51F9B
:104C8000E05FFD4F208130E0092E02C03695279568
:104C90000A94E2F721703327042E01C0220F0A94F0
:104CA000EAF7822B4F5F5F4F4530510531F708958A
:104CB000BF92CF92DF92EF92FF920F931F93CF9309
:104CC000DF938C01C0903802D0903902E0903A0214
:104CD000F0903B0280913C0290913D02A0913E02F7
:104CE000B0913F02C82AD92AEA2AFB2ACFE1D0E0B4
:104CF000D701C6010C2E04C0B695A7959795879548
:104D00000A94D2F780FD04C0219790F7B12C07C018
:104D1000BC2EB8018C2F0E9417080197A9F38B2D88
:104D2000DF91CF911F910F91FF90EF90DF90CF9087
:104D3000BF900895CF93DF93EC010E945826BE01E7
:104D40000E941708DF91CF9108951F93CF93DF93AF
:104D5000EB019091D701992321F0CB010E949A2673
:104D600013C0882349F0CB010E945826182F682FC2
:104D7000CE010E94FF2504C0CB010E942B26182FD4
:104D8000BE01812F0E941708DF91CF911F910895D6
:104D90008091400285958595859508958091400282
:104DA0008770089590914002977081E009F480E047
:104DB000089580914C02089590914C02892B809324
:104DC0004C020895809590914C02892380934C0267
:104DD000089510924C02089590914B02892B809374
:104DE0004B020895809590914B02892380934B024A
:104DF000089510924B02089590914A02892B809356
:104E00004A020895809590914A02892380934A022C
:104E1000089510924A0208958091410208950895DC
:104E20000C940F270C94102790914102981721F0B1
:104E3000809341020C9412270895809141028823A7
:104E400029F01092410280E00C9412270895E0911D
:104E50003301F091340180914C028083E091330161
:104E6000F0913401908180914B02892B8083E091F5
:104E70003301F0913401908180914A02892B808323
:104E800080914102882381F0E0913301F091340157
:104E90009081892B808380913301909134010E940D
:104EA000982881110E941D2780913301909134012F
:104EB0000C940B1B0C940F2798E0899F90011124F0
:104EC000262B209340020E94612580914002859507
:104ED000859585950C945A271092400280E00C9499
:104EE0005A27209140028095822380934002982F78
:104EF000977079F430E0482F082E000C550B2417DA
:104F0000350739F08595859585950E9482250C9405
:104F10006C27089590939101809390010895CF920A
:104F2000DF92EF92FF926C01EE24FF24C114D104B2
:104F3000E104F10421F0C701B60120E101C020E045
:104F4000C72ED82EE92EFF24C114D104E104F104A8
:104F500019F0285FC701B6016B017C0154E0F6949B
:104F6000E794D794C7945A95D1F7C114D104E104BA
:104F7000F10419F02C5FC701B6016B017C0142E01E
:104F8000F694E794D794C7944A95D1F7C114D10405
:104F9000E104F10419F02E5FC701B601DC01CB0179
:104FA000B695A79597958795892B8A2B8B2B09F01A
:104FB0002F5F822FFF90EF90DF90CF900895829522
:104FC000982F937344E0949F900111248C7C8695D4
:104FD0008695282B822F8575880F2A7A2695822B15
:104FE000089580E090E00E94D13421E08C3E9E4FF5
:104FF00009F020E0822F089582E090E00C94C33401
:1050000083E090E00C94C334CF9384E090E00E945E
:10501000C334C82F81E290E00E94C3342C2F30E0CB
:10502000A901582BCA01CF910895CF93C92F682F9A
:1050300084E090E00E94D7346C2F81E290E0CF9121
:105040000C94D734AB01BC018FE090E00C94E934B0
:10505000AB01BC0183E190E00C94E93460E070E0C6
:10506000CB010C94282860E070E0CB010E9422283C
:105070000C942E286CEE7EEF80E090E00E94F534D8
:1050800060E082E090E00E94D73460E083E090E04E
:105090000E94D73410923C0210923D0210923E02C0
:1050A00010923F0260E084E090E00E94D73460E01C
:1050B00081E290E00E94D73460E085E090E00E94B9
:1050C000D73460E086E090E00E94D7346FEF87E04D
:1050D00090E00E94D73440E050E0BA0188E090E0D0
:1050E0000E94E93460E08DE090E00E94D73440E017
:1050F00050E0BA0188E190E00E94E93460E087E185
:1051000090E00E94D73440E050E0BA018CE190E09A
:105110000E94E93460E080E290E00E94D7340C9471
:1051200033280C943A28682F8EE090E00C94D73402
:10513000FC01329697E080E0915029F021912223E2
:10514000D9F38F5FF9CF08959C01FC0132969FEF50
:1051500080E04191461789F09F3F19F4411101C049
:10516000982F8F5F8630A9F79F3F39F0F901E90F3B
:10517000F11D97FDFA956283089508959C012A5FB9
:105180003F4FFC014281461301C0128201968217F3
:105190009307B9F708950C94A4280C94BE2802969E
:1051A00026E0FC0111922A95E9F7089508950C94E0
:1051B000D6280C94D628CF930E94D9280E94D00BD1
:1051C0000E94D728C0E08C2F0E94A80A811104C039
:1051D000CF5FCA30C1F701C081E0CF9108950C9430
:1051E000D6280C94EF280E94F1288091B2028430D6
:1051F00049F110924E0220E488E190E00FB6F89455
:10520000A895809360000FBE2093600080E00E940C
:1052100059070E94F12883B7817F846083BF83B7D9
:10522000816083BF7894889583B78E7F83BF0FB6E4
:10523000F894A89580916000886180936000109236
:1052400060000FBE08950C94D6280E94F4200E949E
:10525000FF1A0E9459070C9423291F920F920FB630
:105260000F9211248F939F93AF93BF9380914E021F
:10527000811113C08091A8029091A902A091AA0265
:10528000B091AB024196A11DB11D8093A8029093ED
:10529000A902A093AA02B093AB02BF91AF919F91D4
:1052A0008F910F900FBE0F901F90189582E084BDD4
:1052B00093E095BD9AEF97BD80936E0008952FB748
:1052C000F8948091A8029091A902A091AA02B091AD
:1052D000AB022FBF0895CF92DF92EF92FF920F9310
:1052E0001F932FB7F8944091A8025091A9026091A2
:1052F000AA027091AB022FBF6A017B01EE24FF244A
:105300008C0120E030E0C016D106E206F30610F46E
:10531000415051099A01281B390BC9011F910F9166
:10532000FF90EF90DF90CF90089578941F920F92A6
:105330000FB60F9211248F939F93AF93BF938091D9
:10534000A8029091A902A091AA02B091AB02019685
:10535000A11DB11D8093A8029093A902A093AA0257
:10536000B093AB02BF91AF919F918F910F900FBE01
:105370000F901F90189581E08093E00080E2809369
:10538000D8001092C9008FE19EE40197F1F700C0A8
:10539000000087E090EBDC018093BB029093BC029D
:1053A000A093BD02B093BE029CE088E10FB6F894D2
:1053B000A895809360000FBE90936000FFCF0E947D
:1053C000F127811102C00E9491280E94FC2780933E
:1053D0004D020E9404289093AD028093AC020E947B
:1053E0000028682F70E080E090E00C940125809107
:1053F000520280FF0BC06091380185E0689FB001C8
:10540000112475956795759567952BC081FF09C027
:105410006091380185E0689FB0011124759567950A
:1054200020C082FF07C06091380185E0689FB0010D
:10543000112417C0909151029923D1F06091370146
:10544000961788F72091380185E0289F9001112454
:10545000929FA001939F500D112470E0CA010E94F9
:105460009C346038710540F46115710519F406C06B
:1054700065E070E0862F08958FE7089581E0089534
:105480008091520280FF08C06091360170E07595EE
:1054900067957595679521C081FF06C060913601BB
:1054A00070E07595679519C082FF04C06091360160
:1054B00070E010C090915102992399F060913501EC
:1054C0009617A0F780913601899FC001112470E0E2
:1054D0000E949C346038710540F46115710519F41F
:1054E00006C061E070E0862F08958FE7089581E09F
:1054F0000895803F21F40E94F729819504C0813FDF
:1055000029F40E94F729809356020895823F21F4DE
:105510000E94F729819504C0833F29F40E94F7294E
:10552000809355020895893F19F40E94402A05C0CE
:105530008A3F31F40E94402A819580935702089552
:105540008B3F21F40E94402A819504C08C3F29F4AE
:105550000E94402A809358020895843F21F480914C
:105560005402816017C0853F21F48091540282600B
:1055700011C0863F21F48091540284600BC0873FA4
:1055800021F480915402886005C0883F31F48091F5
:10559000540280618093540208958D3F21F48091DC
:1055A000520281600BC08E3F21F4809152028260D2
:1055B00005C08F3F29F4809152028460809352028B
:1055C0000895803F39F48091560287FF6CC0109295
:1055D000560269C0813F29F4809156021816BCF327
:1055E00062C090915502823F29F497FF5CC01092EF
:1055F000550259C0833F19F41916CCF354C0893FA2
:1056000041F48091570218160CF04DC010925702C9
:105610004AC08A3F29F48091570287FF44C0F6CFE1
:105620008B3F39F48091580287FF3DC01092580299
:105630003AC08C3F29F4809158021816BCF333C04D
:10564000843F21F4809154028E7F17C0853F21F45E
:10565000809154028D7F11C0863F21F480915402C5
:105660008B7F0BC0873F21F480915402877F05C058
:10567000883F31F4809154028F7E8093540213C08E
:105680008D3F21F4809152028E7F0BC08E3F21F41A
:10569000809152028D7F05C08F3F29F48091520284
:1056A0008B7F809352028091550281110EC08091B0
:1056B000560281110AC080915702811106C0809163
:1056C0005802811102C010925102089580914D023A
:1056D00083FF7EC088EF98E00E94BD058091540250
:1056E0001F928F9383EF98E09F938F930E945606AB
:1056F00081EF98E00E94BD0580915502282F082E69
:10570000000C330B3F938F938EEE98E09F938F9313
:105710000E9456068CEE98E00E94BD0580915602CC
:10572000282F082E000C330B3F938F9389EE98E0BF
:105730009F938F930E94560687EE98E00E94BD05C6
:1057400080915702282F082E000C330B3F938F9324
:1057500084EE98E09F938F930E94560682EE98E025
:105760000E94BD0580915802282F082E000C330B93
:105770003F938F938FED98E09F938F930E945606EF
:105780008CED98E00E94BD05809151021F928F938D
:1057900089ED98E09F938F930E94560687ED98E0DD
:1057A0000E94BD05809152021F928F9384ED98E074
:1057B0009F938F930E94560681ED98E00E94BD054D
:1057C0008DB79EB74C960FB6F8949EBF0FBE8DBF97
:1057D00083E592E00E94541B0E945F29909350023F
:1057E00080934F0208951F93CF93DF9380914F02D0
:1057F000909150020E946B29AC0190915102992323
:1058000021F02091390130E006C020913A018AE070
:10581000289F900111244217530708F47BC0809100
:105820005502C0915602D091570210915802811131
:1058300007C0C1116BC0D11169C0111167C06AC026
:105840009F3F19F09F5F90935102181624F40E9415
:10585000F729809355028091550287FF05C00E9469
:10586000F7298195809355021C1624F40E94F7298C
:10587000809356028091560287FF05C00E94F72947
:10588000819580935602309155023323E1F02091A7
:1058900056022223C1F045EB3403C00111249923A1
:1058A00019F09093550203C081E08093550235EBC7
:1058B0002303C0011124992319F09093560203C0C9
:1058C00081E0809356021D1624F40E94402A8093A2
:1058D00057028091570287FF05C00E94402A819598
:1058E00080935702111624F40E94402A8093580294
:1058F0008091580287FF05C00E94402A81958093BD
:105900005802DF91CF911F910C94662B9F3F09F0B5
:1059100099CFAACFDF91CF911F910895E3E5F2E0EF
:1059200086E0DF011D928A95E9F7109251021092EC
:10593000520208958091640208959FB7F8941092DE
:105940005B029FBF9091B202943009F057C09091D2
:10595000E9009F703091EC00232F217030FD20E88A
:10596000922B23E02093E9002091EB0020FF43C01D
:105970002091EE0027FF3FC020915902222321F001
:105980002091E80025FF37C01092590226E030919F
:10599000E80035FD15C03091B202343061F5309128
:1059A000EB0035FD28C0215021F481E0809359029D
:1059B00022C0EFE9FFE03197F1F700C00000E7CF28
:1059C0008093F1008091E80085FD0AC08091E80095
:1059D00080FFFCCF8091E8008E778093E80006C0BE
:1059E0008FB7F89421E020935B028FBF9F70909354
:1059F000E90080E008959F709093E9008FEF08958B
:105A00000F931F93CF93DF9300D01F92CDB7DEB7D4
:105A10008C010E94B42F823011F0843021F584E093
:105A200089831B830A8382E08093E9008FEF909142
:105A3000E800815095FD06C095ED9A95F1F70000BC
:105A40008111F5CF8091E80085FF0DC040E050E066
:105A500063E070E0CE0101960E94D12F8091E800B2
:105A60008E778093E8000F900F900F90DF91CF9189
:105A70001F910F910895CF93DF9300D01F92CDB760
:105A8000DEB72091B202243031F523E0298380581B
:105A900091099B838A8382E08093E9008FEF909144
:105AA000E800815095FD06C095ED9A95F1F700004C
:105AB0008111F5CF8091E80085FF0DC040E050E0F6
:105AC00063E070E0CE0101960E94D12F8091E80042
:105AD0008E778093E8000F900F900F90DF91CF9119
