:100000000C9468050C949B190C94AF050C94AF05E7
:100010000C94AF050C94AF050C94AF050C94AF0590
:100020000C94AF050C94AF050C949E310C94703277
:100030000C94F0280C94AF050C94AF050C94AF050C
:100040000C94AF050C94AF050C94AF050C94AF0560
:100050000C94AF050C9458290C94AF050C94AF0583
:100060000C94AF050C94AF050C94AF050C94AF0540
:100070000C94AF050C94AF050C94AF050C94AF0530
:100080000C94AF050C94AF050C94AF050C94AF0520
:100090000C94AF050C94AF050C94AF050C94AF0510
:1000A0000C94AF050C94AF050C94AF05C407C707BB
:1000B000CC07D107D607DB07E007E507EA07EF071C
:1000C000F407F907FB07050813081E082908340878
:1000D00036084108401E401E721E721EBF1EDD1EE5
:1000E000352035201F1FB41FC51FC51F25203520F3
:1000F00035202E20C920C920DB20DB20D220DB20A8
:10010000DB20DB20C920C920D720DB20DB20D72043
:10011000DD320433FC330433FC3350337333FC33AC
:10012000CA33D93335431E001F00200021002200AE
:100130002B0014001A000800150017002900040005
:100140001600070009000A00E1001D001B00060060
:1001500019000500000000002D61E3002E74AE00C0
:100160002A00270026002500240023003100130068
:1001700012000C0018001C00340033000F000E00A9
:100180000D000B000251380037003600100011003E
:10019000000000004C7228002C410000010001000A
:1001A000010001000100260201003D043D010100A3
:1001B00001002F000100500901004F09010001005A
:1001C000010001004C01490149022F02000000001A
:1001D000010001000100010049002E002D00010076
:1001E000010027024C002E022D0201000100300008
:1001F0004B004A004F005200510050004E004D008D
:100200000100010001003002000000006500010053
:100210000100010045003A003B003C003D003E006B
:10022000C25C01000100010001000100C35C01008B
:100230000100010001000100C45CAC00AB00B20091
:1002400001000100000000000100010001000100A8
:10025000440043004200410040003F0001004600CE
:1002600001000100010001000100C95CC75CC55C20
:10027000010001000100CA5CC85CC65C010001000D
:100280000000000001000100010001000100010068
:100290000100010001000100010001000100010056
:1002A0000100010001000100010001000100010046
:1002B0000100010001000100010001000000000038
:1002C0000100010001000100010001000100010026
:1002D0000100010001000100010001000100010016
:1002E0000100010001000100010001000100010006
:1002F00001000100010001000000000001000100F8
:100300000100010044454255473A20646973616227
:100310006C65642E0A0044454255473A20656E617B
:10032000626C65642E0A000A0025303862003A20AB
:100330000025303258000A722F63203031323334B6
:100340003536370A007267626C6967687420616EBF
:10035000696D6174696F6E207469636B207265707A
:100360006F727420746F20736C6176650A00726717
:10037000626C696768742074696D65722064697362
:1003800061626C652E0A007267626C69676874202E
:1003900074696D657220656E61626C65642E0A0019
:1003A0007267626C6967687420736574206873761D
:1003B000205B4E4F454550524F4D5D3A2025752CE0
:1003C00025752C25750A007267626C696768742050
:1003D00073657420687376205B454550524F4D5DC0
:1003E0003A2025752C25752C25750A007267626CDC
:1003F00069676874207261696E626F7720736574D3
:10040000206873763A2025642C25642C25642C25DD
:10041000750A007267626C69676874206469736149
:10042000626C65205B4E4F454550524F4D5D3A2002
:100430007267626C696768745F636F6E6669672E66
:10044000656E61626C65203D2025750A00726762E9
:100450006C696768742064697361626C65205B45D0
:100460004550524F4D5D3A207267626C69676874FF
:100470005F636F6E6669672E656E61626C65203DB5
:100480002025750A007267626C6967687420656E62
:1004900061626C65205B454550524F4D5D3A20725C
:1004A00067626C696768745F636F6E6669672E6503
:1004B0006E61626C65203D2025750A007267626C72
:1004C0006967687420746F67676C65205B45455089
:1004D000524F4D5D3A207267626C696768745F6362
:1004E0006F6E6669672E656E61626C65203D2025C2
:1004F000750A007267626C69676874206D6F646565
:10050000205B4E4F454550524F4D5D3A2025750AB0
:10051000007267626C69676874206D6F6465205B48
:10052000454550524F4D5D3A2025750A007267626D
:100530006C696768745F696E6974207267626C6960
:100540006768745F636F6E6669672E6D6F646520A0
:100550003D20302E20577269746520646566617590
:100560006C742076616C75657320746F20454550FE
:10057000524F4D2E0A007267626C696768745F693A
:100580006E6974206565636F6E66696720697320A4
:100590006E6F7420656E61626C65642E0A0072670E
:1005A000626C696768745F696E69742073746172E4
:1005B00074210A007267626C696768745F696E69AA
:1005C000742063616C6C65642E0A007267626C69EA
:1005D0006768745F636F6E6669672E7370656564C4
:1005E000203D2025640A007267626C696768745F49
:1005F000636F6E6669672E76616C203D2025640A04
:10060000007267626C696768745F636F6E666967C2
:100610002E736174203D2025640A007267626C6944
:100620006768745F636F6E6669672E687565203DE5
:100630002025640A007267686C696768745F636F7D
:100640006E6669672E6D6F6465203D2025640A0023
:100650007267626C696768745F636F6E6669672E44
:10066000656E61626C65203D2025640A00726762D8
:100670006C696768745F636F6E6669672045455093
:10068000524F4D3A0A0000047F3F1F643214643217
:1006900014783C1E1E140A052223252628292A2CFC
:1006A0002D2F3032333536383A3B3D3E40424345BC
:1006B00047494A4C4E5051535557595A5C5E6062F7
:1006C000646668696B6D6F71737577797B7D7F8107
:1006D000838587898A8C8E90929496989A9C9E9F07
:1006E000A1A3A5A7A8AAACAEAFB1B3B4B6B8B9BB25
:1006F000BCBEBFC1C2C3C5C6C7C9CACBCCCDCED094
:10070000D1D2D2D3D4D5D6D7D7D8D9D9DADADBDB80
:10071000DBDCDCDCDCDCDDDDDDDDDCDCDCDCDCDB17
:10072000DBDBDADAD9D9D8D7D7D6D5D4D3D2D2D160
:10073000D0CECDCCCBCAC9C7C6C5C3C2C1BFBEBC53
:10074000BBB9B8B6B4B3B1AFAEACAAA8A7A5A3A1C4
:100750009F9E9C9A98969492908E8C8A8987858386
:10076000817F7D7B79777573716F6D6B6968666466
:1007700062605E5C5A5957555351504E4C4A494736
:10078000454342403E3D3B3A3836353332302F2DDB
:100790002C2A292826252322FFAA7F554000010163
:1007A0000101010101010102020202020202020230
:1007B0000303030303030303040404040404040500
:1007C00005050505060606060607070707070808C4
:1007D0000808090909090A0A0A0B0B0B0C0C0C0D75
:1007E0000D0D0E0E0E0F0F0F10101111111212130E
:1007F000131414151516161717181819191A1A1B89
:100800001B1C1D1D1E1E1F202021222223242425E7
:100810002626272829292A2B2C2D2D2E2F30313220
:1008200032333435363738393A3B3C3D3E3F404130
:1008300042434445464748494A4C4D4E4F50515318
:1008400054555658595A5B5D5E5F616264656668CF
:10085000696B6C6D6F7072737577787A7B7D7E8053
:1008600082838587888A8C8E8F91939596989A9C9F
:100870009EA0A2A3A5A7A9ABADAFB1B3B5B7BABCB3
:10088000BEC0C2C4C6C9CBCDCFD1D4D6D8DBDDDF84
:10089000E2E4E7E9EBEEF0F3F5F8FAFDFF0A0025F4
:1008A00030325820006B6579626F6172645F7265E7
:1008B000706F72743A20000A0025303258006B6560
:1008C00079626F6172645F7365745F6C65643A200E
:1008D00000290A002575002F002575005D280025D8
:1008E00064002000256400200025640020002564A9
:1008F000007C0025303258006D6F7573656B65792B
:10090000205B62746E7C782079207620685D287286
:1009100065702F61636C293A205B005B735D004B4F
:100920006579626F6172642073746172742E0A005B
:100930005B575D005B535D005B525D005B445D0097
:100940005B435D000403300000001C03490072009B
:100950006900730020004B006500790062006F00A1
:1009600061007200640000000E034B00650065002A
:10097000620069006F0000000403090409025B00C3
:10098000030100A0FA09040000010301010009218C
:10099000110100012240000705810308000A090433
:1009A000010001030000000921110100012285005E
:1009B0000705820320000A09040200020300000068
:1009C00009211101000122220007058303200001F3
:1009D00007050303200001120110010000000810A8
:1009E000CB56120004010203010631FF0974A10174
:1009F0000975150026FF00952075088102097615F6
:100A00000026FF00952075089102C005010902A18A
:100A10000185020901A10005091901290515002513
:100A20000195057501810295017503810105010993
:100A30003009311581257F95027508810609381521
:100A400081257F950175088106050C0A38021581FC
:100A5000257F950175088106C0C005010980A101A7
:100A600085031A81002A83001601002603009501E0
:100A700075108100C0050C0901A10185041A01004F
:100A80002A9C02160100269C02950175108100C067
:100A900005010906A101050719E029E7150025014F
:100AA00095087501810295017508810105071900F6
:100AB00029FF150026FF0095067508810005081915
:100AC000012905950575019102950175039101C0F4
:100AD00011241FBECFEFDAE0DEBFCDBF04B603FEA8
:100AE00027C08091B5029091B602A091B702B09153
:100AF000B8028730904BA740B04BD1F41092B502AA
:100B00001092B6021092B7021092B80214BE84B7C7
:100B1000877F84BF0FB6F894A895809160008861A4
:100B200080936000109260000FBEE0E0F8E309954A
:100B300011E0A0E0B1E0ECE9F9E602C005900D9209
:100B4000A039B107D9F722E0A0E9B1E001C01D92B8
:100B5000A53BB207E1F70E94C62E0C94CC340C944E
:100B60000000FF93EF93E0919001F0919101309795
:100B700009F00995EF91FF910895FC01859180306E
:100B800011F0EFDFFBCF0895FF27E0E230E247FFEF
:100B90000CC0419597FF09C0EDE260957095809576
:100BA0009095611D711D811D911D27FF02C021952A
:100BB00030E350E2AA27660F771F881F991FAA1FEC
:100BC000A41710F0A41B63955A95A9F7AA3008F052
:100BD000A95FA05DAF93F39561157105810591053E
:100BE00041F7ED3211F4EF93F395F21718F43F93B8
:100BF000F395FBCF8F91B5DFFA95E1F70895E99171
:100C0000F9918591803021F0853219F0AADFF9CF72
:100C1000089520E0E89455915532C1F3503311F412
:100C2000689455915A3348F4505390F3220F022E92
:100C3000220F220F200D250FF4CF0EF4219589915C
:100C40009991533619F3533729F1533559F1BC01B2
:100C500088279927E8945C3621F4899199916894C2
:100C60005591543639F446EF7EF077FF0DC08FEF83
:100C70009FEF0AC055374AE039F0583540E121F07E
:100C8000523642E009F00895FF93EF937DDFEF9134
:100C9000FF91B7CFFF93EF93FC0181918030B9F3BF
:100CA00060DFFBCFFF93EF9368DFF1CFDF93CF934C
:100CB000CDB7DEB72596A3DFCF91DF9108952091C0
:100CC000460223FF11C0FB012281222369F08533F4
:100CD000934451F08CE291E00E94FA068FE39CE984
:100CE0000197F1F700C0000081E00895CF938111D2
:100CF00026C0C62F6091460270914702809148023B
:100D0000909149020E945227813019F0823039F0C7
:100D10000EC0CC2311F089EA0FC08AEA0DC0CC23A3
:100D200019F0CF910C941911CF910C942611CC236A
:100D300011F08AEF01C089EFCF910C94ED1DCF9196
:100D400008959C013A9521153F4138F5DC01AA2709
:100D5000B270AC01442754709C012227387094FF74
:100D60000FC090FF02C080E101C080E0AB2B09F012
:100D70008062452B09F08064232B69F080680BC0EA
:100D8000892F8170AB2B09F08260452B09F08460BC
:100D9000232B09F08860FB0109940895CF93DF931A
:100DA000EC01805E9109089710F0209719F460E03B
:100DB0007EE102C06FE870E2CE010E94A1068C2F96
:100DC000DF91CF910C94671CCF93DF93EC010E94CD
:100DD000851DCE01805E9109089710F0209719F4C7
:100DE00067E07EE102C066E970E2CE01DF91CF915B
:100DF0000C94A106CF93DF93EC010E94CE06CE01A6
:100E0000DF91CF910C94E40681E008950C945F0685
:100E10001F93CF93DF9300D000D01F92CDB7DEB7E2
:100E200049835A836B832091E50189819A8121113D
:100E300012C0662349F00E941B26182F682F898153
:100E40009A810E94C22503C00E94EE25182F698155
:100E50007A81812F04C00E941B2669817A810F90BC
:100E60000F900F900F900F90DF91CF911F910C94E6
:100E70008208FC01408151816281738184810C94DC
:100E800008070E94B427811102C00E9454280E94C2
:100E90007A160C94350B0E94DB160C94310B0895D6
:100EA0000C944F0781E008950C945207CF93C82FFC
:100EB0000E9450078C2F0E945407CF9108950895E7
:100EC0000E94B7200E945F072FEF84E39CE021502F
:100ED00080409040E1F700C000000C947E29EF9222
:100EE000FF920F931F93CF937C010E9439078C01CF
:100EF000B7010E9406078823F9F0B701C8010E94D4
:100F00008D178823C9F0B701C8010E94CE17882326
:100F100099F0F701C281CC2349F101308CE5180723
:100F200069F00E3DECE51E07F1F00115FCE51F0729
:100F300009F0ABC00E946007C0E0D9C080915B029D
:100F4000C82FC095C170C0FB80F980935B02CC2391
:100F500029F086E193E00E94BD05EECF84E093E0A6
:100F60000E94BD05C4C00E945428E6CF0E949C2662
:100F70008272F801E25CFC45E431F10508F085C0BD
:100F8000EA5AFF4F0C9471340E94D114B0C08823E8
:100F900029F00E940F14ABC08823D9F30E940214D9
:100FA000A6C0882329F00E942611A1C08823D9F366
:100FB0000E9419119CC0882329F00E94441197C0F7
:100FC0008823D9F30E94351192C0882329F00E940A
:100FD00062118DC08823D9F30E94531188C08823E1
:100FE00029F00E944B0F83C08823D9F30E943A0F47
:100FF0007EC081E047C00E94320F823020F00E9404
:10100000320F853058F282E03DC00E94320F8630A8
:1010100038F00E94320F883018F40E94021403C086
:1010200086E00E9412140E94320F893028F00E943C
:10103000320F8E3008F4B2CF89E024C00E94320F04
:101040008F3028F00E94320F843108F4A7CF8FE050
:1010500019C00E94320F853128F00E94320F87316B
:1010600008F49CCF85E10EC088E10CC00E94320FCD
:10107000893128F00E94320F823208F48FCF89E143
:1010800001C083E20E94121432C006311C4539F5BA
:101090000E949C26982FF701828120913301309184
:1010A0003401882379F09A7A81E009F480E0809312
:1010B0009201911102C069E201C065E3C9010E9479
:1010C0008E280AC080919201811102C069E201C09C
:1010D00065E3C9010E9490280E94EA262DCFC7012E
:1010E000CF911F910F91FF90EF900C9404078C2FDC
:1010F000CF911F910F91FF90EF90089580E090E0C5
:10110000089508952CE3829FC0011124FC0126E07C
:10111000729FE00DF11D1124E60FF11DEE0FFF1F70
:10112000EC5DFE4F859194910895880F991FFC0105
:10113000E95DFC4F859194910895CF93DF930E94D0
:1011400082080E94570AEC018115904508F041C0C1
:10115000C11580E4D80708F028C1C83ED10510F5B4
:10116000C03ED10508F09FC1C83AD10578F4C53A10
:10117000D10508F0A2C0C130D10509F494C108F42A
:1011800045C1C430D10508F08EC140C1CF3BD10567
:1011900008F49EC0C03CD10508F438C1CE01805C83
:1011A0009109F5C0C11590E2D90758F4C11521E0A5
:1011B000D20708F078C1C03FD10508F427C1D06537
:1011C00072C1C11580E3D80708F0E5C0CE019F7059
:1011D000DEC0C11595E5D90708F043C0C11524E567
:1011E000D20708F0F9C0C11582E5D80708F5C11586
:1011F00091E5D90708F0DCC0CE0174E0969587959B
:101200007A95E1F783709C2F937021E030E002C063
:10121000220F331F9A95E2F73C68382BCF70C695A2
:10122000C69580E2C89FE0011124C22BD32B3BC19D
:101230009E01237033278C2F86958695C115D34543
:1012400008F0BBC0C1E0D0E002C0CC0FDD1F2A9582
:10125000E2F720E2829FC0011124C82BD92BDC6861
:1012600022C1C11529E5D207A0F4C11588E5D80728
:1012700008F0B7C0C11596E5D90708F0C7C08C2F94
:101280000E94EB0A8F71C82FD0E0DC2FCC27D062F0
:101290000AC1C1152AE5D20708F4A8C0CE019056AC
:1012A0008115904208F0B2C08D2F8F710E94EB0A19
:1012B000DD27D0628F71D82BF6C0C53AD10509F46D
:1012C000A8C0C63AD10509F0A7C0C2E8D0E4EBC077
:1012D000C83AD10509F4A3C0C93AD10509F4A2C09E
:1012E000CA3AD10509F4A1C0CB3AD10509F4A0C08E
:1012F000CC3AD10509F49FC0CB3BD10509F49EC07F
:10130000CC3BD10509F49DC0CD3AD10509F49CC070
:10131000C03BD10509F49BC0CE3AD10509F49AC06F
:10132000CF3AD10509F499C0C13BD10509F498C061
:10133000C23BD10509F497C0C33BD10509F496C05F
:10134000C43BD10509F495C0C53BD10509F494C04F
:10135000C63BD10509F493C0C73BD10509F492C03F
:10136000C83BD10509F491C0C93BD10509F490C02F
:10137000CD3BD10509F48FC0CE3BD10509F48EC019
:10138000CA3BD10509F48DC0C0E0D4E48CC00E94F2
:101390009508EC0188C0CE019927D3FF03C0EC016A
:1013A000D86C81C0EC01D06C7EC0DF70D06A7BC08D
:1013B000DC2FCC27C16FD06A76C0C1E0D0E002C07C
:1013C000CC0FDD1F2A95E2F720E2829FC001112495
:1013D000C82BD92BDA6867C0DC2FCC27C46FD06A42
:1013E00062C0DC2FCC27C06FD06A5DC08C2F8F709D
:1013F0000E94EB0A94E0D695C7959A95E1F7CF70D5
:10140000D0E0DC2FCC27D069C82B4DC0C0E0D0E0A5
:101410004AC0C1E8D0E447C0C3E8D0E444C0C2EE4B
:10142000D4E441C0C9EED4E43EC0CAEED4E43BC02B
:10143000C5EBD4E438C0C6EBD4E435C0C3EBD4E488
:1014400032C0C4EBD4E42FC0C7EBD4E42CC0CCEC46
:10145000D4E429C0CDECD4E426C0C3E8D5E423C04D
:10146000CAE8D5E420C0C2E9D5E41DC0C4E9D5E48A
:101470001AC0C1E2D6E417C0C3E2D6E414C0C4E285
:10148000D6E411C0C5E2D6E40EC0C6E2D6E40BC075
:10149000C7E2D6E408C0CFE6D4E405C0C0E7D4E490
:1014A00002C0CAE2D6E4CE01DF91CF91089582381E
:1014B000910569F1B0F48133910509F46DC048F4E8
:1014C0008932910509F463C08A32910509F469C033
:1014D00008958533910509F455C089339105B9F014
:1014E0000895833E910569F138F4803E9105B1F08D
:1014F000823E910509F10895863E9105A9F1873E46
:101500009105B9F1843E910509F064C023C0209192
:10151000A60220FD4FC021FD4DC008958091A60276
:1015200080FD44C08091A70280FF44C08091A60244
:1015300084FD42C083EE4DC08091A60282FF38C078
:10154000F5CF8091A60282FD33C08091A70280FD75
:1015500031C0ECCF8091A70281FF32C08091A602FA
:1015600084FD2AC087EE35C08091A60283FF26C085
:10157000F5CF8091A60283FD21C08091A70281FD55
:101580001FC0ECCF8091A60285FD1CC01DC08091BC
:10159000A60285FD19C016C08091A60286FD16C060
:1015A00017C08091A60286FD13C010C089E311C048
:1015B00082EE0FC080EE0DC080E00BC086EE09C049
:1015C00084EE07C089E205C085E303C08AE201C05A
:1015D00081E390E008959091A60292FF0DC0282F1C
:1015E0002871283019F4877F846006C0282F247161
:1015F000243011F48B7F886093FF0DC0282F287151
:10160000283119F4877E846106C0282F2471243183
:1016100011F48B7E88612091A70220FF0DC0382F26
:101620003871383019F4877F816006C0382F3171E6
:10163000313011F48E7F886021FF0DC0282F287172
:10164000283119F4877E816106C0282F217121314C
:1016500011F48E7E886194FD877E089508950C9420
:101660002E0B0C942F0B0C942E0B0C94330BE82F99
:10167000F0E0E756FE4F80810895CF92DF92EF921F
:10168000FF920F931F93CF93DF9386E393E00E9423
:10169000BD0589E9E82E81E0F82EC0E0D0E091E3B5
:1016A000C92E93E0D92E09E213E0DF93CF93DF92A6
:1016B000CF920E9456068EE293E00E94BD05F7018C
:1016C00081917F010E94A2271F928F931F930F93F6
:1016D0000E94560687E293E00E94BD0521968DB7D1
:1016E0009EB708960FB6F8949EBF0FBE8DBFCA3046
:1016F000D105D9F6DF91CF911F910F91FF90EF9017
:10170000DF90CF9008950F931F93CF93DF93CDB7C2
:10171000DEB760970FB6F894DEBF0FBECDBF0E9454
:101720005E0D8091100181112DC0FE0131968AE07D
:10173000DF011D928A95E9F781E3898382E38A8339
:1017400082E98B8381EF8C8384EF8D83A6E0B1E007
:10175000CE010B9621912D938E179F07D9F726E086
:10176000E6E4F1E0DE011B9601900D922A95E1F787
:10177000FC01A0E0B1E0CE01419621912D938E179E
:101780009F07D9F780911001811102C095E001C037
:1017900090E09093760285E0891B80937502A6E025
:1017A000B1E04BE051E061E070E08D91E82FE2950F
:1017B000EF70F0E021A18F708B0102C0000F111FAC
:1017C0008A95E2F7C801902F9095922391A392A158
:1017D000892B82A34A175B0741F7A0E0B1E046E0FE
:1017E00051E061E070E08D91E82FE295EF70F0E05C
:1017F00021A18F708B0102C0000F111F8A95E2F7A3
:10180000C801902F9095922391A392A1892B82A336
:101810004A175B0741F7E9E9F1E083EA91E01192A9
:101820008E179F07E1F785E00E94040D60960FB6C2
:10183000F894DEBF0FBECDBFDF91CF911F910F9106
:101840000C944107BF92CF92DF92EF92FF920F93D9
:101850001F93CF93DF93A6E0B1E0E4E9F1E069E9FB
:1018600071E0C12C81E090E08F01D08010824C911A
:10187000242F22952F7030E0E901F9A04F70EC0180
:1018800002C0CC0FDD1F4A95E2F7AE014F29E901F6
:1018900049A34C91242F22952F7030E0E9015AA1E1
:1018A0004F707C0101C0EE0C4A95EAF74E2D409531
:1018B00045234AA3D0EADA95F1F720E0E22E21E0B1
:1018C000F22E40E050E0E701B9907E012B2D2295E9
:1018D0002F7030E0E90128A130E0DB2DDF7002C07D
:1018E00035952795DA95E2F720FD07C09C01042E77
:1018F00001C0220F0A94EAF702C020E030E03081F4
:10190000232B20834F5F5F4F46305105E1F64C910A
:10191000242F22952F7030E0E90159A14F707C01EE
:1019200001C0EE0C4A95EAF74E2D4095452349A398
:101930004D91242F22952F7030E0E901FAA04F70CD
:10194000EC0102C0CC0FDD1F4A95E2F7AE014F2932
:10195000E9014AA3319621E0E80138813D1101C037
:1019600020E0C22A6E177F0709F07ECF60917602D1
:1019700070E067567E4F2C2D45E084E991E00E948F
:10198000050D8C2DDF91CF911F910F91FF90EF905E
:10199000DF90CF90BF900895CF930E94220CC82F64
:1019A0000E94410D882311F18091750290E08756C5
:1019B0009E4F0E949C0D811114C0809193018F5FF6
:1019C00080939301863078F0E0917502F0E0E7565D
:1019D000FE4F80E090E01192019685309105D9F795
:1019E00002C0109293010E944B070BC080917602B7
:1019F00090E087569E4F0E94BF0D0E94DB160E940A
:101A00002E0B8C2FCF9108950895FF920F931F9363
:101A1000CF93DF938C01F62ED72FC42F222349F0CA
:101A200081E08093A5010E9422299093A4018093D4
:101A3000A3018091A5018823C1F08091A301909119
:101A4000A4010E942E29069780F0EF2DFD2FD801CA
:101A50004C2F50E0CD01801B910B841795071CF48F
:101A60008D918193F7CF1092A501DF91CF911F91B6
:101A70000F91FF900895559889B185FB882780F9CB
:101A800008958091A601811112C08091D8008061D3
:101A90008093D8008AE18A95F1F700C08091D9003F
:101AA00080FD02C082E001C081E08093A60181E058
:101AB0009091A601913009F080E008950E943B0DBD
:101AC000809310018091100166E0882311F080E07E
:101AD00001C086E00E94640E0E94410D81110C94A9
:101AE000730D0C94790D62E070E081E191E00C944B
:101AF000491962E070E081E191E00C9452190E9472
:101B00003E13882361F08FEA91E00E94441381E044
:101B100090E00E942B1A892B11F40C944113089524
:101B20008091AE01883039F460E08FEA91E00E9444
:101B300013151092AE010895CF93DF93D82FC92FBC
:101B40000E947F0D80E090E00E942B1A892B99F46F
:101B5000ED2FFC2F80E090E0DC01A855BE4F2C91CA
:101B60002193019685309105B9F78DEA91E00E94A5
:101B7000131781E001C080E0DF91CF910895CF93EA
:101B8000DF93D82FC92F0E94900DED2FFC2F80E0FE
:101B900090E02191DC01A855BE4F2C930196853031
:101BA0009105B9F78DEA91E0DF91CF910C940E1772
:101BB000EF92FF920F931F93CF93DF93F62E472F51
:101BC000E82FF0E0711106C0E356F84F6491762FCC
:101BD000862F72C0272F30E0E356F84FE4910E2F86
:101BE00010E056E0659FC0011124CFEFD0E0BE01A8
:101BF0000E9449345BEA5603C001579F900D11249F
:101C00008F0D911D8F0D911D982F990F890F7E01BA
:101C1000E21AF30AE09ED001E19EB00DF09EB00DF5
:101C20001124489FA0011124452F55277E01E41A55
:101C3000F50AE09EA001E19E500DF09E500D11248A
:101C40007E01E81AF108E29EC001E39E900DF29E2B
:101C5000900D1124892F9927C81BD90BC09FC00153
:101C6000C19F900DD09F900D11246230710591F0AD
:101C700048F461157105E1F061307105A9F48B2F0D
:101C8000752F19C06430710561F038F06630710548
:101C900079F00AC0892F7B2F0EC08E2F7B2FE52F66
:101CA0000AC08E2F792F02C0852F7E2FEB2F03C005
:101CB0008B2F7E2FE92F6E2FDF91CF911F910F91E8
:101CC000FF90EF90089508958093BE0160932501E1
:101CD0000895CF93DF93762FE901682F842F0E9418
:101CE000D80D798368838A83DF91CF91089580919D
:101CF0007702282F269530E02115310519F48170DF
:101D0000826005C02532310524F08170886480939B
:101D10007702089588E090E00C948C34CF92DF92A3
:101D2000EF92FF926B017C010E94770EB701A60132
:101D300088E090E0FF90EF90DF90CF900C94AA3471
:101D4000E7E7F2E083E0808311828FEF8283838371
:101D50001482A6ECB1E012968C91129783601296D1
:101D60008C9360817181828193810C948E0E80911D
:101D70005B0280FF08C08DE696E09F938F930E94E0
:101D800056060F900F9080915B0280FF0FC08091EC
:101D9000770281701F928F9380E596E09F938F93D7
:101DA0000E9456060F900F900F900F9080915B024B
:101DB00080FF0FC08091770286951F928F9385E3F5
:101DC00096E09F938F930E9456060F900F900F906E
:101DD0000F9080915B0280FF0EC0809178021F926D
:101DE0008F938BE196E09F938F930E9456060F90FE
:101DF0000F900F900F9080915B0280FF0EC080913A
:101E000079021F928F9381E096E09F938F930E94B7
:101E100056060F900F900F900F9080915B0280FFFD
:101E20000EC080917A021F928F9387EE95E09F9368
:101E30008F930E9456060F900F900F900F908091F5
:101E40005B0280FF0EC080917B021F928F938BEC10
:101E500095E09F938F930E9456060F900F900F90DE
:101E60000F9008958091770280FF02C086950895B3
:101E700080E0089580917B02833018F48F5F809317
:101E80007B02609177027091780280917902909143
:101E90007A020C948E0E80917B02882319F0815077
:101EA00080937B0260917702709178028091790231
:101EB00090917A020C948E0E6091250170E08091D1
:101EC000770280FF0AC08091BE0123E0829FC0019B
:101ED000112484589D4F0C944A168091BD01909115
:101EE0002401891780F7E82FF0E09F01220F331FAC
:101EF000E20FF31FE458FD4F1182108212828F5FB0
:101F0000F0CF9091770290FF16C09091BD01209183
:101F10002401921770F4E92FF0E0DF01AA0FBB1F34
:101F2000EA0FFB1FE458FD4F8183608342839F5F6C
:101F3000F0CF0C945C0F0895CF93DF9300D01F92E5
:101F4000CDB7DEB79091770290FF0AC09E012F5F58
:101F50003F4F0E94690E4B8169818A810E94810FE7
:101F60000F900F900F90DF91CF910895CF93DF9353
:101F7000EC01EC81F0E0E856F94F4491E7E7F2E03C
:101F8000628181810E949C0F8C818F5F8C83DF91A5
:101F9000CF910895CF93DF93EC01E7E7F2E043811F
:101FA00062818C810E949C0F8C818F5F8C83DF917A
:101FB000CF9108950F931F93CF93DF9300D01F927B
:101FC000CDB7DEB78C018091B70181110AC09E01A7
:101FD0002F5F3F4F4FEF6FEF0E94690E8A81809312
:101FE000B701F8018481813051F028F0823061F42A
:101FF0004091B7010AC08091B70140E007C06091ED
:10200000B70140E080E003C040E080E060E00E9473
:10201000810FF801848190E0019663E070E00E94F6
:102020005D3484830F900F900F90DF91CF911F91BB
:102030000F9108954F925F926F927F928F929F922D
:10204000AF92BF92CF92DF92EF92FF920F931F93C6
:10205000CF93DF9300D01F92CDB7DEB7F82ED62EE8
:10206000E42E622E9091770290FFC5C0E92FE6958D
:10207000AE2FB0E0A45BBE4F8C918093C6019E7FD3
:10208000923061F49E012F5F3F4F8F2D0E94690EA9
:102090004B8169818A810E94810F62C0823019F46C
:1020A000E0907A025DC0863019F4F090780258C052
:1020B0008930D9F3893109F053C0E9518E2F8170ED
:1020C000782E81E0C72CC826E695F0E0E856F84F58
:1020D000A590B490412CBB249CEE892E93E0992EC0
:1020E000609123014616D0F5042D10E00A9DC00131
:1020F0000B9D900D1A9D900D112470E00E944934A3
:102100005F2C711002C0560E01C0561A80915B02FE
:1021100080FF11C0BF92AF921F92CF921F925F9229
:102120001F924F929F928F920E9456060FB6F8947C
:10213000DEBF0FBECDBF8091BD01080F111D9801FC
:10214000220F331F020F131F980124583D4F4E2DAD
:102150006D2D852D0E94690E4394C2CF0E945C0FA5
:1021600080917802F81208C080917902D81204C0D8
:1021700080917A02E81629F08091C80182608093EC
:10218000C801F0927802D0927902E0927A02662039
:10219000E9F06091770270917802809179029091D4
:1021A0007A020E948E0E80915B0280FF24C0809193
:1021B0007A021F928F93809179021F928F93809160
:1021C00078021F928F9387EC93E00CC080915B02A2
:1021D00080FF11C01F92EF921F92DF921F92FF9219
:1021E00080EA93E09F938F930E9456060FB6F8946F
:1021F000DEBF0FBECDBF0F900F900F90DF91CF913C
:102200001F910F91FF90EF90DF90CF90BF90AF9014
:102210009F908F907F906F905F904F900895E7E729
:10222000F2E09181282F4381628188E0890F0C942C
:102230001A1081E00C940F11E7E7F2E09181282F4A
:102240004381628188EF890F0C941A1081E00C940D
:102250001C11E7E7F2E0628128E0620F08F46FEFFB
:10226000282F438181810C941A1081E00C9429114C
:10227000E7E7F2E0628128E0621B08F460E0282FC3
:10228000438181810C941A1081E00C943811E7E7A6
:10229000F2E0438128E0420F08F44FEF282F6281DB
:1022A00081810C941A1081E00C944711E7E7F2E069
:1022B000438128E0421B08F440E0282F628181819D
:1022C0000C941A1081E00C94561120E00C941A1012
:1022D000FF920F931F93CF93DF93EC01F12C0FEF3D
:1022E00010E060912301F616F0F48091BD012F2DCE
:1022F00030E0280F311DC901880F991F280F391FA1
:1023000024583D4F70E0C8010E945D34962F8C81A7
:1023100040917A0260917902F99E800D11240E9409
:10232000690EF394DECF0E945C0F9A818C8190FF3E
:1023300002C08F5F01C081508C83DF91CF911F91CC
:102340000F91FF9008958F929F92AF92BF92CF927C
:10235000DF92EF92FF920F931F93CF93DF93EC01E5
:102360008A8180FF03C0BB24BA9402C0BB24B3940B
:102370008C8181110DC081E0B81206C080912301CB
:1023800081508093B90102C01092B90181E08C8321
:10239000A12C4CE0942E80912301A81608F044C093
:1023A0008091BD01CA2CD12C8601080F111DC801D6
:1023B000880F991F080F191F04581D4FF80111822B
:1023C0001082128234E0E32EF12C812C8091B9012D
:1023D000880D8D302CF0692D0E943B34892F05C06B
:1023E00087FF03C090912301890F082E000C990BE1
:1023F000C816D90691F480917A028E9DA0018F9D16
:10240000500D112455954795559547959801609124
:102410007902809178020E94690E8B0CF1E0EF1A2C
:10242000F108A1F6A394B7CF0E945C0F8091B90187
:1024300091E0B9120EC0811107C080912301815033
:102440008093B9011C820FC081508093B901BC8276
:102450000AC090E001966091230170E00E945D3413
:102460008093B9018C83DF91CF911F910F91FF90E1
:10247000EF90DF90CF90BF90AF909F908F90089596
:102480001F93CF93DF93EC018C81811109C081E010
:102490008C831092B80192E09093220180932101E5
:1024A0008091BD0190912401891770F4E82FF0E02C
:1024B0009F01220F331FE20FF31FE458FD4F1182DB
:1024C000108212828F5FF0CF10E060912301161707
:1024D000C0F5E12FF0E070E0CF010E945D34209163
:1024E000BD01820F2091B801022E000C330B90E049
:1024F000E217F307CCF020912201022E000C330BDF
:102500002E173F078CF09C01220F331F820F931F61
:102510009C0124583D4F40917A026091790280914C
:1025200078020E94690E0BC0FC01EE0FFF1F8E0F98
:102530009F1FFC01E458FD4F1182108212821F5F21
:10254000C4CF0E945C0F809121012091B801280F17
:102550002093B80190912201980F909322011916AF
:102560005CF4022E000C330B4091230150E04150EB
:1025700051092417350734F081958093210181306A
:1025800009F41C82DF91CF911F9108950F931F933F
:10259000CF93DF938C01FC0184819581019681703A
:1025A000992795838483C0E0D5E580912301C817DE
:1025B00000F58091BD012C2F30E0280F311DC9019D
:1025C000880F991F280F391F24583D4F4C2F4695CF
:1025D000F80184819581840F911D817040917A0268
:1025E000609179028D9F802D11240E94690ECF5F2A
:1025F000DCCFDF91CF911F910F910C945C0F0F9363
:102600001F93CF93DF93EC0100E010E08091230152
:10261000282F30E00217130724F59091BD0198018F
:10262000290F311DA901440F551F240F351F2458B0
:102630003D4F869590E04C81081719071CF4442300
:1026400031F002C0411103C040917A0201C040E064
:1026500060917902809178020E94690E0F5F1F4F8E
:10266000D5CF0E945C0F8C8190E0019681709927F4
:102670008C83DF91CF911F910F9108958091C801B4
:1026800008951092C801089525E0E7E7F2E0DC0123
:1026900001900D922A95E1F72091C6013091C70172
:1026A0004091C801FC012583368347830895E6ECF9
:1026B000F1E01182828184608283089560917702C3
:1026C000669570E04BE050E086E291E00E9477343E
:1026D000892B19F481E08093C7010E9422299093ED
:1026E000C0018093BF018091C80184608093C801BC
:1026F00080915B0280FF08C087E893E09F938F93EF
:102700000E9456060F900F9008951092C701809175
:10271000C80184608093C80180915B0280FF08C07B
:102720008EE693E09F938F930E9456060F900F9032
:1027300008959091770290FF59C09170811102C065
:10274000926006C0853210F0986402C0880F982B02
:10275000909377028091C80181608093C8016623BD
:10276000B1F0609177027091780280917902909136
:102770007A020E948E0E80915B0280FF1BC08091C6
:10278000770286951F928F9381E195E00BC080912F
:102790005B0280FF0FC08091770286951F928F9316
:1027A00083EF94E09F938F930E9456060F900F90B3
:1027B0000F900F9060917702669570E04BE050E0CB
:1027C00086E291E00E947734892B19F00E948513EC
:1027D00002C00E945E1381E08093C20140917A02A0
:1027E00060917902809178020C9465110895682FA8
:1027F00090917702969581E0890F853208F081E00B
:102800000C94991381E00C94F713682F9091770240
:1028100096958FEF890F09F484E20C94991381E067
:102820000C94051461E00C949913809177028160F7
:102830008093770280915B0280FF0DC01F9281E040
:102840008F9385E894E09F938F930E9456060F9094
:102850000F900F900F908091770286950C94121430
:1028600060E00C9499138091C501811165C080913D
:102870005B0280FF08C084EB95E09F938F930E94DA
:1028800056060F900F9080915B0280FF08C08EE982
:1028900095E09F938F930E9456060F900F900E9491
:1028A000B427811110C080915B0280FF08C086E7C9
:1028B00095E09F938F930E9456060F900F900E9471
:1028C00054280E94A00E0E948A0E60937702709393
:1028D00078028093790290937A028091C801836094
:1028E0008093C8016E7FC1F480915B0280FF08C0B5
:1028F0008DE295E09F938F930E9456060F900F9064
:102900000E94A00E0E948A0E609377027093780254
:102910008093790290937A020E94770E0E94B70EFC
:102920000E9457138091770280FF03C086950E9412
:10293000301481E08093C5010895809177028E7FE5
:10294000809377026091770270917802809179028A
:1029500090917A020E948E0E80915B0280FF0FC0E0
:102960008091770281701F928F938DE494E09F9302
:102970008F930E9456060F900F900F900F900E9419
:1029800085138091C80181608093C8012FEF80E793
:1029900092E0215080409040E1F700C000000C948C
:1029A0005C0F80915B0280FF10C080917702809560
:1029B00081701F928F938CEB94E09F938F930E9472
:1029C00056060F900F900F900F908091770280FD28
:1029D0000C949D140C941514809177028E7F809333
:1029E000770280915B0280FF0CC01F921F9283E1EF
:1029F00094E09F938F930E9456060F900F900F9034
:102A00000F900E9485138091C80181608093C80156
:102A10002FEF80E792E0215080409040E1F700C026
:102A200000000C945C0F1F93CF93DF93EC01162FE3
:102A30008F8180FF0FC0888180FF0AC0809177025C
:102A4000816080937702888186950E94991302C0E5
:102A50000E94EC148F8181FF06C0212F4B816A8177
:102A600089810E941A108F8182FF08C08E8188237D
:102A700019F00E945E1302C00E9485138F8183FFAC
:102A800003C081E08093C201DF91CF911F9108952F
:102A9000EF92FF920F931F93CF93DF938091C70123
:102AA000882309F4BEC08091C601E0917702E695C3
:102AB000E81BE093C101823049F4F0E0EC56F94F95
:102AC000E491CE2FD0E006EB1FE049C0863049F4F8
:102AD000F0E0EF56F94FE491CE2FD0E00AEC1FE082
:102AE0003EC0893051F4E695F0E0E257F94FE491A9
:102AF000CE2FD0E008E611E132C08F3051F4E695D8
:102B0000F0E0E557F94FE491CE2FD0E003EA11E170
:102B100026C0853149F4F0E0E857F94FE491CE2F13
:102B2000D0E000E412E11BC0883181F0833239F437
:102B3000E6E8F6E0C591D4910AED1FE010C08432BA
:102B400051F4C4EFD1E00FEF12E109C0C8EED3E0B9
:102B500006EC12E104C0C0EDD7E003E61EE0809170
:102B6000C201882389F01092C2010E9422299E018D
:102B700020953095820F931F9093C0018093BF01E1
:102B80001092C4011092C3018091BF019091C001C5
:102B90000E942E298C179D0708F443C08091BC0128
:102BA000882311F11092BC018091BA019091BB0170
:102BB0000E942E2980339547B8F00E9422299093D5
:102BC000BB018093BA0180915B0280FF08C085E45D
:102BD00093E09F938F930E9456060F900F908091E1
:102BE000C80188608093C801E090C301F090C401DF
:102BF000E091BF01F091C001CE0FDF1FD093C00163
:102C0000C093BF018FEB91E0F80109958091C3015A
:102C10009091C401892B29F4EF2819F081E0809369
:102C2000BC01DF91CF911F910F91FF90EF9008951C
:102C30002BB1342F309523233BB1432B3FB7F8946E
:102C4000FC01680F791FE617F70789F0819198E07A
:102C50004BB9000000C087FF2BB9880F000000C0EF
:102C600000C000C02BB900C09A9591F7ECCF3FBFD0
:102C700008952AB1242B2AB99B01220F331F620F1A
:102C8000731F0E94181687EC90E00197F1F700C0BF
:102C90000000089540E40C9439160C9476061F93B6
:102CA000CF93DF93182FC82F880FDD0B6F70E62F9F
:102CB000F0E0EF58FE4FC553DE4F90818881890FB9
:102CC0008883843024F060E0812F0E944D16888133
:102CD0008D3F24F461E0812F0E944D168881837816
:102CE00087FF03C081508C6F8F5F8883DF91CF9106
:102CF0001F91089580911001882309F447C0209105
:102D00003201A22FA295AF70B0E091963C919197BD
:102D10002F7081E090E0AC01022E01C0440F0A94B4
:102D2000EAF7542F5095352391963C9391979296BC
:102D30003C919297432B92964C93929740913101FC
:102D4000E42FE295EF70F0E031A14F70042E01C046
:102D5000880F0A94EAF7982F9095932391A392A154
:102D6000892B82A390968C9190E002C095958795CF
:102D70002A95E2F7817020A130E002C035952795B1
:102D80004A95E2F720FD09C090E008C087EF8093E4
:102D9000320186EF80933101B2CF92E0892B80938C
:102DA000CD019091100181E098279093CA01891B71
:102DB0008093C90108956091CD01562F550F550F8D
:102DC00020913201E22FE295EF70F0E080A190E0D7
:102DD0002F7002C0959587952A95E2F78170992703
:102DE00040913101E42FE295EF70F0E020A130E056
:102DF0004F7002C0359527954A95E2F7B901617089
:102E0000772720FF02C062E070E0682B792B652BEA
:102E10006093CD018091CA010C944F162091CD0191
:102E2000FC0120830895FC0160818091C9010C940C
:102E30004F160F931F93CF93DF93C62FD42F122FCC
:102E4000FC0182818823C9F06093D0010E9422296D
:102E50009093CF018093CE0180E28C0F883008F0F0
:102E600057C0C77081E001C0880FCA95EAF7DF91AB
:102E7000CF911F910F910C94001E8091D001681387
:102E800030C08091CE019091CF010E942E29883CC4
:102E9000910538F500E20D0FCD17B9F080E28C0FE7
:102EA000883040F4C77081E001C0880FCA95EAF706
:102EB0000E94071E083028F581E09D2F977001C001
:102EC000880F9A95EAF70E94001E812F0E94ED1D3F
:102ED0000830F0F4D77081E001C0880FDA95EAF786
:102EE0000AC080E28C0F883098F4C77081E001C07E
:102EF000880FCA95EAF7DF91CF911F910F910C943B
:102F0000071E812FDF91CF911F910F910C94ED1D22
:102F1000DF91CF911F910F9108959C01CB01233F29
:102F20004CE53407F9F078F4283DFCE53F07B9F0AB
:102F3000293D4CE5340711F1273D3C4531F526E2AA
:102F400041EE61EE1EC0253FFCE53F0799F070F0B1
:102F5000263F3C45D1F427E245EE66EE12C027E25B
:102F600045EE0EC026E241EE60EE0BC027E245EED4
:102F700064EE07C026E241EE62EE03C028E241E0C3
:102F800065EE0E94191780E00895FC018281882374
:102F900019F01092D001089581E008951F93CF9306
:102FA000DF93FB011281112309F40FC1EC010E9490
:102FB000C7279093A7028093A602C031FCE5DF07E4
:102FC00009F4C0C008F041C0C830ECE5DE0709F4E0
:102FD00097C0F0F4C4308CE5D80709F486C068F4D3
:102FE000C230FCE5DF0709F476C0C330DC4509F0E8
:102FF000EDC08091A602826075C0C630ECE5DE07A8
:1030000009F46DC008F078C08091A60288606AC09B
:10301000CC308CE5D80709F482C068F4CA30FCE5EE
:10302000DF0709F471C008F076C00E94B7208091D4
:10303000A602806857C0CE30ECE5DE0709F473C005
:1030400008F07CC08091A60288C0CB3F8CE5D807F1
:1030500009F44EC018F5C331FCE5DF0709F47AC066
:1030600078F4C131ECE5DE0709F470C0C231DC450B
:1030700009F0ACC00E94B7208091A6028F7732C0C1
:10308000C5318CE5D80709F46FC008F485C0CA3F84
:10309000DC4509F09BC08091A7023BC0CF3F8CE587
:1030A000D80709F45CC050F4CD3FFCE5DF0709F414
:1030B00041C0E8F18091A70282602BC0C130EDE5EC
:1030C000DE0709F475C008F45BC0C230DD4509F0C5
:1030D0007DC080E06EC08091A602816003C08091B7
:1030E000A60280618093A60266C08091A6020FC0EE
:1030F0008091A70282604DC08091A6028062F2CFCB
:103100008091A6028064EECF8091A60288608460E0
:10311000E9CF81603EC08091A6028E7FE3CF80918F
:10312000A6028D7FDFCF8091A602877FDBCF8091C3
:10313000A70218C08091A7028D7F2BC08091A602A4
:103140008F7ED0CF8091A6028F7DCCCF8091A602BA
:103150008F7BC8CF8091A602877F8B7FC3CF809162
:10316000A7028D7F8E7F15C08091A60282FB222749
:1031700020F991E0922790FB82F990FB83F9B2CF7E
:103180008091A702982F909591708E7F892B90FB4C
:1031900081F98093A7020FC00E94B7208091A602F8
:1031A00087FB222720F991E0922790FB87F99ACF9D
:1031B00081E00E9456288091A6029091A7020E9469
:1031C000D8270E94B72010E001C011E0812FDF91C5
:1031D000CF911F9108958EE1489B02C08150E1F785
:1031E000489BFECF0895589880E28A95F1F7589A47
:1031F0000895FC012AE02A95F1F790E020E080E0B4
:1032000031E0261779F040E14A95F1F7880F489BA5
:1032100002C08160932700C0000040E14A95F1F7A9
:103220002F5FEFCF20E12A95F1F729B100C0000010
:1032300030E13A95F1F7217092272081920F908327
:103240000895EF92FF920F931F93CF93DF931F92F6
:10325000CDB7DEB719828C017C01E60EF11C0E158C
:103260001F0559F00E94EB1868E0CE0101960E94FC
:10327000F918F80181938F01F2CF81E099819111C2
:1032800080E00F90DF91CF911F910F91FF90EF9011
:1032900008959093D3018093D2016093D101509A05
:1032A000589A08959093D3018093D2016093D101ED
:1032B0005098589AE89AE9E6F0E080818C7F808304
:1032C0000895615091E001C0990F6A95EAF720E0F6
:1032D00031E0992361F0492F482319F0589A2327A8
:1032E00001C0589840E24A95F1F79695F2CF222313
:1032F00011F0589A01C0589880E28A95F1F75898D1
:103300000895FF920F931F93CF93DF93EC018C01ED
:10331000060F111DC017D10741F0F9900E94F31854
:1033200068E08F2D0E946119F5CFDF91CF911F9139
:103330000F91FF9008951F920F920FB60F921124D4
:103340000F931F932F933F934F935F936F937F93AD
:103350008F939F93AF93BF93EF93FF93CF93DF939D
:103360001F92CDB7DEB719820E94EB1867E0CE013D
:1033700001960E94F918382F369536953695932F79
:1033800096959570232F2570920F292F237096956F
:1033900096958770920F891348C08981811145C025
:1033A0008091D101831708F440C080E18A95F1F73C
:1033B000589A509AA2E0AA95F1F700C00091D20164
:1033C0001091D301B8E03B9F000D111D11245898B6
:1033D000F8016581662321F0868197810E94811919
:1033E0000E94F318F0E1FA95F1F758985098589A1E
:1033F00080E18A95F1F7D80112966C9112976623B5
:1034000069F013968D919C9114970E942119D8010F
:10341000ED91FC91811105C082E004C0D801ED91CD
:10342000FC9188E080830E94EB180F90DF91CF9190
:10343000FF91EF91BF91AF919F918F917F916F918C
:103440005F914F913F912F911F910F910F900FBE60
:103450000F901F9018950F931F93CF93DF93209198
:10346000D10130E0281739070CF471C09C0193E0BA
:10347000220F331F9A95E1F7C091D201D091D30169
:10348000C20FD31FF894509A589845E04A95F1F727
:103490000000982F969595708570890F982F9370DE
:1034A00086958695890F8901082B0E94F31884E080
:1034B0008A95F1F700C067E0802F0E94611940E112
:1034C0004A95F1F75098589A489902C000C0FCCF2D
:1034D00087E090E0489B0EC0019751F4509A589AAB
:1034E000E881F98181E08083789481E090E031C0C7
:1034F00000C0F0CF6D81662381F08E819F810E9494
:10350000211981110AC0509A589AE881F98182E004
:103510008083789482E090E01CC00E94EB1880E2E7
:103520008A95F1F75898509A40E14A95F1F76A81E7
:10353000662321F08B819C810E9481190E94F318DF
:10354000E881F9811082789480E090E002C084E004
:1035500090E0DF91CF911F910F9108959093D90141
:103560008093D8010895E091D801F091D901309766
:1035700021F00190F081E02D099480E00895EF9210
:10358000FF920F931F93CF93DF93E091D801F091B7
:10359000D9013097B1F18C010280F381E02D0995BA
:1035A00080915B0282FF2DC080FF04C085EA98E015
:1035B0000E94BD05E80118E08FE9E82E88E0F82EAA
:1035C00080915B0280FF0BC088811F928F93FF92D6
:1035D000EF920E9456060F900F900F900F9011508F
:1035E00021961111EDCF80915B0280FF0AC08DE919
:1035F00098E0DF91CF911F910F91FF90EF900C9485
:10360000BD05DF91CF911F910F91FF90EF9008952D
:10361000E091D801F091D901309739F022E0DC0136
:103620002C930480F581E02D099408952091D60112
:103630003091D7012817390771F09093D701809303
:10364000D601E091D801F091D901309721F00680A0
:10365000F781E02D099408952091D4013091D5018E
:103660002817390771F09093D5018093D401E09128
:10367000D801F091D901309721F00084F185E02D37
:103680000994089585B7806885BF85B7806885BF30
:10369000089508950C94491B0C944A1B0C94491BE3
:1036A0000C94491B0E94421B0E944E1B0C944C1B05
:1036B0000E9419290E94830B0E94A2290E943314A0
:1036C0000C94501BCF93C82F80915B0282FF1EC0C9
:1036D00080FF04C08EEB98E00E94BD0580915B02E4
:1036E00080FF0CC01F92CF9389EB98E09F938F933C
:1036F0000E9456060F900F900F900F9080915B02E2
:1037000080FF04C087EB98E00E94BD058C2FCF910D
:103710000C945607BF92CF92DF92EF92FF920F93D5
:103720001F93CF93DF93CDB7DEB72A970FB6F894E8
:10373000DEBF0FBECDBF0E94CC0C0E94410D811197
:1037400011C08FEF89838A831B820E9422298160A6
:10375000782F9D838C8349815A816B818D810E9452
:10376000331C54C08BEDC82E81E0D82E00E010E051
:10377000B02E802F0E94370BE82EF60121916F01A9
:10378000F82EF22631F40F5F1F4F0A30110581F732
:10379000D8CF80915B0281FD0E943D0B80E090E0DC
:1037A0002F2D30E0482FB901082E02C0759567957E
:1037B0000A94E2F760FF25C08E83BF8281E090E02B
:1037C0006C0102C0CC0CDD1C4A95E2F72E2D30E0D6
:1037D0002C213D21232B09F480E088870E94222997
:1037E0008160782F9A8789874E815F8168858A8575
:1037F0000E94331CF801E552FE4F80818C258083A6
:1038000005C001968630910569F6BDCF0E94B62BA2
:103810000E94B31A9091DA018917A9F00E94B31A95
:103820008093DA012A960FB6F894DEBF0FBECDBFA3
:10383000DF91CF911F910F91FF90EF90DF90CF908C
:10384000BF900C94621B2A960FB6F894DEBF0FBE91
:10385000CDBFDF91CF911F910F91FF90EF90DF903F
:10386000CF90BF900895CF93DF93CDB7DEB72B975E
:103870000FB6F894DEBF0FBECDBF4F835887698760
:103880007A878B87DE01119686E0FD0111928A9579
:10389000E9F785E0FE01379601900D928A95E1F7F0
:1038A00049815A816B817C818D819E810E94872311
:1038B0002B960FB6F894DEBF0FBECDBFDF91CF9130
:1038C0000895FC01808191810E945D2608958823DE
:1038D00009F41AC18238C1F40E94B31A81FD14C1DF
:1038E00069E380913301909134010E948E280E94F7
:1038F000EA262FEF81EE94E0215080409040E1F7DE
:1039000000C0000069E319C08338F9F40E94B31ABB
:1039100080FDFAC063E580913301909134010E94EB
:103920008E280E94EA262FEF81EE94E021508040FD
:103930009040E1F700C0000063E580913301909171
:1039400034010E9490280C94EA268438C1F40E9425
:10395000B31A82FDD9C067E480913301909134019C
:103960000E948E280E94EA262FEF81EE94E02150DB
:1039700080409040E1F700C0000067E4DECF9CEF9C
:10398000980F913A40F4682F80913301909134015F
:103990000E948E28D8CF90E2980F983050F487700C
:1039A00091E001C0990F8A95EAF7892F0E949F261E
:1039B000CACF9BE5980F933070F4853A29F0863A88
:1039C00031F083E890E005C081E890E002C082E831
:1039D00090E00C94161B98E5980F973108F08EC074
:1039E000883A09F445C0893A09F445C08A3A09F48D
:1039F00045C08B3A09F445C08C3A09F445C08B3B6D
:103A000009F445C08C3B09F445C08D3A09F445C022
:103A1000803B09F445C08E3A09F445C08F3A09F459
:103A200045C0813B09F445C0823B09F445C0833B56
:103A300009F445C0843B09F445C0853B09F445C001
:103A4000863B09F445C0873B09F445C0883B09F42F
:103A500045C0893B09F445C08D3B09F445C08E3B08
:103A600009F445C08A3B09F445C080E090E044C0B9
:103A700082EE90E041C089EE90E03EC08AEE90E098
:103A80003BC085EB90E038C086EB90E035C083EB1F
:103A900090E032C084EB90E02FC087EB90E02CC028
:103AA0008CEC90E029C08DEC90E026C083E891E09A
:103AB00023C08AE891E020C082E991E01DC084E93A
:103AC00091E01AC081E292E017C083E292E014C054
:103AD00084E292E011C085E292E00EC086E292E0BC
:103AE0000BC087E292E008C08FE690E005C080E757
:103AF00090E002C08AE292E00C942C1B803F20F000
:103B00000E943C2A0C94292B0895882309F464C050
:103B1000823879F40E94B31A81FF5EC069E3809114
:103B20003301909134010E948E280E94EA2669E3B5
:103B300010C08338B1F40E94B31A80FF4DC063E512
:103B400080913301909134010E948E280E94EA26D0
:103B500063E580913301909134010E9490280C9488
:103B6000EA26843879F40E94B31A82FF35C067E4EC
:103B700080913301909134010E948E280E94EA26A0
:103B800067E4E7CF9CEF980F913A10F4682FE1CFEC
:103B900090E2980F983050F4877091E001C0990F2F
:103BA0008A95EAF7892F0E94A526D9CF9BE5980F21
:103BB000933020F480E090E00C94161B98E5980F69
:103BC000973120F480E090E00C942C1B803F20F093
:103BD0000E94A42A0C94292B0895CF93C82F0E94E9
:103BE000671CC93349F42FEF87EE93E021508040E2
:103BF0009040E1F700C000008C2FCF910C94851D00
:103C0000882321F00E949F260C94EA260895882399
:103C100021F00E94A5260C94EA260895CF92DF9207
:103C2000EF92FF920F931F93CF93DF937C01062FA8
:103C3000C72FFC01158112951F70D281D1110E94EE
:103C4000BC260E949526882379F0DD2369F080E266
:103C5000800F883048F082E00E9434270E94952629
:103C600091E0D82ED92601C0D12CCC2EC2948FE061
:103C7000C8228C2D90E0FC01E659FF4F0C94713462
:103C80008C2F807FCF70882311F0C295C07FDD23F9
:103C900099F0CC2309F4C4C180E2800F883010F081
:103CA000011104C08C2F0E949F2603C08C2F0E94FC
:103CB000AF260E94EA26B4C1802F0E94851DCC2326
:103CC00009F4D3C180E2800F883010F0011104C0E4
:103CD0008C2F0E94A52603C08C2F0E94B5260E941F
:103CE000EA26C3C18C2F807FCF70803211F0C2953D
:103CF000C07F002319F00130C9F022C0DD2371F02C
:103D0000112341F0113031F40E94CF268C2B0E94F8
:103D1000D726ABC10E94CF268C2B1DC0112319F0D2
:103D2000113009F4A2C10E94E02625C0DD2321F054
:103D3000163008F09AC10EC0153008F096C11BC0AD
:103D4000DD2361F0112331F0F701858180FF68C127
:103D50008F7085838C2F0E94001E87C1112359F01C
:103D6000093309F06EC1FFEF27EE83E0F1502040E8
:103D70008040E1F764C18C2F0E94071E76C18C2F12
:103D800086958695837019F0813061F06EC1DD23D0
:103D900021F0802F9C2F937002C080E090E00E9461
:103DA000161B6BC1DD2321F0802F9C2F937002C066
:103DB00080E090E00E942C1B60C1DD23F9F0053FFC
:103DC00051F0063F71F0043FA9F48091A002909158
:103DD000A10281600BC08091A0029091A10282603B
:103DE00005C08091A0029091A10284609093A102ED
:103DF0008093A002802F0E943C2A1EC0053F51F0F4
:103E0000063F71F0043FA9F48091A0029091A102B5
:103E10008E7F0BC08091A0029091A1028D7F05C082
:103E20008091A0029091A1028B7F9093A102809338
:103E3000A002802F0E94A42A0E94292B1EC18C2F31
:103E4000837009F045C0D11114C1402F42954695A9
:103E50004770440F440F602F6F70862F90E0A0E0F2
:103E6000B0E0042E04C0880F991FAA1FBB1F0A943C
:103E7000D2F704FF10C00FE010E020E030E004C0F3
:103E8000000F111F221F331F4A95D2F7009510957E
:103E90002095309503C000E010E09801C695C695C6
:103EA000C370BC01CD01602B712B822B932BC230D0
:103EB00049F058F4C13019F00E94D824DAC00E94A9
:103EC000C624D7C00E94EA24D4C00E94C424D1C012
:103ED000DD2319F08C2F817001C08695882309F4A9
:103EE000C8C0402F429546954770440F440F602F3D
:103EF0006F70862F90E0A0E0B0E0042E04C0880F21
:103F0000991FAA1FBB1F0A94D2F704FF10C00FE02D
:103F100010E020E030E004C0000F111F221F331F0B
:103F20004A95D2F7009510952095309503C000E092
:103F300010E09801C695C695C370BC01CD01602BF9
:103F4000712B822B932BC23049F058F4C13019F0F9
:103F50000E949D258EC00E948B258BC00E94AF259C
:103F600088C00E94FE2485C0CF70DD2339F08C2FDD
:103F70000E942425802F0E94001E7BC0802F0E945B
:103F8000071E8C2F0E94452574C0023F01F128F4C2
:103F9000003F41F0013FA1F03FC0033FF9F0043F73
:103FA00039F13AC0DD2341F0153008F05EC08C2FA6
:103FB0008F710E946A2559C0163008F056C0F7CF9D
:103FC000DD2339F08C2F8F710E9424254EC0DD2314
:103FD000C9F38C2F8F710E94452547C0DD2329F03E
:103FE0008C2F8F710E940F2540C00E940A253DC072
:103FF000DD2349F0CF718C2F0E94242563E08C2FA4
:104000000E941F2732C081E00E943427123068F1DD
:1040100082E00E94342729C0DD2331F0112391F280
:10402000802F0E94671C21C0112399F2093349F4A3
:104030009FEFE7EEF3E09150E040F040E1F700C081
:104040000000802F0E94851D10C04C2F4F70602FE4
:10405000C7010E947E080E9435240FC04C2F4F706C
:10406000602FC7010E94810808C088EF8C0D843042
:1040700020F40E94B31A0E945607DD20C9F00E9466
:10408000912680FD15C0F70112820E948B260E94A6
:104090002425C7010E9461200E948B26DF91CF91C9
:1040A0001F910F91FF90EF90DF90CF900C944525DA
:1040B000DF91CF911F910F91FF90EF90DF90CF9004
:1040C00008950F931F93CF93DF93EC01988189811B
:1040D0002B813C81232B31F08F3F31F481E09F3FD6
:1040E00019F403C081E001C080E080FD13C0CE015F
:1040F0000E946F07882371F0688179818A810E940C
:1041000068268C010E94C1250E94B224B801CE010C
:104110000E940E1EDF91CF911F910F910895882369
:1041200021F00E94AF260C94EA260895882321F0FE
:104130000E94B5260C94EA2608950E94BC260E948F
:10414000CC260E94EA260E94512C0E94292B80E056
:1041500090E00E94161B80E090E00C942C1B809154
:104160003301909134010E9492280C949D200E946A
:10417000AC260C94AF20E92FE295EF704E2F50E063
:10418000FA013297EE30F105B0F4E658FF4F0C9487
:104190007134803F91F018F4883E68F40EC0843F7B
:1041A00051F40BC0883E48F0813F29F406C093FBD0
:1041B000882780F9089580E0089581E008950E949D
:1041C0005D260E94BB200895CF93DF9300D000D0DE
:1041D0001F92CDB7DEB70F900F900F900F900F90FA
:1041E000DF91CF910895CF93DF9300D000D000D01E
:1041F000CDB7DEB726960FB6F894DEBF0FBECDBFA3
:10420000DF91CF9108951F93CF93DF93C091E60183
:1042100016E08091E701C81799F0D0E01C9FF001EB
:104220001D9FF00D1124E851FE4F408151816281A4
:104230007381848195810E94F3202196C770E9CF14
:10424000DF91CF911F91089540911802509119026A
:1042500060911A0270911B0280911C0290911D02C4
:104260000C94F320CF9380911D0282958F7009F0FA
:104270005FC080911A02882309F45AC08091E60138
:10428000B091E70170911802A091190240911B02B0
:1042900050911C0291E07F3F09F090E0692FC6E049
:1042A0008B1709F445C04115510521F0AF3F21F0AE
:1042B00020E003C021E001C0262F90E020FD35C0A2
:1042C000C89FF001C99FF00D1124E851FE4F2181D4
:1042D0002A132BC02081271328C02281211125C039
:1042E000238134812417350710F421503109241B10
:1042F000350B283C3105C8F420911D022F70206138
:1043000020931D0226E0289FF001299FF00D112423
:10431000E351FE4F80818F708061808388E192E05D
:104320000E946120CF910C94032101968770B8CF31
:10433000CF910895AF92BF92CF92DF92EF92FF920A
:104340000F931F93CF93DF93CDB7DEB761970FB66F
:10435000F894DEBF0FBECDBF8C0185E0F801DE0111
:104360001D9601900D928A95E1F7D8014C91119616
:104370005C9111971296EC9030911802609119029D
:1043800080911B0290911C02009731F06F3F31F435
:1043900021E03F3F19F403C021E001C020E0B22F2B
:1043A000B170BB2E20FD60C1F801C380D480A09005
:1043B0001A02AA2009F4EEC020911D02C816D906DF
:1043C00028F0D601A81BB90BCD0104C080959095AB
:1043D0008C0D9D1DFF24F394883C910580F0F12CF9
:1043E000207F09F09CC07C2DD98AC88A6E2D8989CE
:1043F0000E94E42088E192E00E9461202DC1822F7A
:10440000807F09F054C0561314C0431312C0FE2C11
:10441000E1100FC02F70206120931D020E94242103
:1044200088E192E00E94612080911D02F80185835D
:104430005CC1CD2831F05F3F31F481E04F3F19F48A
:1044400003C081E001C080E080FD03C081E08E25D3
:1044500002C080E090E0F82FF170FF2E80FF1CC0BA
:104460008091E6012091E70136E0821709F41AC134
:1044700090E0389FF001399FF00D1124E851FE4F74
:104480006181561306C06081461303C06281E61243
:1044900003C001968770E9CFFE2CEE2009F425C1F8
:1044A00080911D02816080931D02F12C1EC1561364
:1044B00009C0431307C0E11005C080911D02F80137
:1044C0008583A4C04D875E878D859E850E94DF20F1
:1044D000882379F1EE2069F120911D02822F8295C7
:1044E0008F7090E0029774F08091180290911902F9
:1044F00098878F831986DB86CA862C87CE0107961C
:104500000E94612086E0F801A8E1B2E001900D92DE
:104510008A95E1F70E9432210E9424210DC056178E
:1045200071F04D875E878D859E850E94DF20811109
:104530001AC0C8010E946120FF24F394D6C043131F
:10454000F0CFE110EECF80911D02F8018583C80104
:104550000E94612086E0E8E1F2E0DF011D928A9589
:10456000E9F7FA2CC2C0EE2021F320911D02822F20
:1045700082958F7090E002972CF2809118029091B2
:1045800019029A8389831B82DD82CC822E83CE011D
:104590000196B6CFC816D90628F0F601E81BF90B2C
:1045A000CF0104C0809590958C0D9D1D883C910590
:1045B00048F0F12C7C2DD98AC88A6E2D89890E94F9
:1045C000E4204AC0FE2CEE2009F4B3CF561333C0CA
:1045D000431331C020911D0220FD24C0822F8295FB
:1045E0008F70482F50E041155105E1F0D801159624
:1045F0002C9315974F30510549F08F5F982F929566
:10460000907F822F8F70892B15968C93C8010E9402
:10461000612086E0F801A8E1B2E001900D928A9550
:10462000E1F73DC086E0F801A8E1B2E001900D920B
:104630008A95E1F75AC04D875E878D859E850E94D9
:10464000DF2081115FCF80911D02816080931D0268
:10465000C8010E94612049C0E8E1F2E086E0DF0184
:104660001D928A95E9F71BC0EE2009F462CF4D87B1
:104670005E878D859E850E94DF20F82E882309F4B1
:1046800058CF86E0F801A8E1B2E001900D928A953A
:10469000E1F788E192E00E94611C0E9432210E94B1
:1046A000242123C04D875E878D859E850E945D26CF
:1046B000292F22952F70223028F49F7039F0811114
:1046C00005C00BC0243028F49F7049F4805E883008
:1046D00020F0C8010E946120BF2CFB2C06C0D8012D
:1046E00015969C91907F91F7F8CF8F2D61960FB61C
:1046F000F894DEBF0FBECDBFDF91CF911F910F9118
:10470000FF90EF90DF90CF90BF90AF9008951F93F0
:10471000CF93DF93CDB7DEB72C970FB6F894DEBFFB
:104720000FBECDBF4F83588769877A878B879C8759
:10473000CE0107960E949A218823D1F09F81888517
:104740002A853B85232B31F08F3F31F481E09F3F59
:1047500019F403C081E001C080E080FD47C04F81B3
:10476000588569857A858B859C850E94F3203EC09B
:1047700086E0FE013796DE01119601900D928A9532
:10478000E1F7FF81E8856A857B856115710531F068
:10479000EF3F31F481E0FF3F19F403C081E001C035
:1047A00080E080FD23C02091E70130E0C90101963F
:1047B000877099274091E60150E084179507F1F141
:1047C000F983EA837D836C8396E0929FD001939F67
:1047D000B00D1124A851BE4FFE01319601900D92EB
:1047E0009A95E1F78093E7010E94032116E08091FA
:1047F000E6019091E701891771F1189FC00111241A
:1048000088519E4F0E949A21882329F1E091E60168
:104810001E9FF0011124E851FE4F408151816281B9
:104820007381848195810E94F3208091E60190E05C
:104830000196877099278093E601D9CF0E94B7200F
:104840001092E7011092E601E8E1F2E086E0DF0174
:104850001D928A95E9F72C960FB6F894DEBF0FBE2D
:10486000CDBFDF91CF911F910895EF92FF920F93EB
:104870001F93CF93DF938C01892B09F46CC0F12C2B
:10488000EE24E394E8012196F8018491843740F402
:10489000843008F051C0813081F0823019F15BC062
:1048A000853709F444C0A8F19CE7980F903708F0C9
:1048B00052C08F770E94851D41C00E5F1F4FFE01C1
:1048C000849190E2980F983050F48770FE2D01C0CB
:1048D000FF0F8A95EAF78F2F0E94BF2614C00E940F
:1048E000671C2DC00E5F1F4FFE01849190E2980F50
:1048F000983060F48770FE2D01C0FF0F8A95EAF7AB
:104900008F2F0E94C5260E94EA2619C00E94851D8D
:1049100016C00E5F1F4FFE01C491CC2381F08FE9BA
:104920009FE00197F1F700C00000C150F6CF0E5F85
:104930001F4FFE01F49003C00E94671C8E018F2D53
:10494000882309F49FCFEFE9FFE03197F1F700C02A
:1049500000008150F5CFDF91CF911F910F91FF9013
:10496000EF900895089508950C94B3240C94B42402
:104970000E94B62460934A0270934B0280934C02CB
:1049800090934D020C949D200C94B8240F931F9388
:1049900000914A0210914B0220914C0230914D023D
:1049A000602B712B822B932B1F910F910C94B824A9
:1049B0000F931F9300914A0210914B0220914C02D9
:1049C00030914D0260237123822393231F910F9115
:1049D0000C94B8240F931F9300914A0210914B023C
:1049E00020914C0230914D02602771278227932736
:1049F0001F910F910C94B8240C94B3240E94FC24B2
:104A00006093460270934702809348029093490254
:104A10000C949D2060E070E0CB010C94FE240F9379
:104A20001F9341E050E060E070E08A019B0104C008
:104A3000000F111F221F331F8A95D2F7C901B80139
:104A40001F910F910C94FE240F931F9341E050E0AF
:104A500060E070E004C0440F551F661F771F8A9501
:104A6000D2F78091460290914702A0914802B091FE
:104A700049028A019B01082B192B2A2B3B2BC901C8
:104A8000B8011F910F910C94FE240F931F9341E0E6
:104A900050E060E070E004C0440F551F661F771FB0
:104AA0008A95D2F740955095609570958091460211
:104AB00090914702A0914802B09149028A019B015E
:104AC000082319232A233B23C901B8011F910F9101
:104AD0000C94FE240F931F9341E050E060E070E0DF
:104AE00004C0440F551F661F771F8A95D2F7809127
:104AF000460290914702A0914802B09149028A0172
:104B00009B01082719272A273B27C901B8011F91B4
:104B10000F910C94FE240F931F9300914602109165
:104B200047022091480230914902602B712B822B61
:104B3000932B1F910F910C94FE240F931F930091C0
:104B400046021091470220914802309149026023A9
:104B50007123822393231F910F910C94FE240F93B2
:104B60001F93009146021091470220914802309114
:104B7000490260277127822793271F910F910C9478
:104B8000FE240895292F220F920F990F890FE82FE5
:104B9000E695E695E695877051E001C0550F8A9538
:104BA000EAF785E0E89FF0011124E25EFD4F20E086
:104BB00030E070E04081CB01022E02C096958795CF
:104BC0000A94E2F781708195842785238427819355
:104BD0002F5F3F4F2530310569F70895292F220FA8
:104BE000920F990F890F682F669566956695982F95
:104BF000977085E0689FB001112440E050E080E0AC
:104C0000FB01E40FF51FE25EFD4F208130E0092E2D
:104C100002C0369527950A94E2F721703327042EB7
:104C200001C0220F0A94EAF7822B4F5F5F4F453095
:104C3000510531F70895BF92CF92DF92EF92FF9224
:104C40000F931F93CF93DF938C01C0904602D090B7
:104C50004702E0904802F090490280914A02909108
:104C60004B02A0914C02B0914D02C82AD92AEA2ADF
:104C7000FB2ACFE1D0E0D701C6010C2E04C0B695C7
:104C8000A795979587950A94D2F780FD04C0219740
:104C900090F7B12C07C0BC2EB8018C2F0E949D0844
:104CA0000197A9F38B2DDF91CF911F910F91FF9069
:104CB000EF90DF90CF90BF900895CF93DF93EC01FA
:104CC0000E941B26BE010E949D08DF91CF9108958E
:104CD0001F93CF93DF93EB019091E501992321F08E
:104CE000CB010E945D2613C0882349F0CB010E94AE
:104CF0001B26182F682FCE010E94C22504C0CB01AD
:104D00000E94EE25182FBE01812F0E949D08DF9181
:104D1000CF911F91089580914E0285958595859537
:104D2000089580914E028770089590914E02977079
:104D300081E009F480E0089580915A0208959091ED
:104D40005A02892B80935A020895809590915A02B5
:104D5000892380935A02089510925A0208959091DF
:104D60005902892B80935902089580959091590298
:104D700089238093590208951092590208959091C1
:104D80005802892B8093580208958095909158027B
:104D900089238093580208951092580208958091B3
:104DA0004F02089508950C94D2260C94D326909126
:104DB0004F02981721F080934F020C94D526089546
:104DC00080914F02882329F010924F0280E00C94CA
:104DD000D5260895E0913301F091340180915A0273
:104DE0008083E0913301F0913401908180915902E8
:104DF000892B8083E0913301F0913401908180917F
:104E00005802892B808380914F02882381F0E091A2
:104E10003301F09134019081892B8083809133019B
:104E2000909134010E945B2881110E94E0268091BC
:104E30003301909134010C94BF1A0C94D22698E05F
:104E4000899F90011124262B20934E020E94242535
:104E500080914E028595859585950C941D2710921D
:104E60004E0280E00C941D2720914E0280958223F3
:104E700080934E02982F977079F430E0482F082ED7
:104E8000000C550B2417350739F0859585958595C8
:104E90000E9445250C942F270895909391018093AB
:104EA00090010895CF92DF92EF92FF926C01EE2471
:104EB000FF24C114D104E104F10421F0C701B601BB
:104EC00020E101C020E0C72ED82EE92EFF24C11416
:104ED000D104E104F10419F0285FC701B6016B01A8
:104EE0007C0154E0F694E794D794C7945A95D1F78F
:104EF000C114D104E104F10419F02C5FC701B6011B
:104F00006B017C0142E0F694E794D794C7944A95EC
:104F1000D1F7C114D104E104F10419F02E5FC701E7
:104F2000B601DC01CB01B695A79597958795892B9E
:104F30008A2B8B2B09F02F5F822FFF90EF90DF9051
:104F4000CF9008958295982F937344E0949F900199
:104F500011248C7C86958695282B822F8575880F49
:104F60002A7A2695822B089580E090E00E94923460
:104F700021E08C3E9E4F09F020E0822F089582E0D0
:104F800090E00C94843483E090E00C948434CF93CC
:104F900084E090E00E948434C82F81E290E00E9477
:104FA00084342C2F30E0A901582BCA01CF910895E9
:104FB000CF93C92F682F84E090E00E9498346C2F23
:104FC00081E290E0CF910C949834AB01BC018FE06A
:104FD00090E00C94AA34AB01BC0183E190E00C9406
:104FE000AA3460E070E0CB010C94EB2760E070E045
:104FF000CB010E94E5270C94F1276CEE7EEF80E058
:1050000090E00E94B63460E082E090E00E94983424
:1050100060E083E090E00E94983410924A0210927F
:105020004B0210924C0210924D0260E084E090E03E
:105030000E94983460E081E290E00E94983460E041
:1050400085E090E00E94983460E086E090E00E9465
:1050500098346FEF87E090E00E94983440E050E091
:10506000BA0188E090E00E94AA3460E08DE090E010
:105070000E94983440E050E0BA0188E190E00E943C
:10508000AA3460E087E190E00E94983440E050E06C
:10509000BA018CE190E00E94AA3460E080E290E0E6
:1050A0000E9498340C94F6270C94FD27682F8EE00C
:1050B00090E00C949834FC01329697E080E0915097
:1050C00029F021912223D9F38F5FF9CF08959C0114
:1050D000FC0132969FEF80E04191461789F09F3F97
:1050E00019F4411101C0982F8F5F8630A9F79F3FB7
:1050F00039F0F901E90FF11D97FDFA9562830895E2
:1051000008959C012A5F3F4FFC014281461301C074
:105110001282019682179307B9F708950C946728B5
:105120000C948128029626E0FC0111922A95E9F759
:10513000089508950C9499280C949928CF930E946F
:105140009C280E94CC0C0E949A28C0E08C2F0E94C0
:10515000370B811104C0CF5FCA30C1F701C081E0B5
:10516000CF9108950C9499280C94B2280E94B428E9
:105170008091AC02843049F110925C0220E488E115
:1051800090E00FB6F894A895809360000FBE20932E
:10519000600080E00E9456070E94B42883B7817F98
:1051A000846083BF83B7816083BF7894889583B719
:1051B0008E7F83BF0FB6F894A895809160008861B8
:1051C00080936000109260000FBE08950C9499289F
:1051D0000E94B7200E94B31A0E9456070C94E6283A
:1051E0001F920F920FB60F9211248F939F93AF933C
:1051F000BF9380915C02811113C08091A2029091B3
:10520000A302A091A402B091A5024196A11DB11DD7
:105210008093A2029093A302A093A402B093A5024C
:10522000BF91AF919F918F910F900FBE0F901F90E4
:10523000189582E084BD93E095BD9AEF97BD809369
:105240006E0008952FB7F8948091A2029091A30266
:10525000A091A402B091A5022FBF0895CF92DF9232
:10526000EF92FF920F931F932FB7F8944091A202F1
:105270005091A3026091A4027091A5022FBF6A0110
:105280007B01EE24FF248C0120E030E0C016D10623
:10529000E206F30610F4415051099A01281B390B1C
:1052A000C9011F910F91FF90EF90DF90CF9008956B
:1052B00078941F920F920FB60F9211248F939F93A1
:1052C000AF93BF938091A2029091A302A091A402F8
:1052D000B091A5020196A11DB11D8093A2029093E9
:1052E000A302A093A402B093A502BF91AF919F9196
:1052F0008F910F900FBE0F901F90189581E08093B3
:10530000E00080E28093D8001092C9008FE19EE413
:105310000197F1F700C0000087E090EBDC0180937B
:10532000B5029093B602A093B702B093B8029CE086
:1053300088E10FB6F894A895809360000FBE909313
:105340006000FFCF0E94B427811102C00E94542840
:105350000E94BF2780935B020E94C7279093A702F9
:105360008093A6020E94C327682F70E080E090E03F
:105370000C94C4248091600280FF0BC060913801BE
:1053800085E0689FB00111247595679575956795BF
:105390002BC081FF09C06091380185E0689FB00192
:1053A00011247595679520C082FF07C06091380170
:1053B00085E0689FB001112417C090915F02992386
:1053C000D1F060913701961788F72091380185E078
:1053D000289F90011124929FA001939F500D1124AA
:1053E00070E0CA010E945D346038710540F46115B7
:1053F000710519F406C065E070E0862F08958FE707
:10540000089581E008958091600280FF08C0609156
:10541000360170E0759567957595679521C081FF98
:1054200006C06091360170E07595679519C082FFDE
:1054300004C06091360170E010C090915F02992322
:1054400099F0609135019617A0F780913601899FF8
:10545000C001112470E00E945D346038710540F491
:105460006115710519F406C061E070E0862F08959A
:105470008FE7089581E00895803F21F40E94BA29C2
:10548000819504C0813F29F40E94BA298093640267
:105490000895823F21F40E94BA29819504C0833F78
:1054A00029F40E94BA29809363020895893F19F470
:1054B0000E94032A05C08A3F31F40E94032A819585
:1054C0008093650208958B3F21F40E94032A819501
:1054D00004C08C3F29F40E94032A80936602089539
:1054E000843F21F480916202816017C0853F21F4DE
:1054F00080916202826011C0863F21F48091620235
:1055000084600BC0873F21F480916202886005C0EF
:10551000883F31F480916202806180936202089535
:105520008D3F21F48091600281600BC08E3F21F499
:1055300080916002826005C08F3F29F480916002F3
:105540008460809360020895803F39F48091640202
:1055500087FF6CC01092640269C0813F29F480917A
:1055600064021816BCF362C090916302823F29F472
:1055700097FF5CC01092630259C0833F19F419165B
:10558000CCF354C0893F41F48091650218160CF0A9
:105590004DC0109265024AC08A3F29F4809165028D
:1055A00087FF44C0F6CF8B3F39F48091660287FFB6
:1055B0003DC0109266023AC08C3F29F48091660289
:1055C0001816BCF333C0843F21F4809162028E7FB1
:1055D00017C0853F21F4809162028D7F11C0863F04
:1055E00021F4809162028B7F0BC0873F21F4809170
:1055F0006202877F05C0883F31F4809162028F7E0E
:105600008093620213C08D3F21F4809160028E7FEF
:105610000BC08E3F21F4809160028D7F05C08F3FCB
:1056200029F4809160028B7F8093600280916302F5
:1056300081110EC08091640281110AC080916502BF
:10564000811106C080916602811102C010925F0232
:10565000089580915B0283FF7EC088EF98E00E94EE
:10566000BD05809162021F928F9383EF98E09F9314
:105670008F930E94560681EF98E00E94BD058091AD
:105680006302282F082E000C330B3F938F938EEE6E
:1056900098E09F938F930E9456068CEE98E00E94AC
:1056A000BD0580916402282F082E000C330B3F9318
:1056B0008F9389EE98E09F938F930E94560687EE12
:1056C00098E00E94BD0580916502282F082E000CED
:1056D000330B3F938F9384EE98E09F938F930E94B8
:1056E000560682EE98E00E94BD0580916602282F42
:1056F000082E000C330B3F938F938FED98E09F9310
:105700008F930E9456068CED98E00E94BD05809113
:105710005F021F928F9389ED98E09F938F930E9471
:10572000560687ED98E00E94BD05809160021F92A9
:105730008F9384ED98E09F938F930E94560681ED9E
:1057400098E00E94BD058DB79EB74C960FB6F894B1
:105750009EBF0FBE8DBF81E692E00E94081B0E9493
:10576000222990935E0280935D0208951F93CF9348
:10577000DF9380915D0290915E020E942E29AC0120
:1057800090915F02992321F02091390130E006C009
:1057900020913A018AE0289F900111244217530773
:1057A00008F47BC080916302C0916402D0916502CD
:1057B00010916602811107C0C1116BC0D11169C07F
:1057C000111167C06AC09F3F19F09F5F90935F02FD
:1057D000181624F40E94BA29809363028091630210
:1057E00087FF05C00E94BA298195809363021C1629
:1057F00024F40E94BA29809364028091640287FF96
:1058000005C00E94BA298195809364023091630299
:105810003323E1F0209164022223C1F045EB3403ED
:10582000C0011124992319F09093630203C081E011
:105830008093630235EB2303C0011124992319F0EF
:105840009093640203C081E0809364021D1624F4E7
:105850000E94032A809365028091650287FF05C03C
:105860000E94032A819580936502111624F40E94F8
:10587000032A809366028091660287FF05C00E941A
:10588000032A819580936602DF91CF911F910C943A
:10589000292B9F3F09F099CFAACFDF91CF911F917C
:1058A0000895E1E6F2E086E0DF011D928A95E9F7CE
:1058B00010925F0210926002089580917202089522
:1058C0009FB7F894109269029FBF9091AC029430F8
:1058D00009F057C09091E9009F703091EC00232FA0
:1058E000217030FD20E8922B23E02093E9002091E5
:1058F000EB0020FF43C02091EE0027FF3FC0209126
:105900006702222321F02091E80025FF37C0109282
:10591000670226E03091E80035FD15C03091AC02F9
:10592000343061F53091EB0035FD28C0215021F471
:1059300081E08093670222C0EFE9FFE03197F1F741
:1059400000C00000E7CF8093F1008091E80085FD62
:105950000AC08091E80080FFFCCF8091E8008E773C
:105960008093E80006C08FB7F89421E02093690285
:105970008FBF9F709093E90080E008959F7090938F
:10598000E9008FEF08950F931F93CF93DF9300D01B
:105990001F92CDB7DEB78C010E94752F823011F0B7
:1059A000843021F584E089831B830A8382E080931D
:1059B000E9008FEF9091E800815095FD06C095EDCC
:1059C0009A95F1F700008111F5CF8091E80085FFED
:1059D0000DC040E050E063E070E0CE0101960E940F
:1059E000922F8091E8008E778093E8000F900F90BF
:1059F0000F90DF91CF911F910F910895CF93DF9377
:105A000000D01F92CDB7DEB72091AC02243031F523
:105A100023E02983805891099B838A8382E08093C5
:105A2000E9008FEF9091E800815095FD06C095ED5B
:105A30009A95F1F700008111F5CF8091E80085FF7C
:105A40000DC040E050E063E070E0CE0101960E949E
:105A5000922F8091E8008E778093E8000F900F904E
:105A60000F90DF91CF910895CF93DF93EC010E94C7
:105A7000752F823011F08430F9F482E08093E900D0
:105A80008FEF9091E800815095FD06C095ED9A95B5
:105A9000F1F700008111F5CF8091E80085FF0CC07F
:105AA00040E050E066E070E0CE010E94922F8091CD
:105AB000E8008E778093E800DF91CF910895CF932F
:105AC000DF93EC010E94752F823011F0843039F59C
:105AD00081E08093E9008FEF9091E800815095FD7F
