:100000000C942F030C94C8260C9476030C9476035E
:100010000C9476030C9476030C9476030C9476037C
:100020000C9476030C9476030C944A190C9486185D
:100030000C94701C0C9476030C9476030C94760349
:100040000C9476030C9476030C9476030C9476034C
:100050000C9476030C94FE1B0C9476030C9476039C
:100060000C9476030C9476030C9476030C9476032C
:100070000C9476030C9476030C9476030C9476031C
:100080000C9476030C9476030C9476030C9476030C
:100090000C9476030C9476030C9476030C947603FC
:1000A0000C9476030C9476030C947603450645066F
:1000B0007F067F06D206EE06B708B70830070E089F
:1000C0001F081F08EC0826092B09300935093A09D1
:1000D0003F09440949094E0953096A096D09700924
:1000E0007309760979097C097F0994099516BC166C
:1000F0005E18BC165E18041727175E1822183518EC
:10010000DA22DA22ED22ED22E322ED22ED22ED22A7
:10011000DA22DA22E822ED22ED22E82235431E001F
:100120001F002000210022002B0014001A000800EC
:1001300015001700290004001600070009000A0036
:100140002F621D001B0006001900050000000000C2
:100150002D61E3002E74AE002A0027002600250042
:10016000240023003100130012000C0018001C00B2
:10017000340033000F000E000D000B003042380039
:100180003700360010001100000000004C722800FB
:100190002C410000010001000100010001002602C5
:1001A00001003D043D01010001002F000100500944
:1001B00001004F0901000100010001004C0149014B
:1001C00049022F02000000000100010001000100AF
:1001D00049002E002D000100010027024C002E02D4
:1001E0002D020100010030004B004A004F00520078
:1001F000510050004E004D0001000100650030022A
:1002000000000000010001000100010045003A006B
:100210003B003C003D003E00C25C010001000100CB
:1002200001000100C35C01000100010001000100A8
:10023000C45CAC00AB00B200010001000000000093
:1002400001000100010001004400430042004100A0
:1002500040003F00010046000100010001000100D4
:100260003900C95CC75CC55C010001000100CA5CC3
:10027000C85CC65C01000100000000000100010034
:100280000100010001000100010001000100010066
:100290000100010001000100010001000100010056
:1002A0000100010001000100010001000100010046
:1002B0000100010000000000010001000100010038
:1002C0000100010001000100010001000100010026
:1002D0000100010001000100010001000100010016
:1002E0000100010001000100010001000100010006
:1002F00000000000010001000100010000010101F7
:1003000001010101010102020202020202020203D2
:1003100003030303030303040404040404040505A2
:100320000505050606060606070707070708080865
:1003300008090909090A0A0A0B0B0B0C0C0C0D0D14
:100340000D0E0E0E0F0F0F101011111112121313AC
:100350001414151516161717181819191A1A1B1B25
:100360001C1D1D1E1E1F2020212222232424252681
:1003700026272829292A2B2C2D2D2E2F30313232B9
:10038000333435363738393A3B3C3D3E3F404142C5
:10039000434445464748494A4C4D4E4F50515354AB
:1003A000555658595A5B5D5E5F616264656668695F
:1003B0006B6C6D6F7072737577787A7B7D7E8082DF
:1003C000838587888A8C8E8F91939596989A9C9E28
:1003D000A0A2A3A5A7A9ABADAFB1B3B5B7BABCBE38
:1003E000C0C2C4C6C9CBCDCFD1D4D6D8DBDDDFE205
:1003F000E4E7E9EBEEF0F3F5F8FAFDFFFFAA7F552D
:100400004000047F3F1F643214643214783C1E1E87
:10041000140A0505010902A10185020901A10005CF
:100420000919012905150025019505750181029518
:1004300001750381010501093009311581257F9579
:10044000027508810609381581257F950175088197
:1004500006050C0A38021581257F9501750881066D
:10046000C0C005010980A10185031A81002A83000B
:10047000160100260300950175108100C0050C09C6
:1004800001A10185041A01002A9C02160100269C84
:1004900002950175108100C005010906A10105073B
:1004A00019E029E7150025019508750181029501DC
:1004B000750881010507190029FF150026FF009521
:1004C0000675088100050819012905950575019132
:1004D00002950175039101C009023B00020100A0D1
:1004E000FA090400000103010100092111010001C2
:1004F0002240000705810308000A090401000103E6
:100500000000000921110100012285000705820376
:1005100020000A120110010000000810CB56120042
:1005200004010203010403300000001C03490072AF
:10053000006900730020004B006500790062006FC5
:100540000061007200640000000E034B006500654E
:1005500000620069006F00000004030904222325E3
:100560002628292A2C2D2F3032333536383A3B3D78
:100570003E4042434547494A4C4E505153555759C6
:100580005A5C5E6062646668696B6D6F71737577E3
:10059000797B7D7F81838587898A8C8E90929496E2
:1005A000989A9C9E9FA1A3A5A7A8AAACAEAFB1B3F1
:1005B000B4B6B8B9BBBCBEBFC1C2C3C5C6C7C9CA41
:1005C000CBCCCDCED0D1D2D2D3D4D5D6D7D7D8D903
:1005D000D9DADADBDBDBDCDCDCDCDCDDDDDDDDDC61
:1005E000DCDCDCDCDBDBDBDADAD9D9D8D7D7D6D573
:1005F000D4D3D2D2D1D0CECDCCCBCAC9C7C6C5C335
:10060000C2C1BFBEBCBBB9B8B6B4B3B1AFAEACAA81
:10061000A8A7A5A3A19F9E9C9A98969492908E8C31
:100620008A89878583817F7D7B79777573716F6D0B
:100630006B6968666462605E5C5A595755535150E5
:100640004E4C4A4947454342403E3D3B3A38363599
:100650003332302F2D2C2A2928262523220011243D
:100660001FBECFEFDAE0DEBFCDBF04B603FE27C06A
:100670008091CB029091CC02A091CD02B091CE029C
:100680008730904BA740B04BD1F41092CB02109220
:10069000CC021092CD021092CE0214BE84B7877F96
:1006A00084BF0FB6F894A89580916000886180930C
:1006B0006000109260000FBEE0E0F8E3099522E0D0
:1006C000A8EAB1E001C01D92AB3CB207E1F711E02E
:1006D000A0E0B1E0E4EFF0E502C005900D92A83A89
:1006E000B107D9F70E947A110C9478280C94000075
:1006F0008F929F92AF92BF92CF92DF92EF92FF9232
:100700000F931F93CF93DF9300D000D01F92CDB7EC
:10071000DEB7FC010081D18083819481892B39F07F
:100720001FEFD11206C091E00F3F19F403C091E012
:1007300001C090E090FD0DC67F0185E0DE011196BD
:1007400001900D928A95E1F7F701228189819A81C2
:10075000222349F00E94671D182F682F89819A81F2
:100760000E94E11D03C00E94B41D182F2CE3129FAC
:10077000F001112436E0D39EE00DF11D1124E00FAD
:10078000F11DEE0FFF1FE45EFE4F05911491809165
:10079000860283FF24C0F7018281882301F105339B
:1007A000F3E41F0709F463C0D0908D0210928D020C
:1007B00081E00E94F2248CE20E948B258CE20E9450
:1007C000242581E00E94E724D0928D022FEF30E7AC
:1007D00082E0215030408040E1F700C00000033F3C
:1007E0009CE51907A9F180F4083DFCE51F07C9F055
:1007F000093D2CE51207C1F1073D3CE51307B9F5AA
:1008000026E241EE61EE10C0053F8CE5180741F18C
:1008100018F1063FECE51E0751F527E245EE66EEBE
:1008200003C027E245EE65EEC7010F900F900F90D1
:100830000F900F90DF91CF911F910F91FF90EF904C
:10084000DF90CF90BF90AF909F908F900C944821F5
:1008500026E241EE60EEE8CF27E245EE64EEE4CF1B
:1008600026E241EE62EEE0CF28E241E0DCCFF70184
:100870009281992309F44FC11092A8010230FCE53E
:100880001F0708F432C106312CE5120738F0980131
:100890002A5F3C452930310508F027C10E94C01C61
:1008A0009093D2018093D10100313CE5130709F404
:1008B000C3C008F041C008309CE5190709F49AC08C
:1008C000F0F40430FCE51F0709F487C068F4023037
:1008D0003CE5130709F477C003301C4509F0E5C077
:1008E0008091D101826076C006309CE5190709F439
:1008F0006EC008F07BC08091D10188606BC00C3065
:10090000FCE51F0709F485C068F40A303CE51307CD
:1009100009F474C008F079C00E94DC248091D101F0
:10092000806858C00E309CE5190709F476C008F0BD
:100930007FC08091D1018BC00B3FFCE51F0709F4FC
:100940004FC018F503313CE5130709F47DC078F476
:1009500001319CE5190709F473C002311C4509F007
:10096000A4C00E94DC248091D1018F7733C005316F
:10097000FCE51F0709F472C008F486C00A3F1C4555
:1009800009F093C08091D2013EC00F3F8CE518075B
:1009900009F45FC058F40D3FECE51E0709F444C0AC
:1009A00008F43FC08091D20182602DC001302DE556
:1009B000120709F475C008F45DC002301D4509F046
:1009C00074C060E06EC08091D101816003C08091ED
:1009D000D10180618093D10168C08091D10111C0A3
:1009E0008091D20182608093D2015FC08091D10159
:1009F0008062F0CF8091D1018064ECCF8091D101F1
:100A000088608460E7CF8160EECF8091D1018E7FD6
:100A1000E1CF8091D1018D7FDDCF8091D101877FA2
:100A2000D9CF8091D20118C08091D2018D7FDBCFC8
:100A30008091D1018F7ECECF8091D1018F7DCACFA1
:100A40008091D1018F7BC6CF8091D101877F8B7F31
:100A5000C1CF8091D2018D7F8E7FC5CF8091D10192
:100A600082FB222720F991E0922790FB82F990FBEC
:100A700083F9B0CF8091D201982F909591708E7F9D
:100A8000892B90FB81F9AFCF0E94DC248091D101AA
:100A900087FB222720F991E0922790FB87F99ACFD4
:100AA00061E08EE090E00E94EF276091D10110910B
:100AB000D20184E090E00E94EF27612F81E290E074
:100AC0000E94EF270F900F900F900F900F90DF91E3
:100AD000CF911F910F91FF90EF90DF90CF90BF903B
:100AE000AF909F908F900C94DC240631FCE51F079B
:100AF000A1F580918D028A7A91E009F490E09093BB
:100B0000A901882311F065E301C069E28EE192E05A
:100B10000E94A61C0FC00631FCE51F0709F067C044
:100B20008091A901882309F451C365E38EE192E025
:100B30000E94991C0F900F900F900F900F90DF91D3
:100B4000CF911F910F91FF90EF90DF90CF90BF90CA
:100B5000AF909F908F900C943A1D01152CE51207D1
:100B6000B9F00E3D1C4509F04CC00F900F900F904E
:100B70000F900F90DF91CF911F910F91FF90EF9009
:100B8000DF90CF90BF90AF909F908F900C94D11C2E
:100B90000E94DC248FEF94E3ECE081509040E04031
:100BA000E1F700C0000081E08093E00080E28093E4
:100BB000D8001092C9008FE19EE40197F1F700C0C0
:100BC000000087E090EBDC018093CB029093CC0295
:100BD000A093CD02B093CE029CE088E10FB6F894CA
:100BE000A895809360000FBE90936000FFCF809126
:100BF0008D028272F801E25CFC45E431F10508F4F3
:100C0000E7C2F70100811181992349F0C8010E94D0
:100C1000671DD82E682FC8010E94E11D04C0C801BD
:100C20000E94B41DD82EB8018D2D0E94690C8C0134
:100C3000982EF701A580A2949FE0A922D280D1101E
:100C400010928C0280918A02877079F0DD2069F021
:100C500080E2800F883048F082E00E943C1E809144
:100C60008A028770CC24C3948111C12CB12EB29416
:100C70008FE0B8228B2D90E08C30910508F077C280
:100C8000FC01EA5AFF4F0C945928812F807F1F7076
:100C9000882311F01295107FDD20B9F0112309F49B
:100CA00051C280E2800F883010F0911006C0809110
:100CB0008D02182B10938D0205C080918C02182B89
:100CC00010938C020E943A1D3DC2802F0E94242561
:100CD000112309F44CC2005E1095083010F09110F9
:100CE00006C080918D02182310938D0205C080915B
:100CF0008C02182310938C020E943A1D38C2812F57
:100D0000807F1F70803211F01295107F992021F0A2
:100D1000F1E09F16E1F02AC0DD2081F080918E0283
:100D2000AA2051F001E0A01207C0182B181709F4EF
:100D30001EC210938E021BC2812B10C0AA2021F06C
:100D400021E0A21609F413C20E94341D27C0DD2041
:100D500041F035E03A1508F40AC2812F0E940725B8
:100D600006C284E08A1508F402C218C0DD2049F0EA
:100D7000AA2099F3F701858180FFE4C18F708583F4
:100D8000ECCFAA2059F0093309F0EEC1FFEF17EEBE
:100D900023E0F15010402040E1F7E4C1812F0E9490
:100DA000FC24E5C1812F86958695837019F08130EA
:100DB00059F0DDC1DD2019F0C801937002C080E058
:100DC00090E00E942621D9C1DD2019F0C80193705E
:100DD00002C080E090E00E941021CFC1DD20F9F038
:100DE000053F51F0063F71F0043FA9F48091AA013C
:100DF0009091AB0181600BC08091AA019091AB01F1
:100E0000826005C08091AA019091AB0184609093AB
:100E1000AB018093AA01802F0E94961B1EC0053F44
:100E200051F0063F71F0043FA9F48091AA0190911E
:100E3000AB018E7F0BC08091AA019091AB018D7F99
:100E400005C08091AA019091AB018B7F9093AB017B
:100E50008093AA01802F0E94CF1A0E945A1C8DC134
:100E6000812F837009F069C0D11085C1902F9295B0
:100E700096959770990F990F802F8F70882E912CCF
:100E8000A12CB12C092E04C0880C991CAA1CBB1CD7
:100E90000A94D2F704FF12C04FE050E060E070E027
:100EA00004C0440F551F661F771F9A95D2F7DB01C8
:100EB000CA0180959095A095B09503C080E090E020
:100EC000DC0116951695412F4370423019F1C8F494
:100ED00000918F0210919002209191023091920224
:100EE000413059F088299929AA29BB29BC01CD0193
:100EF00060237123822393230AC0802A912AA22A85
:100F0000B32ABC01CD01682979298A299B290E942D
:100F1000761E31C188299929AA29BB2900918F02FF
:100F2000109190022091910230919202BC01CD016A
:100F30006027712782279327EACFDD2019F0812FC0
:100F4000817001C08695882309F415C1902F929570
:100F500096959770990F990F802F8F70882E912CEE
:100F6000A12CB12C092E04C0880C991CAA1CBB1CF6
:100F70000A94D2F704FF12C04FE050E060E070E046
:100F800004C0440F551F661F771F9A95D2F7DB01E7
:100F9000CA0180959095A095B09503C080E090E03F
:100FA000DC0116951695412F43704230D9F068F553
:100FB0000091860210918702209188023091890267
:100FC000413059F088299929AA29BB29BC01CD01B2
:100FD00060237123822393231EC0802A912AA22A90
:100FE000B32A13C088299929AA29BB29009186020E
:100FF000109187022091880230918902BC01CD01B5
:10100000602771278227932706C0BC01CD0168297C
:1010100079298A299B290E940D1EADC01F70DD20F1
:1010200039F0812F0E94551E802F0E940725A3C0F2
:10103000802F0E94FC24812F0E94171E9CC0802FAD
:1010400032EF931609F440C0391538F090EF991635
:1010500061F0E1EF9E1699F170C0F3EF9F16D9F1A0
:1010600024EF921609F44EC068C0DD2019F134E077
:101070003A1508F47CC01F7181E090E0A0E0B0E078
:10108000AC01BD0104C0440F551F661F771F1A95A0
:10109000D2F78091860290918702A0918802B09148
:1010A00089028A019B01082719272A273B27C901A2
:1010B000B80125C025E02A1508F459C0DCCFDD2091
:1010C00029F0812F8F712CC0DD20D9F3812F8F71F2
:1010D0000E94171E4CC0DD2079F01F7181E090E066
:1010E000A0E0B0E0BC01CD0104C0660F771F881FEF
:1010F000991F1A95D2F703C060E070E0CB010E94FF
:101100000D1E35C0DD2079F01F71812F0E94551E04
:1011100038E0139FC0011124836080938A02812FDD
:101120000E94551E24C081E00E943C1E81E08A1569
:10113000F0F482E00E943C1E1AC0DD2039F0AA20A3
:1011400009F4BFCF802F0E948B2511C0AA2009F47B
:10115000BDCF893349F49FEFE7EEF3E09150E040D3
:10116000F040E1F700C00000802F0E94242588EFA6
:101170008B0D843010F40E943C21CC2009F4E9C08E
:1011800080918A0280FDE5C0F701128285958595E0
:1011900085950E94551EC7010E94780380918A029E
:1011A0008595859585950F900F900F900F900F90D6
:1011B000DF91CF911F910F91FF90EF90DF90CF9033
:1011C000BF90AF909F908F900C94171E69E2AECCA9
:1011D000EE59FF4F0C9459288091EA0180FF30C0EE
:1011E0008E7F8093EA016091EA017091EB0180911A
:1011F000EC019091ED010E94650A0E943E228091CF
:10120000F10181608093F1019FEFE0E7F2E09150FE
:10121000E040F040E1F700C000000F900F900F9009
:101220000F900F90DF91CF911F910F91FF90EF9052
:10123000DF90CF90BF90AF909F908F900C94FE095D
:1012400081608093EA0161E0869570C043EC5EE0C6
:101250006CEC7EE02CC04CEC5EE063EC7EE027C0E2
:101260004AE35CE063E47CE022C043E45CE06AE3E0
:101270007CE01DC042E25CE06EE27CE018C04EE221
:101280005CE062E27CE013C04AE05CE066E17CE0A6
:101290000EC046E15CE06AE07CE009C047E75AE046
:1012A00068E87AE004C048E85AE067E77AE00F901F
:1012B0000F900F900F900F90DF91CF911F910F9192
:1012C000FF90EF90DF90CF90BF90AF909F908F9066
:1012D0000C94382261E081E029C065E082E011C011
:1012E00068E086E00EC06EE089E00BC064E18FE04C
:1012F00008C067E185E105C061E088E117C062E2EE
:1013000089E10F900F900F900F900F90DF91CF9188
:101310001F910F91FF90EF90DF90CF90BF90AF9013
:101320009F908F900C94262261E083E20F900F90A3
:101330000F900F900F90DF91CF911F910F91FF9021
:10134000EF90DF90CF90BF90AF909F908F900C94D4
:10135000830E0F900F900F900F900F90DF91CF9111
:101360001F910F91FF90EF90DF90CF90BF90AF90C3
:101370009F908F9008959091D10192FF0DC0282FDA
:101380002871283019F4877F846006C0282F2471C3
:10139000243011F48B7F886093FF0DC0282F2871B3
:1013A000283119F4877E846106C0282F24712431E6
:1013B00011F48B7E88612091D20120FF0DC0382F5F
:1013C0003871383019F4877F816006C0382F317149
:1013D000313011F48E7F886021FF0DC0282F2871D5
:1013E000283119F4877E816106C0282F21712131AF
:1013F00011F48E7E886194FD877E089530910001FE
:101400008091EA0180FF16C0E091C10163E0E69F90
:10141000F0011124E556FD4F569A8BB18F7B9BB19D
:1014200090642FB7F894AF0163E0369F400D511DD3
:1014300011240BC0EBE9F2E0118210821282339684
:1014400082E0EF3BF807C1F7DFCFE417F50789F03B
:10145000319168E09BB9000000C037FF8BB9330FB2
:10146000000000C000C000C08BB900C06A9591F7B1
:10147000ECCF2FBF87EC90E00197F1F700C00000A0
:1014800008959091EA0190FF0CC0EBE9F2E08183AE
:1014900060834283339692E0EF3BF907C1F70C94E7
:1014A000FE0908958091EA01282F269530E0211544
:1014B000310519F48170826005C02532310524F0B0
:1014C000817088648093EA010895CF92DF92EF9251
:1014D000FF926B017C010E94520AB701A60188E0CD
:1014E00090E0FF90EF90DF90CF900C9401288091D6
:1014F000EE01882319F081508093EE016091EA019A
:101500007091EB018091EC019091ED010C94650AD2
:101510008091EE01833018F48F5F8093EE0160912B
:10152000EA017091EB018091EC019091ED010C9436
:10153000650AEAEEF1E083E0808311828FEF828317
:1015400083831482AFEEB1E012968C911297836080
:1015500012968C9360817181828193810C94650ACB
:10156000BF92CF92DF92EF92FF920F931F93CF9390
:10157000DF93E82EF62EE901E42FF0E0611106C0BA
:10158000E450FD4F8491B82EE82F71C0262F30E033
:10159000E450FD4FE491FE2FCE2ED12C46E0849FE7
:1015A000C00111240FEF10E0B8010E9431284BEA6E
:1015B0004603C001479F900D11248E0D911D8E0D85
:1015C000911D982F990F890FD801A21BB30BAC9DC9
:1015D000A001AD9D500DBC9D500D1124B52EF89E5F
:1015E000D0011124AB2FBB277801EA1AFB0AEC9C2F
:1015F000D001ED9CB00DFC9CB00D11247801E81ACF
:10160000F108E29EC001E39E900DF29E900D112420
:10161000892F9927081B190B0C9D90010D9D300DEA
:101620001C9D300D1124832F6230710591F048F418
:1016300061157105E1F061307105B9F48E2FEB2F62
:1016400016C06430710569F040F06630710579F0BC
:101650000CC08E2FE52FB32E0AC0E52FBF2E8B2F87
:1016600006C0852FBE2EE32F02C0852FBB2EE98337
:101670008883BA82DF91CF911F910F91FF90EF90F5
:10168000DF90CF90BF900895CF93DF9300D01F924B
:10169000CDB7DEB79091EA0190FF0AC09E012F5F9F
:1016A0003F4F0E94B00A4B8169818A810E94410AA2
:1016B0000F900F900F90DF91CF9108955F926F92EE
:1016C0007F928F929F92AF92BF92CF92DF92EF92D2
:1016D000FF920F931F93CF93DF9300D01F92CDB74C
:1016E000DEB7182F762E042F622E9091EA0190FF1C
:1016F0007EC0E92FE695AE2FB0E0AE5BBE4F8C9179
:101700008093EF019E7F923061F49E012F5F3F4FE7
:10171000812F0E94B00A4B8169818A810E94410A0F
:1017200043C0823019F40091ED013EC0863019F4B7
:101730001091EB0139C08930D9F38931A9F5E9510C
:101740008E2F8170582EE695F0E0E450FC4FA59066
:10175000B4908BE9C82E82E0D82EE12CF12CBB246A
:101760009CE0892E912CAE9CC001AF9C900DBE9C3C
:10177000900D1124B4010E943128812F511002C014
:10178000860F01C0861B9601402F672D0E94B00A6C
:101790008FEFE81AF80A83E0C80ED11C8CE0E81637
:1017A000F10409F70E94FE098091EB01181308C0AB
:1017B0008091EC01781204C08091ED01081729F0A6
:1017C0008091F10182608093F1011093EB0170929E
:1017D000EC010093ED01662051F06091EA017091F7
:1017E000EB018091EC019091ED010E94650A0F9050
:1017F0000F900F90DF91CF911F910F91FF90EF907D
:10180000DF90CF90BF90AF909F908F907F906F9020
:101810005F900895EAEEF1E0438128E0421B08F46E
:1018200040E021E0628181810C945E0BEAEEF1E000
:10183000438128E0420F08F44FEF21E0628181816B
:101840000C945E0BEAEEF1E0628128E0621B08F482
:1018500060E021E0438181810C945E0BEAEEF1E0CF
:10186000628128E0620F08F46FEF21E043818181FB
:101870000C945E0BEAEEF1E0818121E0438162810C
:1018800088500C945E0BEAEEF1E0818121E0438107
:101890006281885F0C945E0B8091B001811112C04F
:1018A0008091D80080618093D8008AE18A95F1F711
:1018B00000C08091D90080FD02C082E001C081E0BB
:1018C0008093B00181E09091B001913009F080E007
:1018D0000895CF93DF932CE3829FC0011124FC0174
:1018E00046E0749FE00DF11D1124E60FF11DEE0F8F
:1018F000FF1FE45EFE4FC591D491CE01C238D105E1
:1019000069F1B0F4C133D10509F475C048F4C932A6
:10191000D10509F469C0CA32D10509F473C085C084
:10192000C533D10509F459C0C933D105B9F07DC01B
:10193000C33ED10571F138F4C03ED105B1F0C23ECD
:10194000D10511F172C0C63ED105B9F1C73ED1052E
:10195000C9F1C43ED10509F068C024C02091D1016D
:1019600020FD5DC021FD5BC060C02091D10120FD44
:1019700050C02091D20120FF51C18091D10184FD3E
:101980004BC183EE90E04AC12091D10122FF46C1B4
:10199000F4CF8091D10182FD3FC08091D20180FDC2
:1019A0003EC0EBCF2091D20121FF38C18091D101FF
:1019B00084FD32C187EE90E031C12091D10123FF37
:1019C0002DC1F4CF8091D10183FD2CC08091D20133
:1019D00081FFECCF84EE90E021C12091D10125FF61
:1019E0001DC189E290E01AC12091D10125FF16C1E5
:1019F00085E390E013C12091D10126FF0FC18AE257
:101A000090E00CC12091D10126FF08C181E390E054
:101A100005C189E390E002C182EE90E0FFC080EE54
:101A200090E0FCC086EE90E0F9C0C11551E5D50705
:101A300008F06CC0C11520E5D207F0F0CE01F4E04B
:101A400096958795FA95E1F7282F23703C2F3370F0
:101A500081E090E002C0880F991F3A95E2F79C68F8
:101A6000922B2C2F2F702695269550E2259F9001C2
:101A70001124822B932BD2C0C83ED10570F5C03EF5
:101A8000D10508F0CBC0C83AD105B8F4C53AD105A4
:101A900050F02C2F255AC22FD0E0C958DE4F888134
:101AA00090E09064BBC0C130D10509F4B7C008F420
:101AB000B3C0249708F4B0C0B1C0CF3BD10508F043
:101AC000ABC02C2F285AC22FD0E0CC0FDD1FC65838
:101AD000DE4F888199819464A1C0C11540E2D4078A
:101AE00060F4C11551E0D50708F098C0C03FD1059A
:101AF00008F492C0CE01906591C0C11580E4D8076A
:101B000008F48AC0CE019F70906A88C0C11525E58F
:101B1000D20708F040C0C11544E5D40728F09C2F37
:101B20008827846F906A7AC0C11553E5D507A8F05D
:101B30009E012370332781E090E002C0880F991F37
:101B40002A95E2F72C2F2695269550E2259F9001A5
:101B50001124822B932B9A6861C0C11582E5D807A6
:101B600028F49C2F8827816F906A58C09E012370AB
:101B7000332781E090E002C0880F991F2A95E2F791
:101B80002C2F2695269540E2249F90011124822B2C
:101B9000932B9C6843C0C11529E5D207B0F4C11549
:101BA00048E5D40728F09C2F8827806F906A36C0BC
:101BB000C11556E5D50780F58C2F0E94BB098F71A2
:101BC00090E0982F8827906229C0C1158AE5D80730
:101BD00090F48C2F8F700E94BB099E0194E0369583
:101BE00027959A95E1F72F7030E0322F2227306940
:101BF000A901482B0FC0CE0190568115904260F488
:101C00008D2F8F710E94BB099E01332730628F7127
:101C1000A901582BCA0102C080E090E0DF91CF916A
:101C200008950F931F93962F81116AC040918602E9
:101C30005091870260918802709189028B0122275E
:101C40003327011511052105310521F0B901A8013E
:101C500080E101C080E0052F162F272F33270115C3
:101C600011052105310519F0885FB901A8018A0124
:101C70009B01F4E03695279517950795FA95D1F7CE
:101C8000011511052105310519F08C5FB901A80175
:101C90008A019B01E2E03695279517950795EA950D
:101CA000D1F7011511052105310519F08E5FB90134
:101CB000A8017695679557954795452B462B472B59
:101CC00009F08F5F813019F0823039F010C099230C
:101CD00011F089EA11C08AEA0FC0992321F01F91FF
:101CE0000F910C94430C1F910F910C943A0C992373
:101CF00011F08AEF01C089EF1F910F910C9411250B
:101D00001F910F9108959091EA0190FF3BC091704F
:101D1000811102C0926006C0853210F0986402C042
:101D2000880F982B9093EA018091F1018160809354
:101D3000F101662351F06091EA017091EB0180910D
:101D4000EC019091ED010E94650A6091EA016695AF
:101D500070E04BE050E08FE291E00E946B28892B0D
:101D600019F00E943E2202C00E94452281E0809329
:101D7000E70120E04091ED016091EC018091EB01E1
:101D80000C945E0B08958091EA018695815009F4C8
:101D900084E261E00C94830E8091EA0186958F5F66
:101DA000853208F081E061E00C94830E9F92AF923F
:101DB000BF92CF92DF92EF92FF920F931F93CF9338
:101DC000DF93A9E1B1E005EC11E03AECE32E31E05C
:101DD000F32EF801A12C81E090E0BF0190801082E9
:101DE0004C91242F22952F7030E0E901D9A04F703B
:101DF000EC0102C0CC0FDD1F4A95E2F7AE014D2980
:101E0000E90149A34C91242F22952F7030E0E9017C
:101E10005AA14F706C0101C0CC0C4A95EAF74C2DC9
:101E2000409545234AA3D0EADA95F1F723E1C22E83
:101E300021E0D22E40E050E0E601B9906E012B2D5A
:101E400022952F7030E0E90128A130E0DB2DDF7012
:101E500002C035952795DA95E2F720FD07C09C0171
:101E6000042E01C0220F0A94EAF702C020E030E0FD
:101E70003081232B20834F5F5F4F46305105E1F6C1
:101E80004C91242F22952F7030E0E90159A14F7019
:101E90006C0101C0CC0C4A95EAF74C2D40954523C6
:101EA00049A34D91242F22952F7030E0E901DAA04B
:101EB0004F70EC0102C0CC0FDD1F4A95E2F7AE0176
:101EC0004D29E9014AA3319621E0EB01388139110E
:101ED00001C020E0A22AEE16FF0609F07ECFC091D5
:101EE000D001AA2049F081E08093AE010E944E1CEF
:101EF0009093AD018093AC018091AE018823A9F04D
:101F00008091AC019091AD010E94241C069768F06D
:101F1000EC2FF0E0E952FE4FD8018D918D018193B5
:101F2000EA16FB06C9F71092AE010E944C0C8823FA
:101F300009F462C0C091CF018091F1018823E9F0DA
:101F400085E0EAEEF1E0A1EBB1E001900D928A9517
:101F5000E1F78091EF019091F001A091F101809360
:101F6000B6019093B701A093B80181E090E00E9480
:101F70005827892B11F41092F10180E090E00E9423
:101F80005827892B09F0B2C0EC2FF0E0E952FE4F40
:101F900080E090E0DC01A654BE4F2C912193019685
:101FA00085309105B9F7F090C2010F2D10E0015472
:101FB0001D4FC091BF01F8018081C81BEC2E1E147B
:101FC00054F4EA94D8018C918F5F8C9360E08F2D4C
:101FD0000E94110EF4CF8C2FC7FD80E0C81BCC23CC
:101FE00009F498C0CF5FF80180818150808361E05F
:101FF0008F2D0E94110EF3CFE091D0010E2F10E033
:102000008091B901883009F04CC08091B80180FFFF
:1020100025C09091B1018091EA0190FF0AC08160D2
:102020008093EA018091B10160E086950E94830E61
:1020300015C08E7F8093EA010E943E228091F101BB
:1020400081608093F101FFEF20E782E0F1502040B2
:102050008040E1F700C000000E94FE098091B801B5
:1020600081FF09C020E04091B4016091B3018091EB
:10207000B2010E945E0B8091B80182FF09C080917D
:10208000B701882319F00E94452202C00E943E2217
:102090008091B80183FF03C081E08093E701109233
:1020A000B901F801E952FE4F80E090E02191DC0196
:1020B000A654BE4F2C93019685309105B9F7E09157
:1020C000C301F0E0E154FD4F80818093BF010E9485
:1020D000BC218A2DDF91CF911F910F91FF90EF903E
:1020E000DF90CF90BF90AF909F9008958091AF0107
:1020F0008F5F8093AF01863050F3E091CF01F0E025
:10210000E952FE4F80E090E01192019685309105F2
:10211000D9F7DDCF1092AF01DACF2091E4003091F2
:10212000E50095E64091EC00842F817040FF23C0CC
:102130008091E80080FD1DC080911402882399F0F1
:10214000853099F08091EB0085FD11C04091E4004D
:102150005091E5002417350729F3915011F09A01A9
:10216000E1CF84E0089582E0089583E0089581E05E
:10217000089580E008954091E80042FFDDCF089582
:102180008091160287FF11C08091E80082FD05C092
:10219000809114028111F8CF11C08091E8008B77F3
:1021A0000BC080911402882349F08091E80080FFE1
:1021B000F8CF8091E8008E778093E8000895982FFB
:1021C000973068F59093E900981739F07091EC001A
:1021D0002091ED005091F00003C0242F762F50E0A5
:1021E00021FD02C09F5FECCF3091EB003E7F30932A
:1021F000EB003091ED003D7F3093ED003091EB002E
:1022000031603093EB007093EC002093ED0050931D
:10221000F0002091EE0027FDE5CF80E008958F705B
:102220008093E90081E0089520911C0230911D0205
:102230002617370748F06115710539F42091E80039
:102240002E772093E80001C0B901FC0120E0611560
:10225000710579F1809114028823F1F18530F1F153
:102260008091E80083FD3CC08091E80082FD2EC093
:102270008091E80080FFEBCF2091F3008091F20085
:1022800090E0922B6115710551F08830910538F47A
:1022900021912093F100615071090196F3CF21E063
:1022A000089709F020E08091E8008E778093E8009D
:1022B000CECF2111CFCF0AC080911402882361F0C4
:1022C000853061F08091E80083FD0AC08091E800CC
:1022D00082FFF2CF80E0089582E0089583E00895C0
:1022E00081E0089580911402843011F081E0089516
:1022F00082E00895CF93DF93CDB7DEB760970FB636
:10230000F894DEBF0FBECDBF84B7877F84BF0FB602
:10231000F894A89580916000886180936000109285
:1023200060000FBE90E080E80FB6F89480936100E3
:10233000909361000FBE85B7806885BF85B78068C0
:1023400085BF0E94CA180E94E9188091E20084604B
:102350008093E2007894809114028823A1F0109178
:10236000E9001F709091EC00892F817090FD80E84A
:10237000182B1092E9008091E80083FD0E94B115AE
:102380001F701093E90082E084BD93E095BD9AEF41
:1023900097BD80936E0055985D9889B185FB88271D
:1023A00080F98093230180912301882321F01092EA
:1023B000C10186E003C086E08093C10180930001E3
:1023C0000E944C0C62E070E0882329F081E091E0EB
:1023D0000E94762604C081E091E00E947F268091D1
:1023E000230181112DC0FE0131968AE0DF011D928B
:1023F0008A95E9F781E3898382E38A8382E98B8383
:1024000081EF8C8384EF8D83A9E1B1E0CE010B963F
:1024100021912D938E179F07D9F726E0ECE3F1E089
:10242000DE011B9601900D922A95E1F7FC01A3E1D4
:10243000B1E0CE01419621912D938E179F07D9F7D8
:1024400080912301811102C095E001C090E090933A
:10245000D00185E0891B8093CF01E9E1F1E04EE1F5
:1024600051E021E030E08081A82FA295AF70B0E06C
:1024700091969C9191978F70B90101C0660F8A95D2
:10248000EAF7862F8095892391968C938191A82FC6
:10249000A295AF70B0E092966C9192978F7089017F
:1024A00002C0000F111F8A95E2F7C801862B929691
:1024B0008C934E175F07B9F6E3E1F1E049E151E093
:1024C00021E030E08081A82FA295AF70B0E0919616
:1024D0009C9191978F70B90101C0660F8A95EAF7B8
:1024E000862F8095892391968C938191A82FA29510
:1024F000AF70B0E092966C9192978F70890102C094
:10250000000F111F8A95E2F7C801862B92968C93D3
:102510004E175F07B9F6E5ECF1E08FEC91E0A7ED1F
:10252000B1E011921D928E179F07D9F780E090E0DD
:102530000E94E9278C3E9E4F11F00E94D11C809191
:102540002301811106C087EF8093120186EF8093EB
:10255000110180911201E82FE295EF70F0E031A1B6
:10256000282F2F7081E090E0AC0101C0440F2A9524
:10257000EAF7242F2095232321A320911201E22F93
:10258000E295EF70F0E042A12F70BC0102C0660F2F
:10259000771F2A95E2F79B01242B22A3209111019A
:1025A000E22FE295EF70F0E031A12F70AC0101C095
:1025B000440F2A95EAF7242F2095232321A3209165
:1025C0001101E22FE295EF70F0E032A12F7001C00F
:1025D000880F2A95EAF7832B82A320911201E22F1C
:1025E000E295EF70F0E080A190E02F7002C0959529
:1025F00087952A95E2F7817090911101E92FE29574
:10260000EF70F0E020A130E09F7002C03595279573
:102610009A95E2F720FD02C090E001C092E0892B7C
:102620008093C4019091230181E098279093C30186
:10263000891B8093C20180E090E00E94E9278C3ED4
:102640009E4F11F00E94D11C82E090E00E94DB2797
:102650008093FC010E94C01C9093D2018093D10111
:1026600083E090E00E94DB27682F70E080E090E03C
:102670000E94761E8091D30181113BC080E090E0E2
:102680000E94E9278C3E9E4F21F00E94D11C0E949F
:10269000990A88E090E00E94E3276093EA01709332
:1026A000EB018093EC019093ED018091F101836047
:1026B0008093F1016E7F71F40E94990A88E090E0A6
:1026C0000E94E3276093EA017093EB018093EC0191
:1026D0009093ED010E94520A0E943E228091EA01ED
:1026E00080FF04C060E086950E94830E81E08093A5
:1026F000D30184E291E09093D5018093D401F1E07D
:10270000EF2EF4E0FF2E80911402853009F03AC0DC
:1027100080911402843021F11092D60120E488E1E6
:1027200090E00FB6F894A895809360000FBE2093B8
:10273000600083B7817F846083BF83B7816083BF7C
:102740007894889583B78E7F83BF0FB6F894A89549
:1027500080916000886180936000109260000FBEDD
:1027600080911302882309F4CECF0E94D60E81EE09
:1027700091E0E7EDF1E021912111ADC18E179F07A6
:10278000D1F7C1CF0E94D60E0E944C0C8823A1F134
:10279000EDEFF1E0A7EDB1E000E010E0302F2D917A
:1027A0009191922721F180E0DD24D394492F4D218E
:1027B000D1F089833A832D2181E009F480E08B8375
:1027C0000E944E1C8160782F9D838C8349815A81A1
:1027D0006B818D810E947420F801E350FE4F80814F
:1027E000D826D08219C08F5FDD0C8630F9F60F5FD6
:1027F0001F4F0A30110591F68FEF8B878C871D864E
:102800000E944E1C8160782F9F878E874B855C8548
:102810006D858F850E9474208091F001882309F4D2
:10282000C2C08091EF01E091EA01E695E81BE093D8
:10283000E601823059F4F0E0E15FFB4FE4910E2FA6
:1028400010E0E0E6CE2EE0E2DE2E58C0863059F4ED
:10285000F0E0E45FFB4FE4910E2F10E070E5C72E2F
:1028600070E2D72E4BC0893061F4E695F0E0E75F67
:10287000FB4FE4910E2F10E066EEC62E6FE1D62ED0
:102880003DC08F3061F4E695F0E0EA5FFB4FE491E4
:102890000E2F10E05CE5C52E5FE1D52E2FC08531EF
:1028A00059F4F0E0ED5FFB4FE4910E2F10E048EF9C
:1028B000C42E4EE1D42E22C0883199F0833241F4E7
:1028C000F7010591149130E1C32E30E2D32E16C0EA
:1028D000843271F404EF11E02BE8C22E2EE1D22EE7
:1028E0000DC008EE13E095ECC92E9EE1D92E06C06E
:1028F00000ED17E08AE8C82E8EE1D82E8091E7011E
:10290000882389F01092E7010E944E1C98012095BF
:102910003095820F931F9093E5018093E40110920C
:10292000E9011092E8018091E4019091E5010E9493
:10293000241C80179107B8F18091E3018823B1F03E
:102940001092E3018091E1019091E2010E94241C28
:102950008033954758F00E944E1C9093E20180937B
:10296000E1018091F10188608093F101A090E8017C
:10297000B090E901E091E401F091E5010E0F1F1F15
:102980001093E5010093E40184EE91E0F6010995CE
:102990008091E8019091E901892B29F4AB2819F085
:1029A00081E08093E3018091F9019091FA010E9406
:1029B000241CAC019091F801911103C02CE231E08C
:1029C00002C022E330E04217530708F478C0809138
:1029D000F4011091F50181110BC0111192C02091E9
:1029E000F60121118EC02091F70121118AC067C024
:1029F0009F3F19F09F5F9093F801181624F40E94EE
:102A0000761B8093F4018091F40187FF05C00E943A
:102A1000761B81958093F401111624F40E94761B95
:102A20008093F5018091F50187FF05C00E94761B18
:102A300081958093F5013091F4013323E1F02091E9
:102A4000F5012223C1F005EB3003C00111249923C5
:102A500019F09093F40103C081E08093F40115EB29
:102A60002103C0011124992319F09093F50103C0AB
:102A700081E08093F5018091F601181624F40E94FC
:102A8000541B8093F6018091F60187FF05C00E94D8
:102A9000541B81958093F6018091F701181624F458
:102AA0000E94541B8093F7018091F70187FF05C0B6
:102AB0000E94541B81958093F7010E945A1C0E942A
:102AC0003C219091FB01891709F41DCE0E943C2105
:102AD0008093FB0118CE80E189BD82E189BD09B4F4
:102AE00000FEFDCF8091D8008F7D8093D80080912B
:102AF000E00082608093E0008091E00081FDFCCFE7
:102B000002CE9F3F09F076CF87CFEF92FF920F93CF
:102B10001F93CF93DF937C018B010E948D10811155
:102B200019C0E70101151105A1F08091E80085FDAC
:102B30000AC08091E8008E778093E8000E948D1093
:102B4000882381F307C089918093F1000150110916
:102B5000E9CF80E0DF91CF911F910F91FF90EF902F
:102B600008951F93CF93DF93CDB7DEB7AA970FB623
:102B7000F894DEBF0FBECDBFE6E1F2E08091F10038
:102B8000819322E0EE31F207C9F78091170283307A
:102B900009F460C030F4813071F0823009F49AC0D9
:102BA000B1C08A3009F486C08B3009F46BC089301B
:102BB00009F0A8C020C080911602813A09F0A2C095
:102BC0008091E800877F8093E80080911A029091BD
:102BD0001B02892B21F468E08AE092E003C060E0E8
:102BE00080E090E070E00E9414118091E8008B7703
:102BF0008093E80087C080911602813209F082C07C
:102C000080911A0290911B02029708F07BC080917C
:102C1000E800877F8093E8008091E80082FD05C08E
:102C2000809114028111F8CF6DC02091F300809142
:102C3000F20090E0922B029729F48091F1008B7FB3
:102C4000813021F48091F100809309028091E800A5
:102C50008B7754C080911602813A09F053C080915D
:102C60001A0290911B02892B09F04CC08091E80058
:102C7000877F8093E8008091E80080FFFCCF8091FF
:102C80002E0137C0809116028132E1F580911A023F
:102C900090911B02892BB1F58091E800877F80938A
:102CA000E8000E94C0108091180280932E010E94BB
:102CB000DC2428C080911602813221F58091E80041
:102CC000877F8093E8000E94C01080911902809352
:102CD000080218C080911602813AA1F48091E800A0
:102CE000877F8093E8008091E80080FFFCCF80918F
:102CF00008028093F1008091E8008E778093E800CD
:102D00000E94C0108091E80083FFD8C18091160214
:102D100090911702492F50E04A30510508F0CEC17A
:102D2000FA01EA58FF4F0C945928803821F0823874
:102D300009F0C4C108C08091120290911302992336
:102D400089F082600FC080911A028F70873008F07E
:102D5000B5C18093E9008091EB0085FB882780F95D
:102D60001092E9009091E800977F9093E80080939B
:102D7000F1001092F10071C1282F2D7F09F09EC142
:102D8000882319F0823061F099C180911802813056
:102D900009F094C1933009F080E0809313022EC0B3
:102DA0008091180281112AC080911A028F702FEF32
:102DB000280F263008F082C18093E9002091EB00B3
:102DC00020FF1CC0933021F48091EB00806214C07E
:102DD0009091EB0090619093EB0021E030E0A9012D
:102DE00002C0440F551F8A95E2F74093EA00109203
:102DF000EA008091EB0088608093EB001092E9007C
:102E00008091E800877F2CC1811158C11091180270
:102E10001F778091E3008078812B8093E30080917D
:102E2000E800877F8093E8000E94C0108091E8004E
:102E300080FFFCCF8091E30080688093E300111154
:102E400002C082E001C083E08093140237C1805841
:102E5000823008F033C180911802909119028C3DA4
:102E600053E0950779F583E08A838AE289834FB737
:102E7000F894DE01139620E03EE051E2E32FF0E00B
:102E800050935700E49120FF03C0E295EF703F5F3D
:102E9000EF708E2F90E0EA3010F0C79601C0C09618
:102EA0008D939D932F5F243149F74FBF8091E800A8
:102EB000877F8093E8006AE270E0CE0101960E946D
:102EC0001411BAC040911A0250911B02292F3327C6
:102ED00023303105B1F068F42130310509F4FDC02B
:102EE0002230310509F0EAC08BE390E0E8EDF4E030
:102EF00050C02132310581F12232310509F439C047
:102F0000DDC0992781309105B9F070F082309105CC
:102F1000D9F0039709F0D2C0E5E2F5E0E4918E2FF5
:102F200090E0E5E2F5E032C0E9E5F5E0E4918E2FCE
:102F300090E0E9E5F5E02AC0E9E4F5E0E4918E2FC0
:102F400090E0E9E4F5E022C0EBE2F5E0E4918E2FB9
:102F500090E0EBE2F5E01AC04115510509F4C2C05A
:102F60004130510509F0AAC089E090E0E3E0F5E0C6
:102F700010C04115510509F4BAC04130510509F09E
:102F80009DC085E890E0E3E1F4E003C0009709F418
:102F900095C02091E800277F2093E80020911C0233
:102FA00030911D028217930708F49C0140E021151F
:102FB000310589F180911402882309F43DC08530E0
:102FC000D9F18091E80083FD37C08091E80082FD4F
:102FD0002FC08091E80080FFEACF4091F3008091FC
:102FE000F20090E0942B2115310559F088309105BD
:102FF00040F444914093F1003196215031090196FB
:10300000F2CF41E0089709F040E08091E8008E7728
:103010008093E800CCCF4111CDCF0AC0809114023B
:10302000882351F0853041F08091E80083FD04C091
:103030008091E80082FFF2CF8091E8008B77809347
:10304000E8003CC08038D1F58091E800877F80930C
:10305000E800809115028093F1008091E8008E775E
:103060008093E8000E94C01029C0811127C0809180
:103070001802909119029927029704F58091E800AF
:10308000877F8093E80010911802109315020E9428
:10309000C010111106C08091E30087FD02C081E0DD
:1030A00001C084E08093140242E061EC81E00E9460
:1030B000DF1042E261EC82E00E94DF108091E800C4
:1030C00083FF1AC08091E800877F8093E800809199
:1030D000EB0080628093EB000FC082E190E0E3E1BF
:1030E000F5E057CF89E090E0EAEEF4E052CF80E4DB
:1030F00090E0E8E9F4E04DCFAA960FB6F894DEBF71
:103100000FBECDBFDF91CF911F9108951F920F92F7
:103110000FB60F9211242F933F934F935F936F93AA
:103120007F938F939F93AF93BF93CF93DF93EF934F
:10313000FF93C091E900CF708091EC00D82FD1703F
:1031400080FDD0E81092E9008091F000877F8093A5
:10315000F00078940E94B1151092E9008091F0007F
:1031600088608093F000CD2BCF70C093E900FF9171
:10317000EF91DF91CF91BF91AF919F918F917F910F
:103180006F915F914F913F912F910F900FBE0F90D4
:103190001F901895E8EDF0E080818E7F808310927B
:1031A000E2001092DA001092E100A0EEB0E08C9103
:1031B00081608C9380818F77808319BCA7EDB0E00C
:1031C0008C918E7F8C9380818F7E808310920702FA
:1031D0000895CF92DF92EF92FF920F931F93CF93B8
:1031E000DF93C8EDD0E088818F7E8883E7EDF0E043
:1031F00080818160808384E082BF81E080930702C8
:1032000088818E7F888302EE10E0F8011082109290
:10321000DA0081EEC82ED12CF601108288818F77DA
:10322000888388818068888388818F7D888319BCA2
:1032300010921402109215021092130210921202B0
:1032400090EEE92EF12CF70180818B7F80838881BD
:103250008160888342E060E080E00E94DF10F60138
:1032600080818E7F8083F80180818160808380816E
:1032700088608083F70180818E7F80838881806170
:103280008883DF91CF911F910F91FF90EF90DF9096
:10329000CF9008951F920F920FB60F9211242F9383
:1032A0003F934F935F936F937F938F939F93AF93CE
:1032B000BF93EF93FF938091E10082FF09C080915B
:1032C000E20082FF05C08091E1008B7F8093E100E6
:1032D0008091DA0080FF2AC08091D80080FF26C04C
:1032E0008091DA008E7F8093DA008091D90080FF90
:1032F00018C080E189BD82E189BD09B400FEFDCF1F
:1033000081E0809314028091070281110FC00E9416
:10331000CA180E94E9188091E20084608093E2005C
:1033200005C019BC10921402109207028091E100AE
:1033300080FF17C08091E20080FF13C08091E200FF
:103340008E7F8093E2008091E20080618093E200B2
:103350008091D80080628093D80019BC85E080936A
:1033600014028091E10084FF32C08091E20084FF6A
:103370002EC080E189BD82E189BD09B400FEFDCF88
:103380008091D8008F7D8093D8008091E1008F7E5E
:103390008093E1008091E2008F7E8093E200809133
:1033A000E20081608093E20080911502882311F091
:1033B00084E007C08091E30087FD02C081E001C086
:1033C00083E0809314020E94DC240E943C218091BF
:1033D000E10083FF27C08091E20083FF23C080913A
:1033E000E100877F8093E10082E0809314021092D5
:1033F00015028091E1008E7F8093E1008091E200D0
:103400008E7F8093E2008091E20080618093E200F1
:1034100042E060E080E00E94DF108091F000886070
:103420008093F000FF91EF91BF91AF919F918F91A9
:103430007F916F915F914F913F912F910F900FBEB0
:103440000F901F901895809109020895CF93DF93F4
:1034500000D01F92CDB7DEB790911402943019F5C9
:1034600089837B836A8382E08093E9008FEF909168
:10347000E800815095FD06C095ED9A95F1F70000A2
:103480008111F5CF8091E80085FF0DC040E050E04C
:1034900063E070E0CE0101960E9485158091E800FE
:1034A0008E778093E8000F900F900F90DF91CF916F
:1034B0000895CF93DF93EC010E947211823011F0D6
:1034C000843031F4BE0184E0DF91CF910C94261A50
:1034D000DF91CF910895BC016058710983E00C948D
:1034E000261ACF93DF93EC010E947211823011F003
:1034F0008430F9F482E08093E9008FEF9091E80046
:10350000815095FD06C095ED9A95F1F70000811167
:10351000F5CF8091E80085FF0CC040E050E066E008
:1035200070E0CE010E9485158091E8008E7780932F
:10353000E800DF91CF910895CF93DF93EC010E94D3
:103540007211823011F0843039F581E08093E90006
:103550008FEF9091E800815095FD06C095ED9A950A
:10356000F1F700008111F5CF8091E80085FF14C0CC
:1035700040E050E068E070E0CE010E948515809147
:10358000E8008E778093E80088E0FE01AAE0B2E0D0
:1035900001900D928A95E1F7DF91CF910895803FD8
:1035A00039F48091F50187FF6CC01092F50169C074
:1035B000813F29F48091F5011816BCF362C0909107
:1035C000F401823F29F497FF5CC01092F40159C0C6
:1035D000833F19F41916CCF354C0893F41F480910C
:1035E000F60118160CF04DC01092F6014AC08A3F41
:1035F00029F48091F60187FF44C0F6CF8B3F39F460
:103600008091F70187FF3DC01092F7013AC08C3FCF
:1036100029F48091F7011816BCF333C0843F21F4DC
:103620008091F3018E7F17C0853F21F48091F301D3
:103630008D7F11C0863F21F48091F3018B7F0BC0F9
:10364000873F21F48091F301877F05C0883F31F4E3
:103650008091F3018F7E8093F30113C08D3F21F49D
:10366000809197028E7F0BC08E3F21F4809197024C
:103670008D7F05C08F3F29F4809197028B7F8093C7
:1036800097028091F40181110EC08091F5018111A2
:103690000AC08091F601811106C08091F701811165
:1036A00002C01092F80108958091970280FD16C023
:1036B00081FD16C082FD18C08091F801882391F029
:1036C000883290F428E0829FC001112468E270E003
:1036D0000E944528862F672B29F007C082E00895B5
:1036E00084E0089581E0089588E00895809197022C
:1036F00080FD14C081FD14C082FD16C08091F801C8
:10370000882381F0843180F422E3829FC001112458
:1037100064E170E00E944528862F08958CE00895AA
:1037200089E1089585E0089582E30895803F21F4BA
:103730000E94761B819504C0813F29F40E94761B6C
:103740008093F5010895823F21F40E94761B8195B4
:1037500004C0833F29F40E94761B8093F4010895EE
:10376000893F19F40E94541B05C08A3F31F40E941E
:10377000541B81958093F60108958B3F21F40E949C
:10378000541B819504C08C3F29F40E94541B8093E4
:10379000F7010895843F21F48091F301816017C0FF
:1037A000853F21F48091F301826011C0863F21F4AE
:1037B0008091F30184600BC0873F21F48091F30175
:1037C000886005C0883F31F48091F3018061809367
:1037D000F30108958D3F21F48091970281600BC021
:1037E0008E3F21F480919702826005C08F3F29F4BB
:1037F00080919702846080939702089578941F9235
:103800000F920FB60F9211248F939F93AF93BF9394
:103810008091930290919402A0919502B0919602AA
:103820000196A11DB11D8093930290939402A093E1
:103830009502B0939602BF91AF919F918F910F9097
:103840000FBE0F901F901895CF92DF92EF92FF92CC
:103850000F931F932FB7F8944091930250919402C5
:1038600060919502709196022FBF6A017B01EE2450
:10387000FF248C0120E030E0C016D106E206F306FA
:1038800010F4415051099A01281B390BC9011F91AD
:103890000F91FF90EF90DF90CF9008952FB7F8949D
:1038A0008091930290919402A0919502B09196021A
:1038B0002FBF0895E091D401F091D501309749F0E0
:1038C00082E08093F2010480F581E02D82EF91E0A7
:1038D00009950E944E1C9093FA018093F901089576
:1038E0001F920F920FB60F9211248F939F93AF9355
:1038F000BF938091D601811113C080919302909162
:103900009402A0919502B09196024196A11DB11D1D
:103910008093930290939402A0939502B0939602A1
:10392000BF91AF919F918F910F900FBE0F901F90FD
:1039300018959C012A5F3F4FFC014281461301C04C
:103940001282019682179307B9F708959C01FC0132
:1039500032969FEF80E04191461789F09F3F19F41E
:10396000411101C0982F8F5F8630A9F79F3F39F032
:10397000F901E90FF11D97FDFA9562830895089505
:10398000CF9384E090E00E94DB27C82F81E290E093
:103990000E94DB272C2F30E0A901582BCA01CF91C0
:1039A00008956CEE7EEF80E090E00E940D2860E0CC
:1039B00082E090E00E94EF2760E083E090E00E94C8
:1039C000EF2710928F0210929002109291021092A3
:1039D000920260E084E090E00E94EF2760E081E2E4
:1039E00090E00E94EF2760E085E090E00E94EF27E2
:1039F00060E086E090E00E94EF276FEF87E090E0C4
:103A00000E94EF2740E050E0BA0188E090E00E9479
:103A1000012860E08DE090E00E94EF2740E050E058
:103A2000BA0188E190E00E94012860E087E190E01F
:103A30000E94EF2740E050E0BA018CE190E00E9444
:103A4000012860E080E290E00E94EF2740E050E033
:103A5000BA018FE090E00E94012840E050E0BA01F6
:103A600083E190E00C94012880918E0281111092E4
:103A70008E02089590918D0280918C02892B209165
:103A80008B02982F922B90931E0280918E02882396
:103A900089F0892B80931E02E0E2F2E097E080E05B
:103AA000915029F021912223D9F38F5FF9CF811111
:103AB0000E94341DE091D401F091D501309731F08E
:103AC0000280F381E02D8EE192E009940895BF9287
:103AD000CF92DF92EF92FF920F931F93CF93DF93DA
:103AE0008C01C0908602D0908702E0908802F0900E
:103AF000890280918F0290919002A0919102B091E1
:103B00009202C82AD92AEA2AFB2ACFE1D0E0D701BB
:103B1000C6010C2E04C0B695A795979587950A9473
:103B2000D2F780FD04C0219790F7B12C07C0BC2EBE
:103B3000B8018C2F0E94690C0197A9F38B2DDF919E
:103B4000CF911F910F91FF90EF90DF90CF90BF909A
:103B50000895CF93DF93EC010E94671DBE010E9480
:103B6000690CDF91CF910895292F220F920F990FA1
:103B7000890F682F669566956695982F977085E0F2
:103B8000689FB001112440E050E080E0FB01E40FA9
:103B9000F51FE25AFD4F208130E0092E02C0369514
:103BA00027950A94E2F721703327042E01C0220FD3
:103BB0000A94EAF7822B4F5F5F4F4530510531F78A
:103BC0000895292F220F920F990F890FE82FE6955C
:103BD000E695E695877051E001C0550F8A95EAF7A2
:103BE00085E0E89FF0011124E25AFD4F20E030E02B
:103BF00070E04081CB01022E02C0969587950A9411
:103C0000E2F78170819584278523842781932F5F34
:103C10003F4F2530310569F7089560938602709310
:103C2000870280938802909389020C94C1240F9399
:103C30001F9341E050E060E070E004C0440F551F66
:103C4000661F771F8A95D2F74095509560957095BD
:103C50008091860290918702A0918802B09189029A
:103C60008A019B01082319232A233B23C901B80198
:103C70001F910F910C940D1E20918A028095822332
:103C800080938A02982F977079F430E0482F082E9D
:103C9000000C550B2417350739F0859585958595CA
:103CA0000E94171E10928A0208950F931F9341E0FD
:103CB00050E060E070E004C0440F551F661F771F9E
:103CC0008A95D2F78091860290918702A09188020E
:103CD000B09189028A019B01082B192B2A2B3B2BBF
:103CE000C901B8011F910F910C940D1E60938F02B2
:103CF0007093900280939102909392020C94C1244D
:103D000080915D0290912C02891719F08F5F877066
:103D1000FBCF08950895EF92FF920F931F93CF93D7
:103D2000DF938C01CBE9D2E0E12CF12CF801848106
:103D3000F6E0EF16F1041CF4882339F002C081117B
:103D400004C09E014091ED0102C09E0140E06091DF
:103D5000EC018091EB010E94B00A8FEFE81AF80A9B
:103D600023969CE0E916F10409F70E94FE09F80188
:103D7000848190E00196817099278483DF91CF91AF
:103D80001F910F91FF90EF900895EF92FF920F9384
:103D90001F93CF93DF93EC018C819D8101968170FD
:103DA00099279D838C838BE9E82E82E0F82E10E022
:103DB00005E5212F26958C819D81820F911D8170B3
:103DC00097014091ED016091EC01809F802D1124BD
:103DD0000E94B00A1F5F83E0E80EF11C1C3049F717
:103DE000DF91CF911F910F91FF90EF900C94FE09FE
:103DF000EF92FF920F931F93CF93DF937C01FC010F
:103E00008481811109C081E084831092990292E03B
:103E100090933B0180933A01CBE9D2E0FE011182FD
:103E200010821282339682E0EF3BF807C1F700E080
:103E300010E080919902082E000C990B08171907C1
:103E400094F080913B01082E000C990B801791078C
:103E500054F09E014091ED016091EC018091EB01E5
:103E60000E94B00A03C0198218821A820F5F1F4F86
:103E700023960C301105E9F60E94FE0980913A0163
:103E800090919902980F9093990220913B01280FED
:103E900020933B01121614F49B303CF081958093E3
:103EA0003A01813011F4F7011482DF91CF911F9113
:103EB0000F91FF90EF9008959F92AF92BF92CF9293
:103EC000DF92EF92FF920F931F93CF93DF93EC015A
:103ED0008A8180FF03C0BB24BA9402C0BB24B39480
:103EE0008C8181110BC081E0B81204C08BE08093FB
:103EF000980202C01092980281E08C832BE9E22E96
:103F000022E0F22E00E010E03CE0932EF701118257
:103F10001082128294E0C92ED12CA12C809198029B
:103F20008A0D8D302CF0692D0E942328892F02C024
:103F300087FD845F082E000C990B0817190791F470
:103F40008091ED018C9DA0018D9D500D1124559502
:103F500047955595479597016091EC018091EB014C
:103F60000E94B00AAB0CF1E0CF1AD108B9F60F5F8E
:103F70001F4F83E0E80EF11C0C30110539F60E944A
:103F8000FE098091980291E0B9120CC0811105C020
:103F90008BE0809398021C820DC081508093980220
:103FA000BC8208C090E00196B8010E944528809329
:103FB00098028C83DF91CF911F910F91FF90EF902A
:103FC000DF90CF90BF90AF909F900895EF92FF92B7
:103FD0001F93CF93DF93EC018BE9E82E82E0F82E5C
:103FE00010E08C8197014091ED016091EC01810F0F
:103FF0000E94B00A1B5E83E0E80EF11C1C3F89F7AB
:104000000E94FE099A818C8190FF02C08F5F01C0DF
:1040100081508C83DF91CF911F91FF90EF90089595
:104020000F931F93CF93DF9300D01F92CDB7DEB7CE
:104030008C0180919A0281110AC09E012F5F3F4F2F
:104040004FEF6FEF0E94B00A8A8180939A02F801C5
:104050008481813051F028F0823061F440919A02DD
:104060000AC080919A0240E007C060919A0240E045
:1040700080E003C040E080E060E00E94410AF80177
:10408000848190E0019663E070E00E94452884837B
:104090000F900F900F90DF91CF911F910F91089586
:1040A000CF93DF93EC01EAEEF1E0438162818C81F2
:1040B0000E94440B8C818F5F8C83DF91CF91089598
:1040C000CF93DF93EC01EC81F0E0E35AFA4F449197
:1040D000EAEEF1E0628181810E94440B8C818F5F66
:1040E0008C83DF91CF9108951F93CF93DF93CDB74A
:1040F000DEB767970FB6F894DEBF0FBECDBF4B8B10
:104100005C8B6D8B7E8B8F8B86E09E01235F3F4F98
:10411000D901E82F1D92EA95E9F795E0FE01739623
:10412000D90101900D929A95E1F7F901DE011796F8
:1041300001900D928A95E1F7CE0107960E94F12237
:1041400081113EC086E0FE013796DE011196019096
:104150000D928A95E1F7FF81E8856A857B85611577
:10416000710531F0EF3F31F481E0FF3F19F403C0F6
:1041700081E001C080E080FD23C020912C0230E06E
:10418000C90101968770992740915D0250E084171C
:10419000950779F1F983EA837D836C8396E0929F9A
:1041A000D001939FB00D1124A35DBD4FFE01319648
:1041B00001900D929A95E1F780932C020E94801E47
:1041C00016E080915D0290912C028917F9F0189FFA
:1041D000C0011124835D9D4F0E94F1228823B1F01C
:1041E00080915D0290E001968770992780935D022F
:1041F000E8CF0E94DC2410922C0210925D02E6E2CD
:10420000F2E086E0DF011D928A95E9F767960FB626
:10421000F894DEBF0FBECDBFDF91CF911F910895FF
:104220002091C6023091C7022817390771F0909388
:10423000C7028093C602E091D401F091D501309776
:1042400021F00084F185E02D099408952091C402A5
:104250003091C5022817390771F09093C5028093F9
:10426000C402E091D401F091D501309721F006808D
:10427000F781E02D09940895E091D401F091D501E2
:10428000309721F00190F081E02D099480E00895AD
:104290000F931F93CF93DF93C62FD42F122FFC01C0
:1042A00082818823C9F06093A8010E944E1C9093DC
:1042B000C3028093C20280E28C0F883008F057C09E
:1042C000C77081E001C0880FCA95EAF7DF91CF91EE
:1042D0001F910F910C9407258091A801681330C09D
:1042E0008091C2029091C3020E94241C883C9105D7
:1042F00038F500E20D0FCD17B9F080E28C0F883051
:1043000040F4C77081E001C0880FCA95EAF70E94A7
:10431000FC24083028F581E09D2F977001C0880F9C
:104320009A95EAF70E940725812F0E9411250830EF
:10433000F0F4D77081E001C0880FDA95EAF70AC07F
:1043400080E28C0F883098F4C77081E001C0880F3C
:10435000CA95EAF7DF91CF911F910F910C94FC243D
:10436000812FDF91CF911F910F910C941125DF9137
:10437000CF911F910F910895CF93E091C4014E2FDB
:10438000440F440F4093C40120911201E22FE295A3
:10439000EF70F0E080A190E02F7002C095958795B6
:1043A0002A95E2F78170992750911101E52FE29546
:1043B000EF70F0E020A130E05F7002C035952795E6
:1043C0005A95E2F7F901E170FF2720FF02C0E2E011
:1043D000F0E0E82BF92BE42BE093C401C091C3017A
:1043E000EF70F0E0E959FE4F90818091C102890F92
:1043F0008093C10284306CF0EC2F0C2E000CFF0B6C
:10440000E154FD4F80818F5F808360E08C2F0E949C
:10441000110E8091C1028D3F6CF4EC2F0C2E000C1C
:10442000FF0BE154FD4F80818150808361E08C2F30
:104430000E94110E8091C102837887FF03C08150D2
:104440008C6F8F5F8093C102CF9108959091EA01A4
:1044500090FF04C09695981740F003C0811105C0E5
:1044600090E0961710F40C94CC0E61E00C94830E3F
:10447000882311F0FA0101C0FB010994EFEEF1E08D
:10448000118282818460828308956091EA01669539
:1044900070E04BE050E08FE291E00E946B28892BA6
:1044A00019F481E08093F0010E944E1C9093E50185
:1044B0008093E4018091F10184608093F10108957B
:1044C000CF9380912B0282958F7009F05FC080910D
:1044D0002802882309F45AC080915D02B0912C0211
:1044E00070912602A09127024091290250912A0240
:1044F00091E07F3F09F090E0692FC6E08B1709F447
:1045000045C04115510521F0AF3F21F020E003C027
:1045100021E001C0262F90E020FD35C0C89FF001AA
:10452000C99FF00D1124E35DFD4F21812A132BC09B
:104530002081271328C02281211125C023813481A5
:104540002417350710F421503109241B350B283C62
:104550003105C8F420912B022F70206120932B028B
:1045600026E0289FF001299FF00D1124EE5CFD4FFD
:1045700080818F708061808386E292E00E94780360
:10458000CF910C94801E01968770B8CFCF9108957B
:104590000E94A91D292F2F70E92FE295EF704E2F51
:1045A00050E0FA013297EE30F105B8F4E058FF4FD1
:1045B0000C945928803F99F018F4883E70F40FC08D
:1045C000843F59F40CC0883E50F0813F31F407C05D
:1045D000822F869586958695089580E0089581E0DE
:1045E0000895AF92BF92CF92DF92EF92FF920F9316
:1045F0001F93CF93DF93CDB7DEB761970FB6F894D3
:10460000DEBF0FBECDBF8C0185E0F801DE011D9637
:1046100001900D928A95E1F7D8013C9111962C9169
:1046200011971296EC90509126026091270280918A
:10463000290290912A02009731F06F3F31F441E056
:104640005F3F19F403C041E001C040E0B42FB170F6
:10465000BB2E40FD43C1F801C380D480A090280246
:10466000AA2009F4E2C040912B02C816D90628F00E
:10467000D601A81BB90BCD0104C0809590958C0D77
:104680009D1DFF24F394883C910548F0F12C407F58
:1046900009F090C086E292E00E94780317C1842F4F
:1046A000807F09F052C0621312C0531310C0FE2C59
:1046B000E1100DC04F70406140932B0286E292E002
:1046C0000E94780380912B02F801858348C1CD2890
:1046D00031F02F3F31F481E03F3F19F403C081E016
:1046E00001C080E080FD03C081E08E2502C080E033
:1046F00090E0F82FF170FF2E80FF1CC080915D02CA
:1047000040912C0256E0841709F406C190E0589FAE
:10471000F001599FF00D1124E35DFD4F61812613D7
:1047200006C06081361303C06281E61203C00196A1
:104730008770E9CFFE2CEE2009F411C180912B0285
:10474000816080932B02F12C0AC1621308C05313BD
:1047500006C0E11004C080912B02F80199C03D878A
:104760002E878D859E850E94C822882369F1EE20C0
:1047700059F120912B02822F82958F7090E0029741
:1047800074F0809126029091270298878F83198672
:10479000DB86CA862C87CE0107960E94780386E0C6
:1047A000F801A6E2B2E001900D928A95E1F70E942D
:1047B00060220DC0621771F03D872E878D859E8522
:1047C0000E94C82281111AC0C8010E947803FF24E8
:1047D000F394C5C05313F0CFE110EECF80912B02BC
:1047E000F8018583C8010E94780386E0E6E2F2E0E2
:1047F000DF011D928A95E9F7FA2CB1C0EE2021F372
:1048000020912B02822F82958F7090E002973CF2CC
:1048100080912602909127029A8389831B82DD82F0
:10482000CC822E83CE010196B8CFC816D90638F0B7
:10483000C81AD90AB8ECCB16D10450F007C080953D
:1048400090958C0D9D1D883C910510F0F12C3EC07B
:10485000FE2CEE2009F4B8CF621327C0531325C0F5
:1048600020912B0220FD18C0822F82958F70482F37
:1048700050E04115510581F0F80125834F30510575
:1048800041F08F5F982F9295907F822F8F70892BA8
:104890008583C8010E94780386E0F801A6E2B2E0B1
:1048A00001900D928A95E1F75AC03D872E878D853C
:1048B0009E850E94C822811172CF80912B02816057
:1048C00080932B02C8010E94780349C0E6E2F2E01F
:1048D00086E0DF011D928A95E9F741C0EE2009F4D8
:1048E00073CF3D872E878D859E850E94C822F82E26
:1048F000882309F469CF86E0F801A6E2B2E00190CE
:104900000D928A95E1F780912602909127020E94EC
:10491000A91D0E94602223C03D872E878D859E851C
:104920000E94A91D292F22952F70223028F49F70F4
:1049300039F0811105C00BC0243028F49F7049F470
:10494000805E883020F0C8010E947803BF2CFB2CC9
:1049500006C0D80115969C91907F91F7F8CF8F2DC6
:1049600061960FB6F894DEBF0FBECDBFDF91CF9139
:104970001F910F91FF90EF90DF90CF90BF90AF907D
:10498000089510928C0210928B020E943A1DE2EF61
:10499000F1E086E0DF011D928A95E9F71092F801B7
:1049A000109297020E945A1C80E090E00E942621FB
:1049B00080E090E00C94102110928D0286E0E0E2FD
:1049C000F2E0DF011D928A95E9F70C94C124882357
:1049D00041F0809590918C02892380938C020C94F5
:1049E0003A1D0895882339F090918C02892B809389
:1049F0008C020C943A1D0895882341F08095909183
:104A00008D02892380938D020C943A1D089588238A
:104A100039F090918D02892B80938D020C943A1D70
:104A20000895CF93C82F0E948B25C93349F42FEFE7
:104A300087EE93E0215080409040E1F700C00000F5
:104A40008C2FCF910C942425882309F463C08238DD
:104A500069F40E943C2181FF5DC069E38EE192E030
:104A60000E94A61C0E943A1D69E30EC0833891F48F
:104A70000E943C2180FF4EC063E58EE192E00E94DF
:104A8000A61C0E943A1D63E58EE192E00E94991CEB
:104A90000C943A1D843869F40E943C2182FF3AC08C
:104AA00067E48EE192E00E94A61C0E943A1D67E432
:104AB000EBCF9CEF980F913A10F4682FE5CF90E27E
:104AC000980F983088F4877021E030E0A90102C087
:104AD000440F551F8A95E2F7CA01809590918D0287
:104AE000892380938D02D4CF9BE5980F933020F4D7
:104AF00080E090E00C94262198E5980F973120F4FF
:104B000080E090E00C941021803F20F00E94CF1AAA
:104B10000C945A1C0895882309F489C08238B1F492
:104B20000E943C2181FD83C069E38EE192E00E94F6
:104B3000A61C0E943A1D2FEF41EE54E02150404048
:104B40005040E1F700C0000069E317C08338D9F492
:104B50000E943C2180FD6BC063E58EE192E00E94E3
:104B6000A61C0E943A1D8FEF91EE24E081509040E8
:104B70002040E1F700C0000063E58EE192E00E9472
:104B8000991C0C943A1D8438B1F40E943C2182FD9A
:104B90004EC067E48EE192E00E94A61C0E943A1D7E
:104BA0004FEF51EE84E0415050408040E1F700C0AB
:104BB000000067E4E2CF9CEF980F913A30F4682F41
:104BC0008EE192E00E94A61CDCCF90E2980F983014
:104BD00080F4877021E030E0A90102C0440F551F26
:104BE0008A95E2F7CA0190918D02892B80938D02FC
:104BF000C8CFEBE5E80FE33038F4F0E0E958FE4FBA
:104C0000808190E00C942621E8E5E80FE73148F434
:104C1000F0E0EE0FFF1FE658FE4F808191810C946B
:104C20001021803F20F00E94961B0C945A1C08957E
:104C30008EE1489B02C08150E1F7489BFECF08956A
:104C4000589880E28A95F1F7589A0895FC012AE075
:104C50002A95F1F790E020E080E031E0261779F026
:104C600040E14A95F1F7880F489B02C08160932785
:104C700000C0000040E14A95F1F72F5FEFCF20E13F
:104C80002A95F1F729B100C0000030E13A95F1F71B
:104C9000217092272081920F90830895EF92FF92C6
:104CA0000F931F93CF93DF931F92CDB7DEB7198277
:104CB0008C017C01E60EF11C0E151F0559F00E94B7
:104CC000182668E0CE0101960E942626F8018193FD
:104CD0008F01F2CF81E09981911180E00F90DF91F7
:104CE000CF911F910F91FF90EF9008959093CA027A
:104CF0008093C9026093C802509A589A089590937D
:104D0000CA028093C9026093C8025098589AE89AE0
:104D1000E9E6F0E080818C7F80830895615091E026
:104D200001C0990F6A95EAF720E031E0992361F01C
:104D3000492F482319F0589A232701C0589840E278
:104D40004A95F1F79695F2CF222311F0589A01C0B7
:104D5000589880E28A95F1F758980895FF920F933A
:104D60001F93CF93DF93EC018C01060F111DC01729
:104D7000D10741F0F9900E94202668E08F2D0E9413
:104D80008E26F5CFDF91CF911F910F91FF9008955F
:104D90001F920F920FB60F9211240F931F932F9310
:104DA0003F934F935F936F937F938F939F93AF93B3
:104DB000BF93EF93FF93CF93DF931F92CDB7DEB7EF
:104DC00019820E94182667E0CE0101960E942626CD
:104DD000382F369536953695932F96959570232FC7
:104DE0002570920F292F2370969596958770920FB4
:104DF000891348C08981811145C08091C8028317F9
:104E000008F440C080E18A95F1F7589A509AA2E0E0
:104E1000AA95F1F700C00091C9021091CA02B8E04A
:104E20003B9F000D111D11245898F80165816623E0
:104E300021F0868197810E94AE260E942026F0E113
:104E4000FA95F1F758985098589A80E18A95F1F7B9
:104E5000D80112966C911297662369F013968D9182
:104E60009C9114970E944E26D801ED91FC918111DE
:104E700005C082E004C0D801ED91FC9188E08083F8
:104E80000E9418260F90DF91CF91FF91EF91BF9173
:104E9000AF919F918F917F916F915F914F913F91D2
:104EA0002F911F910F910F900FBE0F901F9018958B
:104EB0000F931F93CF93DF932091C80230E0281700
:104EC00039070CF471C09C0193E0220F331F9A95AF
:104ED000E1F7C091C902D091CA02C20FD31FF89462
:104EE000509A589845E04A95F1F70000982F96950A
:104EF00095708570890F982F937086958695890F88
:104F00008901082B0E94202684E08A95F1F700C0D1
:104F100067E0802F0E948E2640E14A95F1F7509875
:104F2000589A489902C000C0FCCF87E090E0489BA7
:104F30000EC0019751F4509A589AE881F98181E0A6
:104F40008083789481E090E031C000C0F0CF6D8123
:104F5000662381F08E819F810E944E2681110AC0B6
:104F6000509A589AE881F98182E08083789482E0AF
:104F700090E01CC00E94182680E28A95F1F75898AC
:104F8000509A40E14A95F1F76A81662321F08B81BE
:104F90009C810E94AE260E942026E881F981108221
:104FA000789480E090E002C084E090E0DF91CF91BF
:104FB0001F910F910895F999FECF92BD81BDF89A86
:104FC000992780B50895A6E1B0E044E050E00C9444
:104FD0001528A8E1B0E042E050E00C941528262FF7
:104FE000F999FECF92BD81BDF89A019700B40216DF
:104FF00039F01FBA20BD0FB6F894FA9AF99A0FBE8D
:1050000008950396272F0E94F0270E94EF27252F4F
:105010000E94F027242F0C94F0270196272F0E943E
:10502000F0270C94EF27DC01CB01FC01F999FECFAE
:1050300006C0F2BDE1BDF89A319600B40D92415020
:105040005040B8F7089587FB082E062687FD819506
:1050500067FD61950E945F280EF4919507FC81958C
:105060000895AA1BBB1B51E107C0AA1FBB1FA617AF
:10507000B70710F0A61BB70B881F991F5A95A9F701
:1050800080959095BC01CD01089597FB072E16F4ED
:10509000009407D077FD09D00E94312807FC05D085
:1050A0003EF4909581959F4F0895709561957F4F3F
:1050B0000895EE0FFF1F0590F491E02D0994991BC0
:1050C00079E004C0991F961708F0961B881F7A95FF
:1050D000C9F780950895FC014150504030F001908F
:1050E0000616D1F73197CF0108958827992708959B
:0450F000F894FFCF62
:1050F4000CC00100C00106BA01B90108B1010000E9
:10510400003332F1F49392379431F0F5F6F700005E
:1051140000000001231A9C1A711A6B1A591A010112
:10512400191A1B1C1D1E1F2021220102949793375C
:10513400F033000102020202060606090909090900
:10514400090F0F0F0F0F0F15151518191919191924
:105154001919191919232400FF0100010000FFFF88
:105164000000010001FF00818283E200E900EA00FF
:10517400B500B600B700CD008301CC008A019201CE
:1051840094012102230224022502260227022A0274
:08519400B300B4006F007000CD
:00000001FF
